:100000000C9445020C9476020C9476020C947602C1
:100010000C9476020C9476020C9476020C94760280
:100020000C9476020C9476020C9476020C94760270
:100030000C9476020C9476020C9476020C94760260
:100040000C9476020C9476020C9476020C94760250
:100050000C9476020C9476020C9476020C94B235D1
:100060000C9476020C9426360C94FC350C94760293
:100070000C9476020C9476020C9476020C94760220
:100080000C9476020C9476020C9476020C94760210
:100090000C9476020C9476020C9476020C948E34B6
:1000A0000C9476020C9476020C9476020C947602F0
:1000B0000C9476020C9476020C9476020C947602E0
:1000C0000C9476020C9476020C9476020C947602D0
:1000D0000C9476020C9476020C9476020C947602C0
:1000E0000C94760207634236B79BD8A71A39685634
:1000F00018AEBAAB558C1D3CB7CC5763BD6DEDFD4A
:10010000753EF6177231BF000000803F0800000006
:10011000BE922449123EABAAAA2ABECDCCCC4C3EFC
:1001200000000080BEABAAAAAA3E00000000BF00EB
:100130000000803F0000000000084178D3BB4387E7
:10014000D1133D190E3CC3BD4282AD2B3E68EC82FB
:1001500076BED98FE1A93E4C80EFFFBE01C4FF7F80
:100160003F00000000000C9439080C948F040C949C
:100170005D180C94CE030C9443030C94D5030C949B
:10018000A6080C9413030C9465110C945E040C9453
:100190005C360C9479040C9487040C9466040C94DB
:1001A00033030C94F31F0C943A080C946F040C94D2
:1001B0003D080C946E080C9481040C9462040C9419
:1001C000BB030C9495040C9481030C94ED130C94D4
:1001D0009E180C94AC030C947D040C94DC130C94CA
:1001E00080030C9494040C94F3080C9438120C942F
:1001F000CD110C944C080C945A040C9473040C9478
:100200006F110C9499040C9469040C94AB030C9436
:1002100060080C948B040C9402040C940C080C944D
:1002200054044E414E494E495459494E46CDCCCCCA
:100230003D0AD7233C17B7D13877CC2B329595E6BA
:10024000241FB14F0A000020410000C84200401C9A
:100250004620BCBE4CCA1B0E5AAEC59D7400407AE7
:1002600010F35A00A0724E18090010A5D4E800003F
:10027000E87648170000E40B54020000CA9A3B00DD
:100280000000E1F505000080969800000040420F54
:10029000000000A08601000000102700000000E818
:1002A00003000000006400000000000A00000000DD
:1002B000000100000000002C76D888DC674F08237E
:1002C000DFC1DFAE59E1B1B796E5E3E453C63AE6E4
:1002D00051997696E8E6C28426EB898C9B62ED40C4
:1002E0007C6FFCEFBC9C9F40F2BAA56FA5F4900513
:1002F0005A2AF75C936B6CF9676DC11BFCE0E40D47
:1003000047FEF520E6B500D0ED902E03009435773A
:10031000050080841E080000204E0A000000C80C62
:10032000333333330F986E12831141EF8D211489CB
:100330003BE65516CFFEE6DB18D1844B381BF77C25
:100340001D901DA4BBE424203284725E228100C96A
:10035000F124ECA1E53D2700002200250028002B18
:10036000002E003100340002010000050108010BDD
:1003700001000020002300260029002C002F00325D
:10038000000001000003010601090100000A0B0240
:10039000090C0D0E08070304010000000000000016
:1003A000000000000000000000000000000000004D
:1003B000000000000000001211100000000000000A
:1003C000000000000000000000000000000000002D
:1003D0000000002100240027002A002D00300033F7
:1003E0000001010000040107010A010102102020A0
:1003F0000808102040102040800201020108040279
:1004000001010204081020408080402010080402EE
:100410000180040201804020100804020108040247
:10042000010102040810204080010204081020404D
:100430008005050505070508080808020202020AEA
:100440000A08080404040401010101010101010377
:1004500003030303030303040707070C0C0C0C0C32
:100460000C0C0C0202020206060606060606060B25
:100470000B0B0B0B0B0B0B7C3C3E5E2B3D3F2F5BAA
:100480005D3B2C2A225C00005C3611241FBECFEF9E
:10049000D1E2DEBFCDBF00E00CBF13E0A0E0B2E0D0
:1004A000E4E5FBE800E00BBF02C007900D92AE3719
:1004B000B107D9F727E0AEE7B3E001C01D92A73C32
:1004C000B207E1F712E0C5E4D2E000E006C02197F0
:1004D0000109802FFE010E943943C434D10780E016
:1004E0000807A9F70E94E3360C94A8450C94000075
:1004F000CF93DF93FC018281938190936D0780936A
:100500006C0784819581A681B78180936E07909353
:100510006F07A0937007B093710780859185A285BE
:10052000B3858093720790937307A0937407B09379
:100530007507DF011C96CF014996C6E7D7E02D91DC
:100540002993A817B907D9F7818D928D90938407C5
:10055000809383078AE697E0DF91CF91089591E039
:10056000909350048093720410925104109273047B
:1005700008958EBD00000DB407FEFDCF8EB5089521
:100580008FEF0C94B902FC01DB0112968D919C91C6
:100590001397938382838EE092E0918380831496F5
:1005A0008C911497848315968C9115978583169654
:1005B0004D915D916D917C9119974683578360872A
:1005C00071871A964D915D916D917C911D9742872F
:1005D0005387648775871E964D915D916D917C91CF
:1005E000519746875787608B718B52968C915297A3
:1005F000828B53964D915D916D917C915697438B73
:10060000548B658B768B57964D915D916D917C9156
:100610005A97478B508F618F728F5B968D919C910B
:10062000948F838F0895DC015996ED91FC9130975A
:10063000B9F083899489A589B689428553856485F3
:100640007585841B950BA60BB70B811520E89207C7
:10065000A105B10538F08FEF9FE7A0E0B0E0089565
:1006600090E080E00895DC0159968D919C9100976F
:1006700039F0DC01ED91FC910480F581E02D1994B5
:1006800090E080E00895CF93DF931F92CDB7DEB75F
:100690006983DC01ED91FC910280F381E02D41E062
:1006A00050E0BE016F5F7F4F19950F90DF91CF91A2
:1006B00008952091D903260F3327331F21323105A6
:1006C000ECF420914A04FC0190E080E0243069F0D1
:1006D00082E00895A091D9032191AC0149545C4F67
:1006E000A40FB52FB11D2C930196861798F3809116
:1006F000D903680F6093D90380E0089581E00895DD
:100700000895CF93DF93EC01E091B403F091B5032A
:100710003097F1F09091B3038091B2039817C0F035
:1007200090E0292F30E02617370754F4DE01A20F9E
:10073000B31F4C912C5F3B4FD9014C939F5FF1CF7E
:100740001092B3036093B203CB01DF91CF91199460
:10075000DF91CF9108950895E091B3038091B203A2
:10076000E81730F4F0E0EC5FFB4F808190E00895F3
:100770008FEF9FEF08959091B3038091B2032FEF15
:100780003FEF981748F4E92FF0E0EC5FFB4F208132
:1007900030E09F5F9093B303C90108958091B20345
:1007A0009091B303891B990B0895CF92DF92EF923A
:1007B000FF920F931F93CF93DF937C01CB018A01AC
:1007C00020915004222389F0EB016B01C40ED51E49
:1007D000CC15DD0569F06991D701ED91FC9101908F
:1007E000F081E02DC7011995F3CF642F0E945903C2
:1007F000C801DF91CF911F910F91FF90EF90DF9093
:10080000CF900895CF93DF931F92CDB7DEB7698362
:10081000209150042223F9F020917304203258F0E3
:1008200021E030E0FC013383228390E080E00F90F0
:10083000DF91CF91089580915104E82FF0E0EE5AB6
:10084000FB4F998190838F5F809351048093730451
:1008500081E090E0ECCF61E0CE0101960E94590367
:10086000F7CF682F81EC96E00C940204815082311E
:1008700008F05AC0E82FF0E08827EE5BFB4F8F4F5F
:100880000C9439436204660454045A045E049404CC
:1008900069046F04730479047D04810487048B0464
:1008A00094048F0495049904809180008F7780933D
:1008B00080000895809180008F7DF9CF8091800025
:1008C000877FF5CF84B58F7784BD089584B58F7DFC
:1008D000FBCF8091B0008F778093B0000895809116
:1008E000B0008F7DF9CF809190008F77809390003A
:1008F0000895809190008F7DF9CF80919000877F3F
:10090000F5CF8091A0008F778093A000089580910B
:10091000A0008F7DF9CF8091A000877FF5CF8091D7
:1009200020018F77809320010895809120018F7D91
:10093000F9CF80912001877FF5CFCF93DF93282FC8
:1009400030E0F901E557FC4F8491F901E551FC4F86
:10095000D491F901EF5CFB4FC491CC23A1F081113C
:100960000E943604EC2FF0E0EE0FFF1FEF58FC4F13
:10097000A591B491EC91ED2381E090E009F480E041
:10098000DF91CF91089580E090E0FACF1F93CF934D
:10099000DF93282F30E0F901E557FC4F8491F901EE
:1009A000E551FC4FD491F901EF5CFB4FC491CC238E
:1009B000A9F0162F81110E943604EC2FF0E0EE0F03
:1009C000FF1FE95AFC4FA591B4918FB7F894EC91B1
:1009D000111108C0D095DE23DC938FBFDF91CF913A
:1009E0001F910895DE2BF8CF10924A0481E0809386
:1009F00049041092240461E084E10E94C60461E08D
:100A000085E10E94C604E9EBF0E080818E7F80835F
:100A100080818D7F808388E48093B80085E4809313
:100A2000BC000895CF93DF9391E09093B6038823A1
:100A3000B9F0C091B800D091BA008091BC008A7B17
:100A40008093BC0060E084E10E94C60460E085E120
:100A50000E94C6040E94F404D093BA00C093B80068
:100A6000DF91CF910895CF93DF9390E0FC01E551A2
:100A7000FC4F24918F5C9B4FFC0184918823D1F023
:100A800090E0880F991FFC01EF52FC4FA591B491A3
:100A9000FC01E95AFC4FC591D49161110EC09FB77A
:100AA000F8948C91E22FE0958E238C932881E22399
:100AB000E8839FBFDF91CF9108958FB7F894EC91B1
:100AC000E22BEC938FBFF6CFCF93CFB7F894809102
:100AD000B103811127C0E6E6F4E08491E0E2F4E09E
:100AE0009491E82FF0E0EE0FFF1FEF52FC4FA5911D
:100AF000B491EC91E92321F461E085E30E94C604FE
:100B000061E085E30E9433058CB580618CBD8CB5B6
:100B100080648CBD61E084E30E94330561E083E37F
:100B20000E9433058091B1038F5F8093B103CFBFE3
:100B3000CF910895865320917B00982F987F277F2F
:100B4000922B90937B008770806480937C008091CF
:100B50007A00806480937A0080917A0086FDFCCFD1
:100B6000809178009091790008953FB7F894809132
:100B7000AD039091AE03A091AF03B091B00326B541
:100B8000A89B05C02F3F19F00196A11DB11D3FBFC5
:100B9000BA2FA92F982F8827BC01CD01620F711D94
:100BA000811D911D42E0660F771F881F991F4A958E
:100BB000D1F708958F929F92AF92BF92CF92DF921A
:100BC000EF92FF920F931F93CF93DF93D091730413
:100BD000D13208F0D7C0182FC09172040E94B50519
:100BE0006B017C0180914A0481116BC082E080938B
:100BF0004A04109349048FEF8093480410924704ED
:100C0000D0934604A2E5B4E0E6E2F4E080E0D81335
:100C100091C01092250480912504CC0FC82BC0935D
:100C2000250480912404813009F088C010922404A6
:100C30000E94B5056B017C01809125048093BB0067
:100C400080914C0490914D04A0914E04B0914F04BA
:100C5000892B8A2B8B2BA1F00E94B50500914C04A7
:100C600010914D0420914E0430914F046C197D0970
:100C70008E099F09061717072807390708F442C08D
:100C80008091BC0083FDD8CF85EC8093BC000E948E
:100C9000B5056B017C0180914A04823009F450C093
:100CA000809148048F3F09F46FC0809148048032DE
:100CB00009F46CC080914804803309F469C084E071
:100CC00026C080914C0490914D04A0914E04B091A7
:100CD0004F04892B8A2B8B2B09F484CF0E94B505F6
:100CE00080904C0490904D04A0904E04B0904F041E
:100CF0006C197D098E099F0986169706A806B90604
:100D000008F070CF80914B040E94120585E010928C
:100D100051041092730410925004DF91CF911F91EF
:100D20000F91FF90EF90DF90CF90BF90AF909F908A
:100D30008F9008959D9191938F5F69CF85EEA5CF98
:100D400080914C0490914D04A0914E04B0914F04B9
:100D5000892B8A2B8B2B09F49ECF0E94B50500911D
:100D60004C0410914D0420914E0430914F046C19A5
:100D70007D098E099F09061717072807390708F00C
:100D80008ACFC0CF81E0C3CF80E0C1CF82E0BFCFA8
:100D900083E0BDCF81E00C94DA058F929F92AF92F1
:100DA000BF92CF92DF92EF92FF920F931F93CF9358
:100DB000DF93D82FC62F142F613208F09CC00E94F9
:100DC000B5056B017C0180914A0481116FC081E0FF
:100DD00080934A04109349049FEF90934804109223
:100DE00047049C0F9093460480932504809125042A
:100DF000DD0FD82BD093250480912404813009F095
:100E00007CC0109224040E94B5056B017C01809186
:100E100025048093BB0080914C0490914D04A091D7
:100E20004E04B0914F04892B8A2B8B2BA1F00E948A
:100E3000B50500914C0410914D0420914E04309161
:100E40004F046C197D098E099F090617170728079B
:100E5000390708F44CC08091BC0083FDD8CF85ECE5
:100E60008093BC000E94B5056B017C0180914A040F
:100E7000813009F444C0809147048C1710F4C0916C
:100E80004704E6E2F4E0A4E0B4E080E08C1359C04B
:100E90008C2FDF91CF911F910F91FF90EF90DF90FA
:100EA000CF90BF90AF909F908F90089580914C0409
:100EB00090914D04A0914E04B0914F04892B8A2B40
:100EC0008B2B09F480CF0E94B50580904C04909044
:100ED0004D04A0904E04B0904F046C197D098E090A
:100EE0009F0986169706A806B90608F06CCF809170
:100EF0004B040E941205C0E0CBCF85EEB1CF8091AC
:100F00004C0490914D04A0914E04B0914F04892B54
:100F10008A2B8B2B09F4AACF0E94B50500914C04B3
:100F200010914D0420914E0430914F046C197D09AD
:100F30008E099F09061717072807390708F096CF6B
:100F4000D6CF91919D938F5FA1CF8F929F92AF92B9
:100F5000BF92CF92DF92EF92FF924B015C010E9411
:100F6000B5056B017C010E94B5056C197D098E09E0
:100F70009F09683E734081059105A8F321E0821A1C
:100F80009108A108B10888EEC80E83E0D81EE11CC4
:100F9000F11C81149104A104B10429F7FF90EF9092
:100FA000DF90CF90BF90AF909F908F9008952FB714
:100FB000F8946091A9037091AA038091AB0390917A
:100FC000AC032FBF08950F931F93CF93DF93EC01D2
:100FD0000E94D7078B010E94C0028F3F69F00E94D8
:100FE000D707601B710B6C177D07A8F380E0DF91BA
:100FF000CF911F910F91089581E0F9CFDB011496F5
:101000004D915C9115976D917C91DC01ED91FC9176
:101010000280F381E02D1994AF92BF92CF92DF92BC
:10102000EF92FF920F931F93CF93DF936C017B019D
:101030008B01040F151FEB015E01AE18BF08C0172E
:10104000D10759F06991D601ED91FC910190F081A1
:10105000E02DC6011995892B79F7C501DF91CF9154
:101060001F910F91FF90EF90DF90CF90BF90AF90C6
:101070000895089590E080E00895FC01538D448D1B
:10108000252F30E0842F90E0821B930B541710F033
:10109000CF96089501970895FC01918D828D981740
:1010A00061F0A28DAE0FBF2FB11D5D968C91928D18
:1010B0009F5F9F73928F90E008958FEF9FEF089549
:1010C000FC01918D828D981731F0828DE80FF11D12
:1010D000858D90E008958FEF9FEF0895FC01918D2D
:1010E000228D892F90E0805C9F4F821B91098F7326
:1010F000992708958DEC96E00E946E0821E0892BD7
:1011000009F420E0822F0895FC01A48DA80FB92FC7
:10111000B11DA35ABF4F2C91848D90E001968F731F
:101120009927848FA689B7892C93A089B1898C913E
:10113000837080648C93938D848D981306C002888D
:10114000F389E02D80818F7D80830895EF92FF9257
:101150000F931F93CF93DF93EC0181E0888F9B8DDA
:101160008C8D98131AC0E889F989808185FF15C094
:101170009FB7F894EE89FF896083E889F9898081B7
:101180008370806480839FBF81E090E0DF91CF9186
:101190001F910F91FF90EF900895F62E0B8D10E0A8
:1011A0000F5F1F4F0F731127E02E8C8D8E110CC017
:1011B0000FB607FCFACFE889F989808185FFF5CF62
:1011C000CE010E948408F1CFEB8DEC0FFD2FF11DB5
:1011D000E35AFF4FF0829FB7F8940B8FEA89FB899F
:1011E00080818062CFCFCF93DF93EC01888D8823FD
:1011F000B9F0AA89BB89E889F9898C9185FD03C07A
:10120000808186FD0DC00FB607FCF7CF8C9185FF5E
:10121000F2CF808185FFEDCFCE010E948408E9CF17
:10122000DF91CF91089580E090E0892B29F00E9412
:101230007A0881110E94000080E090E0892B49F03B
:1012400080E090E0892B29F00E94000081110E942B
:10125000000080E090E0892B49F080E090E0892B4D
:1012600029F00E94000081110E94000080E090E0BF
:10127000892B49F080E090E0892B29F00E94000042
:1012800081110C94000008959C5F0895089561E019
:10129000FC0184810E94C6048091FE03811110929A
:1012A000FE0308950CB405FC0DC09EBD00000DB4F6
:1012B00007FEFDCF9EB58EBD00000DB407FEFDCF2D
:1012C0008EB508958EBD00000DB407FEFDCF8EB51E
:1012D0009EBD00000DB407FEFDCF9EB508958CBDE8
:1012E0009DBD0895CF93DF93EC018091FE038111A2
:1012F00009C081E08093FE03809176069091770685
:101300000E946F0960E08C81DF91CF910C94C6043C
:101310008F929F92AF92BF92FF920F931F93CF93A2
:10132000DF93EC01F62E49015A018E81882389F062
:101330008F8198859C012F5F3F4F38872F838230A4
:10134000924018F40E94C002F3CFCE010E944709D8
:101350001E82CE010E9472098CE291E00E94E30796
:101360008F2D80640E94B90208E110E0D501C4010C
:10137000002E04C0B695A795979587950A94D2F745
:101380000E94B90208501109083F8FEF180771F742
:1013900085E9FF2021F028E087E8F2128FEF0E9414
:1013A000B90210E00E94C0028A8787FF04C01F3F75
:1013B00011F01F5FF7CFDF91CF911F910F91FF9039
:1013C000BF90AF909F908F900895AF92BF92CF92B1
:1013D000DF92EF92FF920F931F93CF93DF93EC0175
:1013E0006901C801820F931F8130924050F58E81B0
:1013F000882379F088819981AA81BB818417950718
:10140000A607B70731F48F819885C816D90608F06A
:1014100042C0488359836A837B838B85833039F04C
:1014200089E0440F551F661F771F8A95D1F79A01EF
:10143000AB0161E1CE010E948809882389F083E035
:101440008D83CE010E94470980E0DF91CF911F91EB
:101450000F91FF90EF90DF90CF90BF90AF900895E5
:101460000E94D7075B010E94C0028A878F3F69F400
:101470000E94D7076A197B096D327140A0F38FE093
:101480008D83CE010E944709DCCF8E3F89F41886F8
:101490001F8281E08E838F8198858C159D0550F485
:1014A0000E94C0028F819885019698878F83F3CF21
:1014B0008DE0E6CF6701E00EF11E0E94C002F6014A
:1014C00081936F01EE15FF05C1F78F819885080F95
:1014D000191F18870F838985882319F00115124079
:1014E000A0F08E81882389F08F8198859C012F5FE1
:1014F0003F4F38872F838230924018F40E94C002F9
:10150000F3CFCE010E9447091E8281E09ECFCF9289
:10151000DF92EF92FF920F93CF93DF93EC0169017B
:1015200082E1411551056105710599F08B85833084
:1015300039F089E0440F551F661F771F8A95D1F750
:101540009A01AB0168E1CE010E948809882319F055
:1015500084E08D832DC08EEF0E94B90276018EEF5C
:10156000D81AF70181917F010E94B902EC14FD04A1
:10157000C1F78FEF0E94B9028FEF0E94B9020E945B
:10158000C0028A878F71853071F4011116C0CE01B7
:101590000E94470981E0DF91CF910F91FF90EF907A
:1015A000DF90CF90089581E18D83CE010E9447099D
:1015B000CE010E94470980E0EECF88E592E00E94CC
:1015C000E307811102C085E1C4CF20E030E0A9012A
:1015D0006DE0CE010E948809882311F084E1B9CF23
:1015E0000E94C0028111FACFD2CF0F934091000424
:1015F000509101046091020470910304411551055A
:101600006105710599F0082F26E734E08091740494
:10161000909175040E94870A882349F01092000473
:1016200010920104109202041092030481E00F91C1
:1016300008950F93CF93C82F8091FF03811105C0A8
:10164000C1E08C2FCF910F910895409100025091ED
:10165000010260910202709103020C2F26E734E030
:1016600080917404909175040E94870A811102C0D0
:10167000C0E0E7CFCC2321F381E00E94F50A882364
:10168000B9F31092FF03DDCF8F929F92AF92BF927A
:10169000EF92FF920F931F93CF934B015C01C42FE6
:1016A0008091000290910102A0910202B091030288
:1016B00088159905AA05BB0551F181E00E94190B17
:1016C00081110BC080E0CF911F910F91FF90EF909F
:1016D000BF90AF909F908F90089586E7E82E84E0AA
:1016E000F82E00E012E030E020E0B501A401809186
:1016F0007404909175040E94E509882319F380927F
:10170000000290920102A0920202B0920302409164
:10171000FF034C2B4093FF0381E0D5CFCF93DF93A2
:10172000EC016E857F858889998941E00E94440B90
:10173000882351F08A8920E2829FC00111248A58AF
:101740009B4FDF91CF91089590E080E0FACF8F9288
:101750009F92AF92BF92CF92DF92EF92FF92CF9380
:1017600028E736E03093750420937404882309F445
:101770006DC040E060E070E0CB010E94440B81113D
:101780000BC080E0CF91FF90EF90DF90CF90BF90A3
:10179000AF909F908F900895809134068F7789F74E
:1017A0008091400690914106A0914206B091430677
:1017B00084369105A105B10520F3C0903C06D09078
:1017C0003D06E0903E06F0903F06C114D104E104CE
:1017D000F104B9F240E0C701B6010E94440B88232E
:1017E00081F280918104909182048115924049F6A2
:1017F000A0918604AA2329F2609184047091850443
:101800006115710509F4BDCF20918304222309F4E9
:10181000B8CFA09396062093880690E080E030E051
:10182000E1E0F0E0C82FAF01082E02C0440F551FC1
:101830000A94E2F72417350769F041E0480F019652
:101840008930910579F7409391069BCFC12CD12C1B
:101850007601C0CF8093910620918C0430918D0445
:1018600050E040E02115310541F420919A04309177
:101870009B0440919C0450919D04209389063093D1
:101880008A0640938B0650938C0646015701860EBC
:10189000971EA11CB11C8092970690929806A09268
:1018A0009906B0929A06E0918704F0918804F0932B
:1018B0009D06E0939C06B0E00E948040DC01CB01D5
:1018C000880D991DAA1DBB1D80939E0690939F06AF
:1018D000A093A006B093A10625E0EE0FFF1F2A9566
:1018E000E1F7E150FE4FEF2FFF27E6958E0F9F1F88
:1018F000A11DB11D8093920690939306A093940628
:10190000B09395068090890490908A04B12CA12C04
:101910008114910441F48090960490909704A090D3
:101920009804B0909904C81AD90AEA0AFB0AC80CAC
:10193000D91CEA1CFB1C04C0F694E794D794C79406
:10194000CA95D2F7C0928D06D0928E06E0928F068D
:10195000F092900685EFC8168FE0D806E104F104F6
:1019600028F48CE080939B0681E00CCF80E125EF8A
:10197000C2162FEFD206E104F104A0F38091A20475
:101980009091A304A091A404B091A50480939E0615
:1019900090939F06A093A006B093A10680E2E2CFA9
:1019A0004F925F926F927F928F929F92AF92BF926F
:1019B000CF92DF92EF92FF920F931F93CF93DF931B
:1019C000EC01423051056105710590F480E0DF9132
:1019D000CF911F910F91FF90EF90DF90CF90BF902C
:1019E000AF909F908F907F906F905F904F900895F1
:1019F00089859A85AB85BC850196A11DB11D84178B
:101A00009507A607B70710F3CB88DC88ED88FE881A
:101A10008F89803109F042C0BB27A72F962F852FD1
:101A2000480159012A013B01C80ED91EEA1EFB1EBE
:101A30008091000290910102A0910202B0910302F4
:101A4000C816D906EA06FB0699F58F898031C1F5DB
:101A5000B301A201552766277727440F551F4A581F
:101A60005B4FFA01918280828091FF0381608093B5
:101A7000FF038A89823080F08D819E81AF81B88595
:101A80008C0D9D1DAE1DBF1D80930004909301041D
:101A9000A0930204B093030481E099CFDB01CA0153
:101AA000E7E0B695A79597958795EA95D1F7B8CFD2
:101AB00040E0C701B6010E94440B8111C6CF86CF1A
:101AC000B301A2014F77552766277727440F551F8B
:101AD000440F551F4A585B4FFA0180829182A282BF
:101AE000B382C2CF8F929F92AF92BF92CF92DF927A
:101AF000EF92FF920F931F93CF93DF93FC018185A9
:101B00009285A385B4850196A11DB11D8417950703
:101B1000A607B70770F480E0DF91CF911F910F9176
:101B2000FF90EF90DF90CF90BF90AF909F908F90FD
:101B3000089583889488A588B6888789803189F537
:101B4000BB27A72F962F852FE9016A017B018F0103
:101B5000BC01CD01680D791D8A1D9B1D809000027E
:101B600090900102A0900202B090030286169706A0
:101B7000A806B90601F5F8018789803111F5DD2441
:101B8000EE24FF24F601EE0FFF1FEA58FB4F808181
:101B90009181B0E0A0E088839983AA83BB8381E030
:101BA000BBCFDB01CA01C7E0B695A795979587958E
:101BB000CA95D1F7C9CF40E00E94440B8111DBCF19
:101BC000AACFE894C7F8DD24EE24FF24F601EE0F37
:101BD000FF1FEE0FFF1FEA58FB4F80819181A2810A
:101BE000B381BF70D8CF4F925F926F927F92AF92C6
:101BF000BF92CF92DF92EF92FF920F931F93CF93FA
:101C0000DF9300D01F92CDB7DEB78C0149835A8392
:101C10006B837C835901C12CD12C7601412C82E04D
:101C2000582E612C712C49815A816B817C819E01D7
:101C30002F5F3F4FC8010E94720D882339F1F801D0
:101C40008585A301920104C0220F331F441F551F35
:101C50008A95D2F7DA01C901C80ED91EEA1EFB1E09
:101C600049815A816B817C818789803111F188EFAC
:101C70009FEFAFEFBFE0481759076A077B0798F25D
:101C8000F501C082D182E282F38281E00F900F9051
:101C90000F900F90DF91CF911F910F91FF90EF90D8
:101CA000DF90CF90BF90AF907F906F905F904F90FC
:101CB000089588EF9FEFA0E0B0E0DDCFCF93DF93F2
:101CC000FC012581222321F080E0DF91CF9108954E
:101CD000EC0180919B06803159F582E08583178A5B
:101CE000108E118E128E80919C0690919D06B0E010
:101CF000A0E025E0880F991FAA1FBB1F2A95D1F7E6
:101D0000838B948BA58BB68B84E896E09C8F8B8F0E
:101D100081E08C831E821F82188619861A861B8694
:101D20001C861D861E861F86188A198A1A8ACDCFA0
:101D3000803251F683E0858340919E0650919F0644
:101D40006091A0067091A106478B508F618F728FB2
:101D50009F012D5E3F4F84E896E00E94F30D8111B4
:101D6000D3CFB2CF8F929F92AF92BF92CF92DF929A
:101D7000EF92FF920F931F93CF93DF93EC018D812E
:101D800081110EC080E0DF91CF911F910F91FF90E4
:101D9000EF90DF90CF90BF90AF909F908F9008957D
:101DA0000B891C892D893E890417150726073707DB
:101DB00048F34A015B01823031F48A869B86AC8607
:101DC000BD8681E0E0CF81149104A104B10449F4FF
:101DD0001E821F82188619861A861B861C861D86FF
:101DE000F0CF0A851B852C853D85EB8DFC8D858587
:101DF00090E00996B901A8014150510961097109A2
:101E0000082E04C076956795579547950A94D2F7A2
:101E100075016401E1E0CE1AD108E108F10804C0BF
:101E2000F694E794D794C7948A95D2F7C416D5064A
:101E3000E606F70620F0012B022B032B11F58F8904
:101E4000988DA98DBA8D8E839F83A887B9878E01BF
:101E50000A5F1F4FC114D104E104F10409F4ADCFAE
:101E60004E815F816885798598018B8D9C8D0E945C
:101E7000720D91E0C91AD108E108F1088111EACF89
:101E800081CFC41AD50AE60AF70AE1CF3F924F92F2
:101E90005F926F927F928F929F92AF92BF92CF92FA
:101EA000DF92EF92FF920F931F93CF93DF93CDB703
:101EB000DEB72C970FB6F894DEBF0FBECDBF5C0126
:101EC000DC015B968D909C905C9716964D905D9092
:101ED0006D907C901997411451046104710409F4C8
:101EE00068C0BFEF4B1A5B0A6B0A7B0A312CF40106
:101EF00081859285A385B4859C01AD012F5F3F4FFD
:101F00004F4F5F4F29873A874B875C877301620188
:101F10001D821E821F821886F40181859285A38509
:101F2000B4852D813E814F815885281739074A078E
:101F30005B0708F056C089859A85AB85BC858C15F2
:101F40009D05AE05BF0550F482E0C82ED12CE12CD2
:101F5000F12C92E0492E512C612C712C9E012F5FA7
:101F60003F4FB701A601C4010E94720D8823C9F139
:101F700089819A81AB81BC81892B8A2B8B2B09F1BA
:101F8000260137019FEF491A590A690A790A2D81FA
:101F90003E814F8158852F5F3F4F4F4F5F4F2D83BD
:101FA0003E834F8358873FEFC31AD30AE30AF30AED
:101FB000B3CFF40140805180628073803324339426
:101FC00096CFC414D504E604F70409F70FEF1FEF0A
:101FD0002FEF3FE0B701A601C4010E94D00C811190
:101FE00019C080E02C960FB6F894DEBF0FBECDBFAF
:101FF000DF91CF911F910F91FF90EF90DF90CF90E5
:10200000BF90AF909F908F907F906F905F904F9018
:102010003F900895D50116964D915D916D917C91FB
:102020001997411551056105710539F09701860130
:10203000C4010E94D00C8823A1F2D5011696CD923E
:10204000DD92ED92FC921997332051F0D701C60131
:102050000196A11DB11DF40180839183A283B383F6
:10206000F5018789908DA18DB28D892B8A2B8B2BC1
:1020700039F48481C78AD08EE18EF28E80688483A1
:10208000F50184818062848381E0ACCF2F923F92FE
:102090004F925F926F927F928F929F92AF92BF9278
:1020A000CF92DF92EF92FF920F931F93CF93DF9324
:1020B00000D0CDB7DEB7FC018581811118C08FEF4C
:1020C0009FEF0F900F900F90DF91CF911F910F9185
:1020D000FF90EF90DF90CF90BF90AF909F908F9048
:1020E0007F906F905F904F903F902F9008958481E4
:1020F00080FFE5CF438954896589768982859385F8
:10210000A485B585312C212C481759076A077B0710
:1021100019F022242394312C6F012101CE01019664
:102120003C01DF011696BB83AA834114510409F4D4
:10213000C5C0F60142855385648575854A01F1E085
:102140009F22D6015B968D919C915C978A019B01A1
:10215000E9E03695279517950795EA95D1F71596F5
:10216000EC91E230E9F5FC01628D738D848D958DE3
:10217000600F711F821F931FA12C22E0B22EA8189E
:10218000B9084A145B0408F45201F601248126FDC3
:1021900004C0A114F2E0BF0671F400910002109196
:1021A0000102209102023091030206171707280747
:1021B000390709F05EC040E00E94440B882309F40F
:1021C0007ECFC4018A589B4FD3019C012A0D3B1D31
:1021D000FC012E173F0709F46CC041914D93F9CFD4
:1021E000DC011496BC90BA94B0228114910479F465
:1021F000B1100DC0452B462B472B69F5F601878999
:10220000908DA18DB28D86839783A087B187D601EB
:102210005B96ED91FC915C9716966D917D918D91F9
:102220009C9119976250710981099109258504C013
:10223000660F771F881F991F2A95D2F70685178585
:1022400020893189600F711F821F931F6B0D711DD3
:10225000811D911D91CFD60116964D915D916D9185
:102260007C9119972A813B810E94720D8111CFCFF9
:1022700026CF730185019401AB01BC0180917404E8
:10228000909175040E94E509882309F418CF6A0C1F
:102290007B1CF60182859385A485B5858A0D9B1DDF
:1022A000A11DB11D82879387A487B5874A185B0853
:1022B0003CCF281B390B620E731EEBCF2A942328C8
:1022C00009F0FDCE898190E0FCCEFC01818D928DDC
:1022D000009711F00C9446108FEF9FEF08950F9325
:1022E0001F93CF93DF93EC01898D9A8D10E000E06E
:1022F000009799F00E9446108C010F3F100769F07B
:10230000898D9A8DFC014285538564857585415080
:102310005109610971090E94B20EC801DF91CF9184
:102320001F910F9108951F93CF93DF93FC01258197
:10233000222371F1162FEC01848187FF1EC0CF018B
:102340000E948E0BFC01892B19F18D81823040F4A3
:102350008B899C89AD89BE89848F958FA68FB78F15
:102360008F89988D938F828F8F89988DA98DBA8D43
:10237000B58BA48B8C818F778C83111103C08C81DA
:102380008F7E8C83812FDF91CF911F910C94190B3D
:1023900080E0DF91CF911F910895FF920F931F93DB
:1023A000CF93DF93EC018D81813041F090E080E0AC
:1023B000DF91CF911F910F91FF9008958C8181FF44
:1023C000F5CF82FD1BC00091740410917504C80103
:1023D0000E9472090E94C002F82EC8010E9447099B
:1023E0008FEFF812E3CF8C8185FF1BC060E0CE0138
:1023F0000E9493118C818F7D8C83D8CF4B895C890F
:102400006D897E898A859B85AC85BD8584179507F6
:10241000A607B707C1F2CE010E94B20E8111D3CF39
:10242000C5CF409100045091010460910204709165
:102430000304452B462B472B21F080E00E94F50A30
:10244000B5CF80618C832A853B85317080E092E036
:10245000821B930BADCFCF93DF93EC0161E00E9421
:102460009311882311F01D8281E0DF91CF910895AF
:10247000FC01818D928D009719F061E00C9493110D
:1024800008952F923F924F925F926F927F928F9218
:102490009F92AF92BF92CF92DF92EF92FF920F93F3
:1024A0001F93CF93DF9300D01F921F92CDB7DEB75B
:1024B0007C015B01342E5D83DC0115968C911597B0
:1024C000813009F0CEC014962C9021FECAC022FCA7
:1024D000B4C0C32CDD8022947FE027222094B22D4B
:1024E000B1702B2ED7011A964D915D916D917C9113
:1024F0001D97C114D10409F428C15B968D919C915C
:102500005C97FC0174807A948A019B0169E036959E
:102510002795179507956A95D1F770228A01117052
:10252000711020C001151105E9F416964D915D91C9
:102530006D917C911997411551056105710509F05F
:1025400099C057968D919D910D90BC91A02D0097AB
:10255000A105B10509F0B0C0C7010E94460F88234C
:1025600009F47FC080E092E0801B910B46018C153E
:102570009D0508F44C01D7015B964D915C915C97E9
:1025800016968D919D910D90BC91A02D0297A10959
:10259000B109FA01258504C0880F991FAA1FBB1F26
:1025A0002A95D2F74685578560897189840F951FD2
:1025B000A61FB71F9C01AD01270D311D411D511DE7
:1025C00029013A01811432E0930609F07BC0809121
:1025D000000290910102A0910202B09103028415C1
:1025E0009505A605B70559F48FEF9FEFDC018093A1
:1025F000000290930102A0930202B0930302022D05
:102600009501B301A20180917404909175040E9418
:10261000870A882331F19EEFB91AC818D908F70143
:1026200082859385A485B585880D991DA11DB11D51
:1026300082879387A487B58755CFF701438954894B
:102640006589768982859385A485B585481759075C
:102650006A077B0709F43DCFC7010E94B20E8111C2
:1026600038CF81E090E0D70113969C938E93129718
:1026700080E007C09E012F5F3F4F0E94720D8111C5
:1026800002C090E079C089819A81AB81BC81F70159
:10269000238D348DF901278948EF5FEF60E070E00A
:1026A000203121F048EF5FEF6FEF7FE0841795074F
:1026B000A607B70708F050CFF70186839783A08756
:1026C000B18750CF0115110599F5D7011A964D9193
:1026D0005D916D917C911D9753968D919D910D907B
:1026E000BC91A02D481759076A077B0708F181E0C4
:1026F0000E94190B882309F4B4CF40920002509233
:10270000010260920202709203028091FF038160D5
:102710008093FF03C8018A589B4FD5019C01280D67
:10272000391DFC012E173F0759F04D914193FACF07
:1027300041E0C301B2010E94440B8111EBCF91CF64
:10274000281B390BA20EB31E68CFF7018389948929
:10275000A589B68984179507A607B70738F4848139
:10276000438B548B658B768B80688483F7018481DF
:1027700083FD1AC0832D9D810F900F900F900F90B5
:102780000F90DF91CF911F910F91FF90EF90DF900D
:10279000CF90BF90AF909F908F907F906F905F9001
:1027A0004F903F902F90089561E0C7010E949311D0
:1027B000882309F456CFDECFCF93DF931F92CDB796
:1027C000DEB7698341E050E0BE016F5F7F4F0E943A
:1027D00041120F90DF91CF910895CF93DF93EC01D9
:1027E000E98DFA8D309749F481E090E09B838A83EC
:1027F00090E080E0DF91CF91089513821282898D5D
:102800009A8D0E944112E98DFA8D22813381232B0A
:1028100059F7F0CF6115710579F0FB0101900020A7
:10282000E9F73197AF01461B570BDC01ED91FC91A5
:102830000280F381E02D199490E080E008958F925A
:102840009F92AF92BF920F931F93CF93DF93CDB719
:10285000DEB7A1970FB6F894DEBF0FBECDBF19A2A9
:10286000423008F44AE08E010F5D1F4F842E912CF8
:10287000B12CA12CA50194010E943F40E62FB90183
:10288000CA01EA30E4F4E05DD801EE938D01232B18
:10289000242B252B79F7BD018DEC96E00E940A14BC
:1028A000A1960FB6F894DEBF0FBECDBFDF91CF91DA
:1028B0001F910F91BF90AF909F908F900895E95C0A
:1028C000E3CFCF92DF92EF92FF92CF93DF936B0132
:1028D0007C016DE28DEC96E00E94A608EC01662773
:1028E0007727CB016C197D098E099F094AE00E9468
:1028F0001F148C0F9D1FDF91CF91FF90EF90DF9001
:10290000CF9008950C940A1442E050E06CE472E019
:102910008DEC96E00C940C08CF93DF93BC018DEC0A
:1029200096E00E940A14EC010E9484148C0F9D1FF3
:10293000DF91CF910895CF93DF93BC018DEC96E0AA
:102940000E94FE07EC010E9484148C0F9D1FDF91F2
:10295000CF9108958F929F92AF92BF92CF92DF92C4
:10296000EF92FF920F931F93CF93DF9300D01F92AC
:10297000CDB7DEB7FC018581813091F080E00F900A
:102980000F900F900F90DF91CF911F910F91FF90BB
:10299000EF90DF90CF90BF90AF909F908F90089571
:1029A000848181FFEBCF83899489A589B689892B9E
:1029B0008A2B8B2B09F45FC07F0140E050E0BA0105
:1029C000CF010E94B20E8823C9F2F701C38CD48CC8
:1029D0008788908CA18CB28C82E090E0A0E0B0E07F
:1029E000F60180839183A283B3839E012F5F3F4FC3
:1029F000B501A401C6010E94720D882309F4BECF5F
:102A000000E010E09801B501A401C6010E94D00CBD
:102A1000882309F4B3CF89809A80AB80BC80F6010B
:102A20008789803119F188EF9FEFAFEFBFE08816FB
:102A30009906AA06BB06C8F2F701178A108E118EF6
:102A4000128E138A148A158A168A84818068848378
:102A500061E0C7010E949311882309F48FCF40E001
:102A600050E0BA01C7010E94B20E89CF88EF9FEFF4
:102A7000A0E0B0E0DCCF81E082CFCF92DF92EF9296
:102A8000FF921F93CF93DF93EC0180E2689FF001E8
:102A90001124EA58FB4F9385917161F0842F827461
:102AA00049F080E0DF91CF911F91FF90EF90DF9090
:102AB000CF900895142F6A8B8091000290910102AB
:102AC000A0910202B09103028E879F87A88BB98BD9
:102AD000C488D588F12CE12C7601DD24CC24CF8A62
:102AE000D88EE98EFA8E828D938DB0E0A0E0AC0195
:102AF000BD014C295D296E297F294F8B588F698F25
:102B00007A8F83858871B1F4848D958DA68DB78D6C
:102B10008B8B9C8BAD8BBE8B81E08D831F701C8358
:102B20001E821F82188619861A861B861C861D86A1
:102B300081E0B8CF803109F0B4CF9E012D5E3F4FC8
:102B40008B8D9C8D0E94F30D882309F4AACF84E01D
:102B5000E4CFCF93DF9397FF0AC00E946114EC018A
:102B60000E9484148C0F9D1FDF91CF9108954AE03D
:102B70000E941F14F4CF0F931F93CF93DF93FC0198
:102B8000048115810115110539F4FB011082DF91D3
:102B9000CF911F910F9108950732110510F007E2B0
:102BA00010E0EB01FC0160817181A801CE010E945F
:102BB0007F45C00FD11F1882EACF80918307909183
:102BC0008407009761F00E942B12809183079091F7
:102BD00084070E94E44310928407109283070895AB
:102BE000CF93DF93EC0188819981009711F00E94C7
:102BF000E443198218821D821C821B821A82DF9193
:102C0000CF910895FC0180819181009711F00C947F
:102C1000E44308953F924F925F926F927F928F921A
:102C20009F92AF92BF92CF92DF92EF92FF920F935B
:102C30001F93CF93DF9300D000D000D01F921F923C
:102C4000CDB7DEB77C01DC0115968C91811115C0E2
:102C5000FE013196CE010C966F0130E23193E817F8
:102C6000F907E1F7DA0130E087E09D91B92E992369
:102C700029F19E3239F48A3011F480E0DAC038E06C
:102C80008AE0F3CFE7E7F4E04491442321F0319662
:102C90009413FACFF2CF831780F34FED490F4E35DF
:102CA00060F74FE9490F4A3118F440EEB42EB90EDF
:102CB000F601E30FF11DB0823F5FD7CF89818032EB
:102CC000E1F2322E8B01FB01838D948DD7015C964E
:102CD0009C938E935B9716821782108611861286BC
:102CE000138614861586F80182859385A485B5859B
:102CF000438954896589768984179507A607B7079C
:102D000008F04DC025E0B695A795979587952A952B
:102D1000D1F7F82FFF70AF2ED80115968C91823025
:102D200008F4ABCFC8010E94461097FDA6CFF8016A
:102D300082859385A485B5854F96A11DB11D828797
:102D40009387A487B587F0E2AF9EB00111246A583B
:102D50007B4F6115710509F490CFDB018C918823BD
:102D600041F0853E09F058C0BB2029F0BB24B39444
:102D7000BACFB1100EC0F701A28A809100029091E3
:102D80000102A0910202B091030286879787A08B6F
:102D9000B18BDB018C918111E9CFBB24B394832DDE
:102DA0008271823109F069CFBB2009F45AC0C70192
:102DB0000E948E0B009709F460CF20E2FC01119273
:102DC0002A95E9F72BE0F601DC0101900D922A9596
:102DD000E1F721E238E2DC0151963C932E935097C3
:102DE00040E058E01F965C934E931E9753963C9399
:102DF0002E93529759963C932E93589757965C93DF
:102E00004E93569781E00E94190B882309F435CF21
:102E1000432DF70162890AC04BE050E0C6010E94D1
:102E20004E45892B09F05FCF432D6A2DC7010E94C3
:102E30003D152B960FB6F894DEBF0FBECDBFDF91C8
:102E4000CF911F910F91FF90EF90DF90CF90BF90A7
:102E5000AF909F908F907F906F905F904F903F903A
:102E60000895F8018581823009F407CFC8010E94D6
:102E7000460F882309F401CFD8015B96ED91FC91B0
:102E80005C9716968D909D90AD90BC901997B2E08E
:102E90008B1A9108A108B108858504C0880C991C7B
:102EA000AA1CBB1C8A95D2F786859785A089B18913
:102EB000880E991EAA1EBB1E848124013501480E6E
:102EC000511C611C711C84149504A604B70409F1FB
:102ED000E1E04E1A51086108710881E00E94190B67
:102EE000882309F4CACEE6E7F4E0119286E796E07B
:102EF0008E179F07D1F74092000250920102609214
:102F00000202709203028091FF0381608093FF03AD
:102F1000DACFD8015B96ED91FC91258580E092E0B7
:102F2000A0E0B0E004C0880F991FAA1FBB1F2A951C
:102F3000D2F7F8014389548965897689840F951FF2
:102F4000A61FB71F838B948BA58BB68BD701529688
:102F50001C9286E794E031CF5F926F927F928F92BE
:102F60009F92AF92BF92CF92DF92EF92FF920F9318
:102F70001F93CF93DF93CDB7DEB7C754D1090FB6F8
:102F8000F894DEBF0FBECDBF5C013B0119A218A2B1
:102F90008EE092E09F8F8E8F1BA21C821B829A83F1
:102FA00089831E8210E000E06E018EE1C80ED11C04
:102FB00082EAE82E86E0F82EF501E00FF11F80810D
:102FC0008F3211F40F5F1F4FD501A00FB11FFE010B
:102FD000FB9690E080E04F012D912F3249F02223A3
:102FE00039F00F5F1F4F019621938C309105A1F7A7
:102FF000880D991DFC011082F501E00FF11F808101
:103000008F3211F40F5F1F4FF501E00FF11F508059
:1030100041E0511040E030E020E0B401C701F3018D
:103020001995811121C0F2EAEF16F6E0FF06C1F40E
:1030300080E0C95BDF4F0FB6F894DEBF0FBECDBF97
:10304000DF91CF911F910F91FF90EF90DF90CF9084
:10305000BF90AF909F908F907F906F905F900895FA
:10306000C7010E942B12E4CF552091F021E0A4016A
:10307000B701C6010E940A16982E82EAE81686E079
:10308000F80681F0C7010E942B12911010C0D0CF1A
:1030900092EAE91696E0F90619F0C7010E942B1290
:1030A00081E0C7CF992021F2FE0131967F019E2D4C
:1030B0008F2D7601C92ED82E7FCFCF93DF93CDB73A
:1030C000DEB76D970FB6F894DEBF0FBECDBF4423B9
:1030D00099F1AB01BC011C821B828EE092E09A83C5
:1030E00089831E8222E0CE0101960E940A16811178
:1030F0000EC090E081E0911101C080E06D960FB6A6
:10310000F894DEBF0FBECDBFDF91CF910895CE0101
:1031100001960E94AA14882361F3CE0101960E94B1
:103120008E0B009731F325EEFC0120831E8281E097
:103130000E94190B982FDECF81E0E0CF1F93CF9331
:10314000DF93CDB7DEB76D970FB6F894DEBF0FBE35
:10315000CDBFAB011C821B822EE032E03A83298373
:103160001E8221E0BC01CE0101960E940A1611E0E8
:1031700081110CC010E0812F6D960FB6F894DEBF60
:103180000FBECDBFDF91CF911F910895CE01019663
:103190000E942B12F0CFEF92FF920F931F93CF93C9
:1031A000DF93EC017B018A011B821A8288EE93E097
:1031B000A0E0B0E08C839D83AE83BF838EE392E07A
:1031C000998388838DE190E00E9448439A8F898F8C
:1031D000009779F02DE1F701DC0101900D922A951D
:1031E000E1F74CE050E0B801CE010C960E947F451B
:1031F000188EDF91CF911F910F91FF90EF9008955E
:103200002F923F924F925F926F927F928F929F92F6
:10321000AF92BF92CF92DF92EF92FF920F931F93E4
:10322000CF93DF93CDB7DEB7C756D1090FB6F89469
:10323000DEBF0FBECDBF5C013B01A6964FAFA69788
:1032400019A218A28EE092E09F8F8E8F1BA21C8283
:103250001B829A8389831E824E018EE1880E911C07
:10326000C4010E945E0E63018E010F5F1F4F240197
:1032700018016FE270E0C6010E946445009709F4EE
:1032800059C0F60120812F3271F4FFEFCF1ADF0A07
:10329000902F812F8201492E582E942D852D2801A3
:1032A000092F182FE6CF8C198D3008F08CE0E82E0E
:1032B000F12CA701B601CE01885A9F4F0E947F458D
:1032C000E8E5F0E0EC0FFD1FEE0DFF1D1082C801D8
:1032D0000E942B1221E0AE01485A5F4FB201C80193
:1032E0000E940A16811120C01EAE1DAE8EE092E033
:1032F0009CAF8BAF21961FAE2197A896EEADFFAD88
:10330000A8976E0E7F1EF3018081811120C0BE013F
:10331000655C7F4FC1010E94C3024FE452E0B101DE
:10332000C5010E94CB1831C0CE0CDF1CC2010E9427
:103330002B12B3CFC60186199709A8969FAF8EAFFF
:10334000A897B201CE01CB960E94C302D6CF19A294
:1033500018A28EE092E09F8F8E8F1BA221968FADD8
:10336000219781112DC0F5011382128288EE93E01E
:10337000A0E0B0E084839583A683B7838EE392E0D8
:1033800091838083128E118E1486C501C959DF4F37
:103390000FB6F894DEBF0FBECDBFDF91CF911F9166
:1033A0000F91FF90EF90DF90CF90BF90AF909F90E4
:1033B0008F907F906F905F904F903F902F900895E7
:1033C000A6962FADA697A301BE01655C7F4FC401F1
:1033D0000E940A16882339F2CE01CB960E942B1246
:1033E000A6968FADA6978670863039F449A95AA95A
:1033F0006BA97CA9C4010E94B20EB401C1010E9454
:10340000C302A3018CCF85ED8093BC0080914C0456
:1034100090914D04A0914E04B0914F040796A11DC8
:10342000B11D23E0B695A795979587952A95D1F775
:103430002091BC0024FD03C010924A0408954091DD
:103440004C0450914D0460914E0470914F04452BF3
:10345000462B472B69F30097A105B10541F025E301
:103460002A95F1F700000197A109B109E1CF8091F8
:103470004B040C941205CF93DF93DC0114962D912D
:103480003C911597232B79F0FB01CD91DC91608164
:103490007181CE010E948E45009729F08C1B9D0BF7
:1034A000DF91CF9108958FEF9FEFFACFFC01248138
:1034B0003581232B39F421E0FB018081882349F0F9
:1034C00020E007C0808191810E946F4521E0892B17
:1034D000B9F7822F08950F931F93CF93DF93EC01D9
:1034E00088819981009759F02A813B8126173707F7
:1034F00030F081E0DF91CF911F910F9108958B0102
:103500006F5F7F4F0E946D44009759F099838883C5
:103510001B830A832C813D81232B59F7FC011082E8
:10352000E8CF80E0E7CFEF92FF920F931F93CF9306
:10353000DF936115710541F480E0DF91CF911F9118
:103540000F91FF90EF90089541155105B1F07B0167
:10355000EC010C811D81040F151FB8010E946B1A2C
:10356000882351F3288139818C819D81B701820F95
:10357000931F0E9478451D830C8381E0DECFCF939B
:10358000DF93EC01FB0101900020E9F73197AF01D7
:10359000461B570B0E94931A811103C0CE010E9453
:1035A000F015CE01DF91CF910895CF93DF93EC0119
:1035B000FB0144815581608171810E94931A8111C0
:1035C00003C0CE010E94F015CE01DF91CF91089586
:1035D000FB0101900020E9F73197AF01461B570B23
:1035E0000C94931AEF92FF920F931F93CF93DF9354
:1035F000EC017B018A01BA010E946B1A81110BC098
:10360000CE010E94F015CE01DF91CF911F910F9155
:10361000FF90EF9008951D830C83B70188819981F5
:103620000E947845F0CFFB0101900020E9F7319727
:10363000AF01461B570B0C94F21A0F931F93CF93B5
:10364000DF93CDB7DEB7A2970FB6F894DEBF0FBEFB
:10365000CDBF8C01CB01BA01F80111821082138217
:103660001282158214822AE0AE014F5F5F4F0E94E2
:10367000D13ABE016F5F7F4FC8010E94131BA29613
:103680000FB6F894DEBF0FBECDBFDF91CF911F9173
:103690000F9108950F931F93CF93DF93CDB7DEB7AC
:1036A00062970FB6F894DEBF0FBECDBF8C01CB0181
:1036B000F8011182108213821282158214824AE06C
:1036C000BE016F5F7F4F0E94C63ABE016F5F7F4FA2
:1036D000C8010E94131B62960FB6F894DEBF0FBE9E
:1036E000CDBFDF91CF911F910F910895EF92FF927F
:1036F0000F931F93CF93DF93CDB7DEB7A1970FB68C
:10370000F894DEBF0FBECDBF7C01CB01BA01F7013B
:103710001182108213821282158214828E010F5F31
:103720001F4F22E044E00E944639009789F0BC0117
:10373000C7010E94131BA1960FB6F894DEBF0FBEFF
:10374000CDBFDF91CF911F910F91FF90EF90089522
:10375000C7010E94F015EFCFCF93DF93EC01FB017F
:103760008617970749F0608171816115710541F0F5
:10377000448155810E94F21ACE01DF91CF910895C4
:103780000E94F015F9CFFC0111821082138212827F
:10379000158214820C94AC1B4F925F926F927F92B1
:1037A000AF92BF92CF92DF92EF92FF920F931F934F
:1037B000CF93DF93CDB7DEB7A7970FB6F894DEBFF0
:1037C0000FBECDBF8C01BC01CE0101960E944A1BE9
:1037D000BE016F5F7F4FCE014C960E94C31B61E517
:1037E00072E0CE014C960E94BF1A0E949B14CE013B
:1037F0004C960E940216CE0101960E940216B80154
:10380000CE0101960E944A1BBE016F5F7F4FCE0121
:103810004C960E94C31B61E572E0CE014C960E945B
:10382000BF1A6EE978E1FC01808191810E94AC179A
:10383000F82ECE014C960E940216CE0101960E94EF
:103840000216B801CE01FF2009F4AEC101960E9414
:103850004A1BBE016F5F7F4FCE014C960E94C31B77
:1038600061E572E0CE014C960E94BF1A6DE578E1E9
:10387000FC01808191810E94AC17CE014C960E9480
:103880000216CE0101960E940216B801CE014C9696
:103890000E944A1BBE01645E7F4FCE0182960E9449
:1038A000C31B61E572E0CE0182960E94BF1AFC0143
:1038B0006081718147E1CE0101960E940019CE011D
:1038C00001960E947802CE0182960E940216CE01D5
:1038D0004C960E940216E0918307F091840730977E
:1038E00009F4B2C18581882309F4AEC101E917E06A
:1038F000F12CE12CF80140805180052C000C660869
:103900007708A280B380C480D580C301B2010E9431
:10391000A915B501CE0101960E944A1BCE01019660
:103920000E949B14CE0101960E940216B601CE01A0
:1039300001960E944A1BCE0101960E949B14CE0163
:1039400001960E94021667E672E08AE697E00E94FE
:103950008214B701CE0101960E944A1BBE016F5F1F
:103960007F4F8AE697E00E94FE07CE0101960E94F3
:1039700002166AEE72E08AE697E00E948214B301B2
:10398000A201CE0101960E941D1BBE016F5F7F4FF9
:10399000CE014C960E94C31B6AEE72E0CE014C969B
:1039A0000E94BF1ABC018AE697E00E94FE07CE0182
:1039B0004C960E940216CE0101960E940216B50195
:1039C000CE0101960E944A1BBE016F5F7F4FCE0160
:1039D0004C960E94C31B6AEE72E0CE014C960E9488
:1039E000BF1ABC018AE697E00E94FE07CE014C9602
:1039F0000E940216CE0101960E940216B601CE0167
:103A000001960E944A1BBE016F5F7F4FCE014C960C
:103A10000E94C31B6AEE72E0CE014C960E94BF1A50
:103A2000BC018AE697E00E94FE07CE014C960E94F8
:103A30000216CE0101960E9402166FE672E08AE637
:103A400097E00E948214FFEFEF1AFF0A045F1F4FF6
:103A500084E0E816F10409F04DCFC0907F03D090C8
:103A600080030D2C000CEE08FF0864E772E08DEC7B
:103A700096E00E948214C701B6010E94A9156AE768
:103A800072E08AE697E00E948214B701A601CE0197
:103A900001960E941D1BBE016F5F7F4FCE014C96A9
:103AA0000E94C31B6AEE72E0CE014C960E94BF1AC0
:103AB000BC018AE697E00E94FE07CE014C960E9468
:103AC0000216CE0101960E9402166FE672E08AE6A7
:103AD00097E00E948214C0908103D09082030D2C45
:103AE000000CEE08FF086FE772E08DEC96E00E9494
:103AF0008214B701A601CE0101960E941D1BCE01C2
:103B000001960E949B14CE0101960E94021665E860
:103B100072E08AE697E00E948214B701A601CE0106
:103B200001960E941D1BBE016F5F7F4FCE014C9618
:103B30000E94C31B6AEE72E0CE014C960E94BF1A2F
:103B4000BC018AE697E00E94FE07CE014C960E94D7
:103B50000216CE0101960E9402166FE672E08AE616
:103B600097E00E9482146AE872E08AE697E00E9479
:103B700082140E94DD1582E992E00E948C14A796BF
:103B80000FB6F894DEBF0FBECDBFDF91CF911F916E
:103B90000F91FF90EF90DF90CF90BF90AF907F900C
:103BA0006F905F904F9008954C960E944A1BBE0103
:103BB000645E7F4FCE0182960E94C31B61E572E076
:103BC000CE0182960E94BF1AFC016081718147E19B
:103BD000CE0101960E940019CE0101960E94780242
:103BE000CE0182960E940216CE014C960E940216C9
:103BF0000E94DD15B801CE0101960E944A1BBE014C
:103C00006F5F7F4FCE014C960E94C31B61E572E04F
:103C1000CE014C960E94BF1A6EE978E1FC018081CA
:103C200091810E94AC17F82ECE014C960E9402168C
:103C3000CE0101960E940216FF2009F44CCE86E5C3
:103C400092E00E948C1421CE8BEA92E096CFFC0188
:103C5000118210821382128215821482FB0101905C
:103C60000020E9F73197AF01461B570B0C94F21A6D
:103C70000F931F93CF93DF9300D000D0CDB7DEB763
:103C80008C010E94C31BF8018481958182309105CB
:103C900071F0039701F1C80126960FB6F894DEBFC4
:103CA0000FBECDBFDF91CF911F910F91089565ECAD
:103CB00072E0CE0101960E94271EB801CE01019646
:103CC0000E94D51ABC01C8010E94AC1BCE0101960E
:103CD0000E940216E0CF61EE72E0EBCF0F931F93CC
:103CE000CF93DF9300D000D0CDB7DEB78C010E9418
:103CF000C31BF801848195818230910551F180F4D4
:103D000063EC72E0019799F0C80126960FB6F8941B
:103D1000DEBF0FBECDBFDF91CF911F910F910895F0
:103D200083309105C9F061EE72E0049769F7CE0126
:103D300001960E94271EB801CE0101960E94D51A55
:103D4000BC01C8010E94AC1BCE0101960E94021664
:103D5000DBCF64EC72E0EBCF65EC72E0E8CF0F9361
:103D60001F93CF93DF9300D000D0CDB7DEB78C0187
:103D70000E94C31BF801848195818130910571F007
:103D8000029701F1C80126960FB6F894DEBF0FBE68
:103D9000CDBFDF91CF911F910F91089565EC72E037
:103DA000CE0101960E94271EB801CE0101960E9405
:103DB000D51ABC01C8010E94AC1BCE0101960E941D
:103DC0000216E0CF61EE72E0EBCFEF92FF920F931D
:103DD0001F93CF93DF9300D000D0CDB7DEB78C0117
:103DE0000E94C31BF801848195818130910509F4FB
:103DF0004CC00297A1F068E672E4CE0101960E94E1
:103E00004A1BED80FE80F80184819581E81AF90A49
:103E1000CE0101960E940216EA94EF2809F561EEA0
:103E200072E0CE0101960E94271EB801CE010196D4
:103E30000E94D51ABC01C8010E94AC1BCE0101969C
:103E40000E940216C80126960FB6F894DEBF0FBE78
:103E5000CDBFDF91CF911F910F91FF90EF9008950B
:103E600068E672E4CE0101960E944A1BED80FE8056
:103E7000F80184819581E81AF90ACE0101960E9421
:103E80000216F2E0EF16F10419F465EC72E0C9CF06
:103E9000B801C8010E94AC1BD5CF9B01AC0167ECF7
:103EA00071E780E092E40E94B4412BE338EA43E0FA
:103EB0005DE30E94713F2BE338EA43E05DE30E943B
:103EC0009A400895EF92FF920F931F93CF93DF9341
:103ED00000D000D0CDB7DEB78C017B010E94C31BA0
:103EE000D70114968D919C910197F8012481358119
:103EF0008217930758F40190F081E02DE80FF91F25
:103F0000D80115969C938E9314971082F8018081A6
:103F100091810E94923A20E030E0A9010E94AF41D5
:103F200018169CF468EC72E0CE0101960E94271EE0
:103F3000B801CE0101960E94D51ABC01C8010E94A9
:103F4000AC1BCE0101960E9402166AEC72E0C80119
:103F50000E94561A882329F060ED72E0C8010E9481
:103F6000131B64ED72E0C8010E94561A882329F0E1
:103F70006AED72E0C8010E94131B6EED72E0C80189
:103F80000E94561A811107C063EE72E0C8010E94B8
:103F9000561A882329F06EED72E0C8010E94131BA7
:103FA000D80114968D919C9168EE72E08130910554
:103FB00049F069EE72E08230910521F0039729F40F
:103FC0006AEE72E0C8010E94E81AC80126960FB690
:103FD000F894DEBF0FBECDBFDF91CF911F910F913F
:103FE000FF90EF9008954F925F926F927F92AF9201
:103FF000BF92CF92DF92EF92FF920F931F93CF93D6
:10400000DF93CDB7DEB7ADB6BEB62DB73EB7281B32
:10401000390B0FB6F8943EBF0FBE2DBFEDB7FEB7FC
:1040200031967F016F019F012E193F09281739072B
:1040300014F41192F8CF8701080F191F0C151D05F4
:1040400059F10E94D7076093C9067093CA068093FE
:10405000CB069093CC0681EC96E00E94BB0397FFC1
:1040600037C00E94D7074090C9065090CA0660909A
:10407000CB067090CC0664197509860997094090A3
:10408000C5065090C6066090C7067090C8066415B5
:10409000750586059705F8F2F7018081813021F4D6
:1040A0008CEE92E00E948C140FB6F894BEBE0FBE48
:1040B000ADBEDF91CF911F910F91FF90EF90DF90F8
:1040C000CF90BF90AF907F906F905F904F9008958A
:1040D000F60181936F01B2CF2F923F924F925F9280
:1040E0006F927F928F929F92AF92BF92CF92DF9208
:1040F000EF92FF920F931F93CF93DF93CDB7DEB76D
:10410000C754D1090FB6F894DEBF0FBECDBF8C01E6
:104110002DB73EB728963FAF2EAF28976EE472E0DA
:10412000CE0188960E94271E6EE472E0CE018E9624
:104130000E94271EB801CE0101960E944A1BBE01B3
:104140006F5F7F4FCE014C960E94C31B61E572E00A
:10415000CE014C960E94BF1A6EE978E1FC01808185
:1041600091810E94AC17D82ECE014C960E94021667
:10417000CE0101960E940216DD2031F1B801CE0178
:104180004C960E944A1BBE01645E7F4FCE01829610
:104190000E94C31B61E572E0CE0182960E94BF1AA5
:1041A000FC016081718141E0CE0101960E940019FD
:1041B000CE0101960E947802CE0182960E940216DC
:1041C000CE014C960E940216D12CC12C8AE697E0B3
:1041D0000E9413035C011601FFEF2F1A3F0A892B7F
:1041E000A9F08AE697E00E946511182F89831A8248
:1041F00041E050E0BE016F5F7F4FCE0188960E9484
:10420000931A103209F016016101E0CF6AEF72E0F3
:104210008DEC96E00E948214B101CE0101960E94BD
:104220004A1BCE0101960E949B14CE0101960E946A
:10423000021686E0829D9001839D300D11243FABD4
:104240002EAB8DB79EB7821B930B0FB6F8949EBF13
:104250000FBE8DBFEDB7FEB731964F018F01FDAB9D
:10426000ECAB6EE472E08CA99DA90E94271E2CA9DC
:104270003DA92A5F3F4F3DAB2CAB31E0C31AD108BB
:1042800080F7CE0188960E949B14D12CC12C1DAAC8
:104290001CAA8CA59DA59C01295F3F4F2C153D05AF
:1042A00008F468C0C816D90628F4E8A5F9A530971F
:1042B00009F057C010927E03EEE7F3E02081203230
:1042C000C1F0C816D90628F4E8A5F9A5309709F079
:1042D0004BC010927E03EEE7F3E0808189831A825F
:1042E00041E050E0BE016F5F7F4FCE018E960E948D
:1042F000931A8CA59DA5C816D90620F4E8A5F9A5A2
:104300003097A9F510927E03EEE7F3E080818032CA
:1043100021F526E0ECA9FDA92E9FC0012F9F900D4D
:104320001124BE01625D7F4F880D991D0E94AC1B58
:104330008CA99DA901969DAB8CAB6AE073E08DECD6
:1043400096E00E948214CE018E960E949B146EE429
:1043500072E0CE018E960E94131B9FEFC91AD90AF4
:1043600098CFEC0DFD1DAACFEC0DFD1DB6CFEC0DC9
:10437000FD1DCCCF0E94DD156EE472E0CE014C969F
:104380000E94271E65E273E0C8010E94561A882326
:1043900081F0B801CE014C960E94AC1BF12CE12CAF
:1043A0003FEFA31AB30A0A5F1F4FA214B30454F3DA
:1043B0006AC1E114F10401F565E273E0CE014C96A7
:1043C0000E94561A882389F1F80180819181009713
:1043D00079F00E94963A26967FAF6EAF2697B80185
:1043E000CE014C960E94AC1BEE24E394F12CD8CF66
:1043F00060E070E0CB01EFCFF1E0EF16F104A9F43B
:104400004AE050E070E060E0F801808191810E9414
:1044100064392B010E94A915B801CE014C960E9467
:10442000AC1BF2E0EF2EF12CBBCF6CE273E0CE01BF
:1044300001960E94271EBE016F5F7F4FC8010E9438
:104440003B1A1816190634F4DD24D394F2E0EF1663
:10445000F10409F0D12CCE0101960E940216DD2054
:1044600021F1F801808191810097B9F00E94963A7C
:1044700079AF68AF072E000C880B990B97FF11C01E
:104480000E9461140E948414B801CE014C960E94CF
:10449000AC1BE3E0EE2EF12C83CF60E070E0CB01AB
:1044A000E7CF4AE00E941F14EDCF6CE273E0CE012B
:1044B00001960E94271EBE016F5F7F4FCE014C9672
:1044C0000E943B1A181619063CF4DD24D394F3E03D
:1044D000EF16F10409F0D12CCE0101960E940216CC
:1044E000DD20C9F04AE050E070E060E0F801808132
:1044F00091810E9464397BAF6AAFF801808191811C
:104500000E948C14B801CE014C960E94AC1B74E042
:10451000E72EF12C45CFF4E0EF16F10439F56EE209
:1045200073E0C8010E94561A882309F4A4C0B80198
:10453000CE014C960E94AC1B8CE026962EAD3FAD72
:104540002697829FF001839FF00D1124EF56F84FBC
:104550005782468288AD99AD918780872AAD3BAD61
:104560003387228765E0E62EF12C1ACF25E0E2168C
:10457000F10489F462E373E0C8010E94561A8823AB
:1045800009F479C0B801CE014C960E94AC1B56E0EC
:10459000E52EF12C05CF36E0E316F104B1F44AE044
:1045A00050E070E060E0F801808191810E94643900
:1045B0006CAF7DAF8EAF9FAFB801CE014C960E941D
:1045C000AC1B47E0E42EF12CEBCEF7E0EF16F10444
:1045D000B9F46EE273E0C8010E94561A882309F408
:1045E0004AC08CAD9DAD9093880380938703B8013A
:1045F000CE014C960E94AC1B38E0E32EF12CD0CEBD
:1046000028E0E216F10481F466E373E0C8010E9439
:10461000561A882381F1B801CE014C960E94AC1B3A
:1046200029E0E22EF12CBCCE99E0E916F104C1F4A8
:104630004AE050E070E060E0F801808191810E94E2
:10464000643924966CAF7DAF8EAF9FAF2497B801CD
:10465000CE014C960E94AC1B9AE0E92EF12CA0CE24
:10466000FAE0EF16F10439F46EE273E0C8010E943B
:10467000561A811119C06AE373E0C8010E94561AE4
:10468000882309F48DCECE014C960E9402160EA905
:104690001FA9080D191D08151905B9F006501109B3
:1046A000C8010E940216F7CF22962EAD3FAD229789
:1046B0003093860320938503B801CE014C960E9467
:1046C000AC1B8BE0E82EF12C6BCECE018E960E94B7
:1046D0000216CE0188960E94021628968EAD9FADD6
:1046E00028970FB6F8949EBF0FBE8DBFC95BDF4FF2
:1046F0000FB6F894DEBF0FBECDBFDF91CF911F91F3
:104700000F91FF90EF90DF90CF90BF90AF909F9070
:104710008F907F906F905F904F903F902F90089573
:104720002F923F924F925F926F927F928F929F92C1
:10473000AF92BF92CF92DF92EF92FF920F931F93AF
:10474000CF93DF93CDB7DEB7CA54D1090FB6F89433
:10475000DEBF0FBECDBF83E00E949D048C0190930D
:10476000A7038093A6038091A4039091A503081743
:10477000190791F00130110549F48091A20390913D
:10478000A30301969093A3038093A20362E370E0D6
:1047900080E090E00E94A5071093A5030093A40376
:1047A0008091A20361E080FD60E08CE20E94C6047B
:1047B00086E10E949D048C019093A1038093A00345
:1047C00080919E0390919F030817190791F0013083
:1047D000110549F480919C0390919D03019690935B
:1047E0009D0380939C0362E370E080E090E00E9470
:1047F000A50710939F0300939E0380919C0361E0A3
:1048000080FD60E086E00E94C60489E10E949D046C
:104810008C0190939B0380939A03809198039091CD
:1048200099030817190791F00130110549F4809197
:104830009603909197030196909397038093960324
:1048400062E370E080E090E00E94A5071093990376
:10485000009398038091960361E080FD60E08DE114
:104860000E94C60488E10E949D048C0190939503E8
:1048700080939403809192039091930308171907F2
:1048800091F00130110549F48091900390919103CA
:104890000196909391038093900362E370E080E02F
:1048A00090E00E94A50710939303009392038091D8
:1048B000900360E080FD61E08CE10E94C6048BE122
:1048C0000E949D048C0190938F0380938E038091AE
:1048D0008C0390918D030817190791F00130110591
:1048E00049F480918A0390918B03019690938B03F6
:1048F00080938A0362E370E080E090E00E94A50765
:1049000010938D0300938C0380918A0360E080FDF7
:1049100061E08FE20E94C60480918903882309F434
:10492000F1C7A091BB07B091BC0728E43FE30E9408
:10493000414388248A94F3E09F2EA12CB12CA50139
:1049400094010E946140BA01A901405E5C4F6F4F23
:104950007F4FCE0189960E941D1BBE01675D7F4F70
:10496000CE018F960E94E51EBE016F5F7F4FCE0184
:104970008F960E94BB15CE018F960E940216CE0123
:1049800089960E94021684E00E94AF0280E390E0C4
:104990000E943104BE016F5F7F4F81EC96E00E9460
:1049A0000A140E94CA066091BD077091BE07072EC7
:1049B000000C880B990B0E94123F20E030E040EA87
:1049C00051E40E94713F20E030EC4FE754E40E9434
:1049D000074120E030E040E251E40E949A40AB0100
:1049E000BC01CE0189960E94761BBE01675D7F4F98
:1049F000CE018F960E94621FBE016F5F7F4FCE0176
:104A00008F960E94BB15CE018F960E940216CE0192
:104A100089960E94021684E00E94AF0281E390E032
:104A20000E943104BE016F5F7F4F81EC96E00E94CF
:104A30000A140E94CA06A091BF07B091C00724E6DD
:104A400030E00E944143A50194010E946140BA01F7
:104A5000A901CE0189960E941D1BBE01675D7F4F93
:104A6000CE018F960E94AF1EBE016F5F7F4FCE01B9
:104A70008F960E94BB15CE018F960E940216CE0122
:104A800089960E94021684E00E94AF0282E390E0C1
:104A90000E943104BE016F5F7F4F81EC96E00E945F
:104AA0000A140E94CA06A091BB07B091BC0728E473
:104AB0003FE30E944143A50194010E946140CA0165
:104AC000B901605E7C4F8F4F9F4F0E94123F2BEDCC
:104AD0003FE049EC50E40E94713F23EC30E046E8AF
:104AE00051E30E94713F9B01AC0160E070E080E8FF
:104AF0009FE30E9407412BE738E046E155E40E941E
:104B00009A4020E030EF49E357E40E94713F2BEADE
:104B100032EE4DE357E40E94074120E030E046E1E9
:104B200055E40E949B400E9479419B01AC01AFEF8C
:104B3000B3E00E948040A0E52A2EA3EC3A2E412C3F
:104B4000512CA20191010E946140CA01B9010E9449
:104B5000123F0E947941CB010E9444099CAF8BAF68
:104B60008091BD079091BE070E94440923969FAF94
:104B70008EAF2397A091BF07B091C00724E630E025
:104B80000E944143A50194010E946140B901330F85
:104B9000880B990B0E94123F20E030E048EC52E471
:104BA0000E94074120E030E0A9010E949B400E9442
:104BB0004D1F20E030E44CE956E40E94713F0E9412
:104BC00079419B01AC01AFEFB3E00E948040B0E2BD
:104BD000CB2EBEE4DB2EE12CF12CA70196010E9426
:104BE0006140CA01B9010E94123F0E947941CB0184
:104BF0000E94440925969FAF8EAF2597A091AF07DD
:104C0000B091B00720EB3DE10E944143A501940122
:104C10000E946140BA01A90140575E4F6F4F7F4F1C
:104C2000CE0189960E941D1BBE01675D7F4FCE019C
:104C30008F960E94E51EBE016F5F7F4FCE018F965B
:104C40000E94BB15CE018F960E940216CE01899656
:104C50000E94021684E00E94AF0280E290E00E946F
:104C60003104BE016F5F7F4F81EC96E00E940A1411
:104C70000E94CA066091B1077091B207072E000C1E
:104C8000880B990B0E94123F20E030E040EA51E48B
:104C90000E94713F20E030EC4FE754E40E9407414E
:104CA00020E030E040E251E40E949A40AB01BC01B8
:104CB000CE0189960E94761BBE01675D7F4FCE01B3
:104CC0008F960E94621FBE016F5F7F4FCE018F964D
:104CD0000E94BB15CE018F960E940216CE018996C6
:104CE0000E94021684E00E94AF0281E290E00E94DE
:104CF0003104BE016F5F7F4F81EC96E00E940A1481
:104D00000E94CA06A091B307B091B40724E630E030
:104D10000E944143A50194010E946140BA01A9018A
:104D2000CE0189960E941D1BBE01675D7F4FCE019B
:104D30008F960E94AF1EBE016F5F7F4FCE018F9690
:104D40000E94BB15CE018F960E940216CE01899655
:104D50000E94021684E00E94AF0282E290E00E946C
:104D60003104BE016F5F7F4F81EC96E00E940A1410
:104D70000E94CA06A091AF07B091B00720EB3DE1B9
:104D80000E944143A50194010E946140CA01B901FA
:104D900060577E4F8F4F9F4F0E94123F2BED3FE099
:104DA00049EC50E40E94713F2BEF3FED4CE052E3A1
:104DB0000E94713F9B01AC0160E070E080E89FE3DE
:104DC0000E9407412BE738E046E155E40E949A40F3
:104DD00020E030EF49E357E40E94713F2BEA32EEC6
:104DE0004DE357E40E94074120E030E046E155E4FE
:104DF0000E949B400E9479419B01AC01AFEFB3E060
:104E00000E948040A20191010E946140CA01B90143
:104E10000E94123F0E947941CB010E9444099EAF3B
:104E20008DAF8091B1079091B2070E9444092796F7
:104E30009FAF8EAF2797A091B307B091B40724E638
:104E400030E00E944143A50194010E946140B901F4
:104E5000330F880B990B0E94123F20E030E048ECA2
:104E600052E40E94074120E030E0A9010E949B40EB
:104E70000E944D1F20E030E44CE955E40E94713F50
:104E80000E9479419B01AC01AFEFB3E00E948040EA
:104E9000A70196010E946140CA01B9010E94123F18
:104EA0000E947941CB010E94440929969FAF8EAFA1
:104EB0002997A0918703B091880327EB38E30E94DC
:104EC0004143A50194010E946140BA01A901405AE1
:104ED0005F4F6F4F7F4FCE0189960E941D1BBE0111
:104EE000675D7F4FCE018F960E946E1EBE016F5F81
:104EF0007F4FCE018F960E94BB15CE018F960E94E8
:104F00000216CE0189960E94021684E00E94AF022A
:104F100080E490E00E943104BE016F5F7F4F81EC1E
:104F200096E00E940A140E94CA06A0918703B091DD
:104F3000880327EB38E30E944143A50194010E94B6
:104F40006140CA01B901605A7F4F8F4F9F4F0E9445
:104F5000123F2BED3FE049EC50E40E94713F22EEFE
:104F60003BEB4DE053E30E94713F9B01AC0160E0DD
:104F700070E080E89FE30E94074120E030E045EACE
:104F800053E40E949A4020E036E042E457E40E9455
:104F9000713F2DE434EF42E457E40E94074120E0E2
:104FA00030E045EA53E40E949B400E9479419B0116
:104FB000AC01AFEFB3E00E948040A20191010E94DA
:104FC0006140CA01B9010E94123F0E9479412FEF4E
:104FD00033E0C901861B970B0E94440921969FAFBD
:104FE0008EAF2197A091A307B091A40720EB3DE1DC
:104FF0000E944143A50194010E946140BA01A901A8
:1050000040575E4F6F4F7F4FCE0189960E941D1B08
:10501000BE01675D7F4FCE018F960E94E51EBE01E7
:105020006F5F7F4FCE018F960E94BB15CE018F968A
:105030000E940216CE0189960E94021684E00E9408
:10504000AF0280E190E00E943104BE016F5F7F4FAC
:1050500081EC96E00E940A140E94CA066091A5079E
:105060007091A607072E000C880B990B0E94123F27
:1050700020E030E040EA51E40E94713F20E030EC53
:105080004FE754E40E94074120E030E040E251E461
:105090000E949A40AB01BC01CE0189960E94761B0A
:1050A000BE01675D7F4FCE018F960E94621FBE01D9
:1050B0006F5F7F4FCE018F960E94BB15CE018F96FA
:1050C0000E940216CE0189960E94021684E00E9478
:1050D000AF0281E190E00E943104BE016F5F7F4F1B
:1050E00081EC96E00E940A140E94CA06A091A707CC
:1050F000B091A80724E630E00E944143A501940145
:105100000E946140BA01A901CE0189960E941D1B2F
:10511000BE01675D7F4FCE018F960E94AF1EBE011C
:105120006F5F7F4FCE018F960E94BB15CE018F9689
:105130000E940216CE0189960E94021684E00E9407
:10514000AF0282E190E00E943104BE016F5F7F4FA9
:1051500081EC96E00E940A140E94CA06A091A3075F
:10516000B091A40720EB3DE10E944143A5019401C9
:105170000E946140CA01B90160577E4F8F4F9F4F17
:105180000E94123F2BED3FE049EC50E40E94713F3A
:105190002BEF3FED4CE052E30E94713F9B01AC01CD
:1051A00060E070E080E89FE30E9407412BE738E071
:1051B00046E155E40E949A4020E030EF49E357E48D
:1051C0000E94713F2BEA32EE4DE357E40E94074103
:1051D00020E030E046E155E40E949B400E94794186
:1051E0009B01AC01AFEFB3E00E948040A2019101AE
:1051F0000E946140CA01B9010E94123F0E94794198
:10520000CB010E9444093C018091A5079091A6071B
:105210000E9444092B969FAF8EAF2B97A091A707B2
:10522000B091A80724E630E00E944143A501940113
:105230000E946140B901330F880B990B0E94123F05
:1052400020E030E048EC52E40E94074120E030E0EA
:10525000A9010E949B400E944D1F20E030E44CE9D0
:1052600055E40E94713F0E9479419B01AC01AFEF70
:10527000B3E00E948040A70196010E946140CA01EC
:10528000B9010E94123F0E947941CB010E9444095A
:105290006C01A0918503B091860326E239E00E945B
:1052A0004143A50194010E946140BA01A901465EF3
:1052B0005F4F6F4F7F4FCE0189960E941D1BBE012D
:1052C000675D7F4FCE018F960E94381EBE016F5FD3
:1052D0007F4FCE018F960E94BB15CE018F960E9404
:1052E0000216CE0189960E94021684E00E94AF0247
:1052F00080E590E00E943104BE016F5F7F4F81EC3A
:1053000096E00E940A140E94CA06A0918503B091FB
:10531000860326E239E00E944143A50194010E94E0
:105320006140CA01B901665E7F4F8F4F9F4F0E9457
:10533000123F2BED3FE049EC50E40E94713F29E51C
:1053400039ED40E054E30E94713F9B01AC0160E005
:1053500070E080E89FE30E94074123EC35E04CE0D9
:1053600054E40E949A4020E030E241E457E40E9475
:10537000713F2CE133E145E457E40E94074120E00E
:1053800030E04CE054E40E949B400E9479419B0134
:10539000AC01AFEFB3E00E948040A20191010E94F6
:1053A0006140CA01B9010E94123F0E947941CB01BC
:1053B0000E9444098C01A0919707B091980728EFAB
:1053C00032E00E944143A50194010E946140BA016C
:1053D000A901485D5F4F6F4F7F4FCE01C5960E9478
:1053E0001D1B89AD9AAD0297B1F461EE72E0CE015A
:1053F00089960E94271EBE016B5C7F4FCE01899665
:105400000E94D51ABC01CE01C5960E94AC1BCE01EC
:1054100089960E940216BE016F5F7F4FCE01C5962E
:105420000E94BB1584E00E94AF0290E080E00E94E1
:105430003104BE016F5F7F4F81EC96E00E940A1439
:105440000E94CA066091990770919A07072E000C76
:10545000880B990B0E94123F20E030E040EA51E4B3
:105460000E94713F20E030EC4FE754E40E94074176
:1054700020E030E040E251E40E949A40AB01BC01E0
:10548000CE0189960E94761BBE01675D7F4FCE01DB
:105490008F960E94621FBE016F5F7F4FCE018F9675
:1054A0000E94BB15CE018F960E940216CE018996EE
:1054B0000E94021684E00E94AF0281E090E00E9408
:1054C0003104BE016F5F7F4F81EC96E00E940A14A9
:1054D0000E94CA06A0919B07B0919C0724E630E089
:1054E0000E94414322242A94E3E03E2E412C512C79
:1054F000A20191010E946140BA01A901CE018996E1
:105500000E941D1BBE01675D7F4FCE018F960E94DA
:10551000AF1EBE016F5F7F4FCE018F960E94BB15FD
:10552000CE018F960E940216CE0189960E94021625
:1055300084E00E94AF0282E090E00E943104BE014C
:105540006F5F7F4F81EC96E00E940A140E94CA06AA
:10555000A0919707B091980728EF32E00E9441434D
:10556000A20191010E946140CA01B901685D7F4FAB
:105570008F4F9F4F0E94123F2BED3FE049EC50E4CC
:105580000E94713F2AEF37E140EB53E30E94713FE5
:105590009B01AC0160E070E080E89FE30E9407415E
:1055A0000E9479419B01AC01AFEFB3E00E948040C3
:1055B00020E533EC40E050E00E946140CA01B901AF
:1055C0000E94123F0E947941CB010E9444097C0154
:1055D0008091990790919A070E9444095C01A091DB
:1055E0009B07B0919C0724E630E00E944143A20152
:1055F00091010E946140B901330F880B990B0E9401
:10560000123F20E030E048EC52E40E94074120E0E5
:1056100030E0A9010E949B400E944D1F20E030E431
:105620004CE955E40E94713F0E9479419B01AC0115
:10563000AFEFB3E00E94804020E23EE440E050E063
:105640000E946140CA01B9010E94123F0E94794143
:10565000CB010E9444094C0160E085E30E94C6042E
:1056600084E591E00E946F09C4010E94520961E043
:1056700070E080E090E00E94A507C7010E945209F7
:1056800061E070E080E090E00E94A507C7010E9401
:10569000520961E070E080E090E00E94A507C5013A
:1056A0000E94520961E070E080E090E00E94A5074E
:1056B000C8010E94520961E070E080E090E00E9421
:1056C000A507C8010E94520961E070E080E090E007
:1056D0000E94A507C6010E94520961E070E080E0C7
:1056E00090E00E94A507C3010E94520961E070E0AA
:1056F00080E090E00E94A507C3010E94520961E08A
:1057000070E080E090E00E94A5072B968EAD9FADE3
:105710002B970E94520961E070E080E090E00E94C7
:10572000A50721968EAD9FAD21970E94520961E099
:1057300070E080E090E00E94A50721968EAD9FADBD
:1057400021970E94520961E070E080E090E00E94A1
:10575000A50729968EAD9FAD29970E94520961E059
:1057600070E080E090E00E94A5078DAD9EAD0E94A4
:10577000520961E070E080E090E00E94A5078DADE5
:105780009EAD0E94520961E070E080E090E00E94CE
:10579000A50727968EAD9FAD27970E94520961E01D
:1057A00070E080E090E00E94A50725968EAD9FAD49
:1057B00025970E94520961E070E080E090E00E942D
:1057C000A5078BAD9CAD0E94520961E070E080E0BE
:1057D00090E00E94A5078BAD9CAD0E94520961E04C
:1057E00070E080E090E00E94A50723968EAD9FAD0B
:1057F00023970E94520961E070E080E090E00E94EF
:10580000A50761E085E30E94C6048091890388238F
:1058100009F45AC041E062E084E00E94CD06109293
:10582000B3038093B20381EC96E00E94BB03182F70
:105830008093840381EC96E00E94BB0380938303F2
:105840001031C1F499270E94CC1B809184038230CF
:10585000E1F680918303813099F48093890384E099
:105860000E94AF0280E990E00E94310481E00E9432
:10587000DA05CBCF103249F799270E946C20E5CF8B
:105880001092890384E00E94AF0280E890E00E94B9
:10589000310481E00E94DA05E1E9F7E021EC37E02C
:1058A0008FEF9FEF9183808393838283958384839B
:1058B0003C962E173F07B1F79093820380938103A4
:1058C0009093800380937F03CE01C5960E940216B9
:1058D000C65BDF4F0FB6F894DEBF0FBECDBFDF91C2
:1058E000CF911F910F91FF90EF90DF90CF90BF90DD
:1058F000AF909F908F907F906F905F904F903F9070
:105900002F90089541E062E084E00E94CD0610925D
:10591000B3038093B20381EC96E00E94BB03182F7F
:105920008093840381EC96E00E94BB038093830301
:105930001031F1F499270E94CC1B64EF71E080E0F4
:1059400090E00E94A507809184038230B9F4809191
:105950008303813099F48093890384E00E94AF022D
:1059600080E990E00E94310481E00E94DA05B0CF26
:10597000103249F799270E946C20DFCF82E40E9401
:105980009A055C018CE30E949A057C018AE30E94DF
:105990009A056C01FE0131961E0189E2280E311C28
:1059A0008F012E163F0611F01192FBCF28E43FE342
:1059B000D5010E9441432FEF33E040E050E00E94C8
:1059C000614029013A0180E2480E83E0581E611CC3
:1059D000711C8091B5079091B6078A159B0549F116
:1059E000B301A201C1010E941D1BB101CE018F961E
:1059F0000E94E51EB801CE018F960E94BB15CE0114
:105A00008F960E940216C1010E940216B092B6073C
:105A1000A092B50784E00E94AF0280E390E00E946C
:105A20003104B80181EC96E00E940A1481E00E94E2
:105A3000DA058091B7079091B8078E159F0509F494
:105A400042C0B7010F2C000C880B990B0E94123F2B
:105A500020E030E040EA51E40E94713F20E030EC69
:105A60004FE754E40E94074120E030E040E251E477
:105A70000E949A40AB01BC01C1010E94761BB1019A
:105A8000CE018F960E94621FB801CE018F960E94B0
:105A9000BB15CE018F960E940216C1010E9402160C
:105AA000F092B807E092B70784E00E94AF0281E36A
:105AB00090E00E943104B80181EC96E00E940A1443
:105AC00081E00E94DA0524E630E0D6010E944143DD
:105AD0002FEF33E040E050E00E94614049018091A7
