:100000000C9445020C9476020C9476020C947602C1
:100010000C9476020C9476020C9476020C94760280
:100020000C9476020C9476020C9476020C94760270
:100030000C9476020C9476020C9476020C94760260
:100040000C9476020C9476020C9476020C94760250
:100050000C9476020C9476020C9476020C94B835CB
:100060000C9476020C942C360C9402360C94760286
:100070000C9476020C9476020C9476020C94760220
:100080000C9476020C9476020C9476020C94760210
:100090000C9476020C9476020C9476020C949434B0
:1000A0000C9476020C9476020C9476020C947602F0
:1000B0000C9476020C9476020C9476020C947602E0
:1000C0000C9476020C9476020C9476020C947602D0
:1000D0000C9476020C9476020C9476020C947602C0
:1000E0000C94760207634236B79BD8A71A39685634
:1000F00018AEBAAB558C1D3CB7CC5763BD6DEDFD4A
:10010000753EF6177231BF000000803F0800000006
:10011000BE922449123EABAAAA2ABECDCCCC4C3EFC
:1001200000000080BEABAAAAAA3E00000000BF00EB
:100130000000803F0000000000084178D3BB4387E7
:10014000D1133D190E3CC3BD4282AD2B3E68EC82FB
:1001500076BED98FE1A93E4C80EFFFBE01C4FF7F80
:100160003F00000000000C9439080C948F040C949C
:100170005D180C94CE030C9443030C94D5030C949B
:10018000A6080C9413030C9465110C945E040C9453
:1001900062360C9479040C9487040C9466040C94D5
:1001A00033030C94F31F0C943A080C946F040C94D2
:1001B0003D080C946E080C9481040C9462040C9419
:1001C000BB030C9495040C9481030C94ED130C94D4
:1001D0009E180C94AC030C947D040C94DC130C94CA
:1001E00080030C9494040C94F3080C9438120C942F
:1001F000CD110C944C080C945A040C9473040C9478
:100200006F110C9499040C9469040C94AB030C9436
:1002100060080C948B040C9402040C940C080C944D
:1002200054044E414E494E495459494E46CDCCCCCA
:100230003D0AD7233C17B7D13877CC2B329595E6BA
:10024000241FB14F0A000020410000C84200401C9A
:100250004620BCBE4CCA1B0E5AAEC59D7400407AE7
:1002600010F35A00A0724E18090010A5D4E800003F
:10027000E87648170000E40B54020000CA9A3B00DD
:100280000000E1F505000080969800000040420F54
:10029000000000A08601000000102700000000E818
:1002A00003000000006400000000000A00000000DD
:1002B000000100000000002C76D888DC674F08237E
:1002C000DFC1DFAE59E1B1B796E5E3E453C63AE6E4
:1002D00051997696E8E6C28426EB898C9B62ED40C4
:1002E0007C6FFCEFBC9C9F40F2BAA56FA5F4900513
:1002F0005A2AF75C936B6CF9676DC11BFCE0E40D47
:1003000047FEF520E6B500D0ED902E03009435773A
:10031000050080841E080000204E0A000000C80C62
:10032000333333330F986E12831141EF8D211489CB
:100330003BE65516CFFEE6DB18D1844B381BF77C25
:100340001D901DA4BBE424203284725E228100C96A
:10035000F124ECA1E53D2700002200250028002B18
:10036000002E003100340002010000050108010BDD
:1003700001000020002300260029002C002F00325D
:10038000000001000003010601090100000A0B0240
:10039000090C0D0E08070304010000000000000016
:1003A000000000000000000000000000000000004D
:1003B000000000000000001211100000000000000A
:1003C000000000000000000000000000000000002D
:1003D0000000002100240027002A002D00300033F7
:1003E0000001010000040107010A010102102020A0
:1003F0000808102040102040800201020108040279
:1004000001010204081020408080402010080402EE
:100410000180040201804020100804020108040247
:10042000010102040810204080010204081020404D
:100430008005050505070508080808020202020AEA
:100440000A08080404040401010101010101010377
:1004500003030303030303040707070C0C0C0C0C32
:100460000C0C0C0202020206060606060606060B25
:100470000B0B0B0B0B0B0B7C3C3E5E2B3D3F2F5BAA
:100480005D3B2C2A225C0000623611241FBECFEF98
:10049000D1E2DEBFCDBF00E00CBF13E0A0E0B2E0D0
:1004A000E0E6FBE800E00BBF02C007900D92A03928
:1004B000B107D9F727E0A0E9B3E001C01D92A93D3B
:1004C000B207E1F712E0C5E4D2E000E006C02197F0
:1004D0000109802FFE010E943F43C434D10780E010
:1004E0000807A9F70E94E9360C94AE450C94000069
:1004F000CF93DF93FC018281938190937F07809358
:100500007E0784819581A681B7818093800790932F
:100510008107A0938207B093830780859185A28588
:10052000B3858093840790938507A0938607B09343
:100530008707DF011C96CF014996C8E8D7E02D91C7
:100540002993A817B907D9F7818D928D90939607B3
:10055000809395078CE797E0DF91CF91089591E024
:100560009093620480938404109263041092850433
:1005700008958EBD00000DB407FEFDCF8EB5089521
:100580008FEF0C94B902FC01DB0112968D919C91C6
:100590001397938382838EE092E0918380831496F5
:1005A0008C911497848315968C9115978583169654
:1005B0004D915D916D917C9119974683578360872A
:1005C00071871A964D915D916D917C911D9742872F
:1005D0005387648775871E964D915D916D917C91CF
:1005E000519746875787608B718B52968C915297A3
:1005F000828B53964D915D916D917C915697438B73
:10060000548B658B768B57964D915D916D917C9156
:100610005A97478B508F618F728F5B968D919C910B
:10062000948F838F0895DC015996ED91FC9130975A
:10063000B9F083899489A589B689428553856485F3
:100640007585841B950BA60BB70B811520E89207C7
:10065000A105B10538F08FEF9FE7A0E0B0E0089565
:1006600090E080E00895DC0159968D919C9100976F
:1006700039F0DC01ED91FC910480F581E02D1994B5
:1006800090E080E00895CF93DF931F92CDB7DEB75F
:100690006983DC01ED91FC910280F381E02D41E062
:1006A00050E0BE016F5F7F4F19950F90DF91CF91A2
:1006B00008952091EB03260F3327331F2132310594
:1006C000ECF420915C04FC0190E080E0243069F0BF
:1006D00082E00895A091EB032191AC0147535C4F58
:1006E000A40FB52FB11D2C930196861798F3809116
:1006F000EB03680F6093EB0380E0089581E00895B9
:100700000895CF93DF93EC01E091C603F091C70306
:100710003097F1F09091C5038091C4039817C0F011
:1007200090E0292F30E02617370754F4DE01A20F9E
:10073000B31F4C912A5E3B4FD9014C939F5FF1CF81
:100740001092C5036093C403CB01DF91CF9119943C
:10075000DF91CF9108950895E091C5038091C4037E
:10076000E81730F4F0E0EA5EFB4F808190E00895F6
:100770008FEF9FEF08959091C5038091C4032FEFF1
:100780003FEF981748F4E92FF0E0EA5EFB4F208135
:1007900030E09F5F9093C503C90108958091C40321
:1007A0009091C503891B990B0895CF92DF92EF9228
:1007B000FF920F931F93CF93DF937C01CB018A01AC
:1007C00020916204222389F0EB016B01C40ED51E37
:1007D000CC15DD0569F06991D701ED91FC9101908F
:1007E000F081E02DC7011995F3CF642F0E945903C2
:1007F000C801DF91CF911F910F91FF90EF90DF9093
:10080000CF900895CF93DF931F92CDB7DEB7698362
:10081000209162042223F9F020918504203258F0BF
:1008200021E030E0FC013383228390E080E00F90F0
:10083000DF91CF91089580916304E82FF0E0EC59A7
:10084000FB4F998190838F5F80936304809385042D
:1008500081E090E0ECCF61E0CE0101960E94590367
:10086000F7CF682F83ED96E00C940204815082311B
:1008700008F05AC0E82FF0E08827EE5BFB4F8F4F5F
:100880000C943F436204660454045A045E049404C6
:1008900069046F04730479047D04810487048B0464
:1008A00094048F0495049904809180008F7780933D
:1008B00080000895809180008F7DF9CF8091800025
:1008C000877FF5CF84B58F7784BD089584B58F7DFC
:1008D000FBCF8091B0008F778093B0000895809116
:1008E000B0008F7DF9CF809190008F77809390003A
:1008F0000895809190008F7DF9CF80919000877F3F
:10090000F5CF8091A0008F778093A000089580910B
:10091000A0008F7DF9CF8091A000877FF5CF8091D7
:1009200020018F77809320010895809120018F7D91
:10093000F9CF80912001877FF5CFCF93DF93282FC8
:1009400030E0F901E557FC4F8491F901E551FC4F86
:10095000D491F901EF5CFB4FC491CC23A1F081113C
:100960000E943604EC2FF0E0EE0FFF1FEF58FC4F13
:10097000A591B491EC91ED2381E090E009F480E041
:10098000DF91CF91089580E090E0FACF1F93CF934D
:10099000DF93282F30E0F901E557FC4F8491F901EE
:1009A000E551FC4FD491F901EF5CFB4FC491CC238E
:1009B000A9F0162F81110E943604EC2FF0E0EE0F03
:1009C000FF1FE95AFC4FA591B4918FB7F894EC91B1
:1009D000111108C0D095DE23DC938FBFDF91CF913A
:1009E0001F910895DE2BF8CF10925C0481E0809374
:1009F0005B041092360461E084E10E94C60461E069
:100A000085E10E94C604E9EBF0E080818E7F80835F
:100A100080818D7F808388E48093B80085E4809313
:100A2000BC000895CF93DF9391E09093C80388238F
:100A3000B9F0C091B800D091BA008091BC008A7B17
:100A40008093BC0060E084E10E94C60460E085E120
:100A50000E94C6040E94F404D093BA00C093B80068
:100A6000DF91CF910895CF93DF9390E0FC01E551A2
:100A7000FC4F24918F5C9B4FFC0184918823D1F023
:100A800090E0880F991FFC01EF52FC4FA591B491A3
:100A9000FC01E95AFC4FC591D49161110EC09FB77A
:100AA000F8948C91E22FE0958E238C932881E22399
:100AB000E8839FBFDF91CF9108958FB7F894EC91B1
:100AC000E22BEC938FBFF6CFCF93CFB7F894809102
:100AD000C303811127C0E6E6F4E08491E0E2F4E08C
:100AE0009491E82FF0E0EE0FFF1FEF52FC4FA5911D
:100AF000B491EC91E92321F461E085E30E94C604FE
:100B000061E085E30E9433058CB580618CBD8CB5B6
:100B100080648CBD61E084E30E94330561E083E37F
:100B20000E9433058091C3038F5F8093C303CFBFBF
:100B3000CF910895865320917B00982F987F277F2F
:100B4000922B90937B008770806480937C008091CF
:100B50007A00806480937A0080917A0086FDFCCFD1
:100B6000809178009091790008953FB7F894809132
:100B7000BF039091C003A091C103B091C20326B5F9
:100B8000A89B05C02F3F19F00196A11DB11D3FBFC5
:100B9000BA2FA92F982F8827BC01CD01620F711D94
:100BA000811D911D42E0660F771F881F991F4A958E
:100BB000D1F708958F929F92AF92BF92CF92DF921A
:100BC000EF92FF920F931F93CF93DF93D091850401
:100BD000D13208F0D7C0182FC09184040E94B50507
:100BE0006B017C0180915C0481116BC082E0809379
:100BF0005C0410935B048FEF80935A0410925904A5
:100C0000D0935804A4E6B4E0E8E3F4E080E0D8131D
:100C100091C01092370480913704CC0FC82BC09339
:100C2000370480913604813009F088C01092360470
:100C30000E94B5056B017C01809137048093BB0055
:100C400080915E0490915F04A0916004B091610472
:100C5000892B8A2B8B2BA1F00E94B50500915E0495
:100C600010915F0420916004309161046C197D093A
:100C70008E099F09061717072807390708F442C08D
:100C80008091BC0083FDD8CF85EC8093BC000E948E
:100C9000B5056B017C0180915C04823009F450C081
:100CA00080915A048F3F09F46FC080915A048032BA
:100CB00009F46CC080915A04803309F469C084E05F
:100CC00026C080915E0490915F04A0916004B09171
:100CD0006104892B8A2B8B2B09F484CF0E94B505E4
:100CE00080905E0490905F04A0906004B0906104D6
:100CF0006C197D098E099F0986169706A806B90604
:100D000008F070CF80915D040E94120585E010927A
:100D100063041092850410926204DF91CF911F91B9
:100D20000F91FF90EF90DF90CF90BF90AF909F908A
:100D30008F9008959D9191938F5F69CF85EEA5CF98
:100D400080915E0490915F04A0916004B091610471
:100D5000892B8A2B8B2B09F49ECF0E94B50500911D
:100D60005E0410915F0420916004309161046C195D
:100D70007D098E099F09061717072807390708F00C
:100D80008ACFC0CF81E0C3CF80E0C1CF82E0BFCFA8
:100D900083E0BDCF81E00C94DA058F929F92AF92F1
:100DA000BF92CF92DF92EF92FF920F931F93CF9358
:100DB000DF93D82FC62F142F613208F09CC00E94F9
:100DC000B5056B017C0180915C0481116FC081E0ED
:100DD00080935C0410935B049FEF90935A041092ED
:100DE00059049C0F909358048093370480913704E2
:100DF000DD0FD82BD093370480913604813009F071
:100E00007CC0109236040E94B5056B017C01809174
:100E100037048093BB0080915E0490915F04A091A1
:100E20006004B0916104892B8A2B8B2BA1F00E9466
:100E3000B50500915E0410915F042091600430912B
:100E400061046C197D098E099F0906171707280789
:100E5000390708F44CC08091BC0083FDD8CF85ECE5
:100E60008093BC000E94B5056B017C0180915C04FD
:100E7000813009F444C0809159048C1710F4C0915A
:100E80005904E8E3F4E0A6E1B4E080E08C1359C033
:100E90008C2FDF91CF911F910F91FF90EF90DF90FA
:100EA000CF90BF90AF909F908F90089580915E04F7
:100EB00090915F04A0916004B0916104892B8A2B0A
:100EC0008B2B09F480CF0E94B50580905E04909032
:100ED0005F04A0906004B09061046C197D098E09D4
:100EE0009F0986169706A806B90608F06CCF809170
:100EF0005D040E941205C0E0CBCF85EEB1CF80919A
:100F00005E0490915F04A0916004B0916104892B0C
:100F10008A2B8B2B09F4AACF0E94B50500915E04A1
:100F200010915F0420916004309161046C197D0977
:100F30008E099F09061717072807390708F096CF6B
:100F4000D6CF91919D938F5FA1CF8F929F92AF92B9
:100F5000BF92CF92DF92EF92FF924B015C010E9411
:100F6000B5056B017C010E94B5056C197D098E09E0
:100F70009F09683E734081059105A8F321E0821A1C
:100F80009108A108B10888EEC80E83E0D81EE11CC4
:100F9000F11C81149104A104B10429F7FF90EF9092
:100FA000DF90CF90BF90AF909F908F9008952FB714
:100FB000F8946091BB037091BC038091BD03909144
:100FC000BE032FBF08950F931F93CF93DF93EC01C0
:100FD0000E94D7078B010E94C0028F3F69F00E94D8
:100FE000D707601B710B6C177D07A8F380E0DF91BA
:100FF000CF911F910F91089581E0F9CFDB011496F5
:101000004D915C9115976D917C91DC01ED91FC9176
:101010000280F381E02D1994AF92BF92CF92DF92BC
:10102000EF92FF920F931F93CF93DF936C017B019D
:101030008B01040F151FEB015E01AE18BF08C0172E
:10104000D10759F06991D601ED91FC910190F081A1
:10105000E02DC6011995892B79F7C501DF91CF9154
:101060001F910F91FF90EF90DF90CF90BF90AF90C6
:101070000895089590E080E00895FC01538D448D1B
:10108000252F30E0842F90E0821B930B541710F033
:10109000CF96089501970895FC01918D828D981740
:1010A00061F0A28DAE0FBF2FB11D5D968C91928D18
:1010B0009F5F9F73928F90E008958FEF9FEF089549
:1010C000FC01918D828D981731F0828DE80FF11D12
:1010D000858D90E008958FEF9FEF0895FC01918D2D
:1010E000228D892F90E0805C9F4F821B91098F7326
:1010F000992708958FED96E00E946E0821E0892BD4
:1011000009F420E0822F0895FC01A48DA80FB92FC7
:10111000B11DA35ABF4F2C91848D90E001968F731F
:101120009927848FA689B7892C93A089B1898C913E
:10113000837080648C93938D848D981306C002888D
:10114000F389E02D80818F7D80830895EF92FF9257
:101150000F931F93CF93DF93EC0181E0888F9B8DDA
:101160008C8D98131AC0E889F989808185FF15C094
:101170009FB7F894EE89FF896083E889F9898081B7
:101180008370806480839FBF81E090E0DF91CF9186
:101190001F910F91FF90EF900895F62E0B8D10E0A8
:1011A0000F5F1F4F0F731127E02E8C8D8E110CC017
:1011B0000FB607FCFACFE889F989808185FFF5CF62
:1011C000CE010E948408F1CFEB8DEC0FFD2FF11DB5
:1011D000E35AFF4FF0829FB7F8940B8FEA89FB899F
:1011E00080818062CFCFCF93DF93EC01888D8823FD
:1011F000B9F0AA89BB89E889F9898C9185FD03C07A
:10120000808186FD0DC00FB607FCF7CF8C9185FF5E
:10121000F2CF808185FFEDCFCE010E948408E9CF17
:10122000DF91CF91089580E090E0892B29F00E9412
:101230007A0881110E94000080E090E0892B49F03B
:1012400080E090E0892B29F00E94000081110E942B
:10125000000080E090E0892B49F080E090E0892B4D
:1012600029F00E94000081110E94000080E090E0BF
:10127000892B49F080E090E0892B29F00E94000042
:1012800081110C94000008959C5F0895089561E019
:10129000FC0184810E94C604809110048111109287
:1012A000100408950CB405FC0DC09EBD00000DB4E3
:1012B00007FEFDCF9EB58EBD00000DB407FEFDCF2D
:1012C0008EB508958EBD00000DB407FEFDCF8EB51E
:1012D0009EBD00000DB407FEFDCF9EB508958CBDE8
:1012E0009DBD0895CF93DF93EC018091100481118F
:1012F00009C081E08093100480918806909189064E
:101300000E946F0960E08C81DF91CF910C94C6043C
:101310008F929F92AF92BF92FF920F931F93CF93A2
:10132000DF93EC01F62E49015A018E81882389F062
:101330008F8198859C012F5F3F4F38872F838230A4
:10134000924018F40E94C002F3CFCE010E944709D8
:101350001E82CE010E9472098CE291E00E94E30796
:101360008F2D80640E94B90208E110E0D501C4010C
:10137000002E04C0B695A795979587950A94D2F745
:101380000E94B90208501109083F8FEF180771F742
:1013900085E9FF2021F028E087E8F2128FEF0E9414
:1013A000B90210E00E94C0028A8787FF04C01F3F75
:1013B00011F01F5FF7CFDF91CF911F910F91FF9039
:1013C000BF90AF909F908F900895AF92BF92CF92B1
:1013D000DF92EF92FF920F931F93CF93DF93EC0175
:1013E0006901C801820F931F8130924050F58E81B0
:1013F000882379F088819981AA81BB818417950718
:10140000A607B70731F48F819885C816D90608F06A
:1014100042C0488359836A837B838B85833039F04C
:1014200089E0440F551F661F771F8A95D1F79A01EF
:10143000AB0161E1CE010E948809882389F083E035
:101440008D83CE010E94470980E0DF91CF911F91EB
:101450000F91FF90EF90DF90CF90BF90AF900895E5
:101460000E94D7075B010E94C0028A878F3F69F400
:101470000E94D7076A197B096D327140A0F38FE093
:101480008D83CE010E944709DCCF8E3F89F41886F8
:101490001F8281E08E838F8198858C159D0550F485
:1014A0000E94C0028F819885019698878F83F3CF21
:1014B0008DE0E6CF6701E00EF11E0E94C002F6014A
:1014C00081936F01EE15FF05C1F78F819885080F95
:1014D000191F18870F838985882319F00115124079
:1014E000A0F08E81882389F08F8198859C012F5FE1
:1014F0003F4F38872F838230924018F40E94C002F9
:10150000F3CFCE010E9447091E8281E09ECFCF9289
:10151000DF92EF92FF920F93CF93DF93EC0169017B
:1015200082E1411551056105710599F08B85833084
:1015300039F089E0440F551F661F771F8A95D1F750
:101540009A01AB0168E1CE010E948809882319F055
:1015500084E08D832DC08EEF0E94B90276018EEF5C
:10156000D81AF70181917F010E94B902EC14FD04A1
:10157000C1F78FEF0E94B9028FEF0E94B9020E945B
:10158000C0028A878F71853071F4011116C0CE01B7
:101590000E94470981E0DF91CF910F91FF90EF907A
:1015A000DF90CF90089581E18D83CE010E9447099D
:1015B000CE010E94470980E0EECF88E592E00E94CC
:1015C000E307811102C085E1C4CF20E030E0A9012A
:1015D0006DE0CE010E948809882311F084E1B9CF23
:1015E0000E94C0028111FACFD2CF0F934091120412
:1015F0005091130460911404709115044115510524
:101600006105710599F0082F28E834E0809186047F
:10161000909187040E94870A882349F0109212044F
:1016200010921304109214041092150481E00F918B
:1016300008950F93CF93C82F80911104811105C095
:10164000C1E08C2FCF910F910895409100025091ED
:10165000010260910202709103020C2F28E834E02D
:1016600080918604909187040E94870A811102C0AC
:10167000C0E0E7CFCC2321F381E00E94F50A882364
:10168000B9F310921104DDCF8F929F92AF92BF9267
:10169000EF92FF920F931F93CF934B015C01C42FE6
:1016A0008091000290910102A0910202B091030288
:1016B00088159905AA05BB0551F181E00E94190B17
:1016C00081110BC080E0CF911F910F91FF90EF909F
:1016D000BF90AF909F908F90089588E8E82E84E0A7
:1016E000F82E00E012E030E020E0B501A401809186
:1016F0008604909187040E94E509882319F380925B
:10170000000290920102A0920202B0920302409164
:1017100011044C2B4093110481E0D5CFCF93DF937C
:10172000EC016E857F858889998941E00E94440B90
:10173000882351F08A8920E2829FC00111248857B2
:101740009B4FDF91CF91089590E080E0FACF8F9288
:101750009F92AF92BF92CF92DF92EF92FF92CF9380
:101760002AE836E03093870420938604882309F41E
:101770006DC040E060E070E0CB010E94440B81113D
:101780000BC080E0CF91FF90EF90DF90CF90BF90A3
:10179000AF909F908F900895809146068F7789F73C
:1017A0008091520690915306A0915406B09155062F
:1017B00084369105A105B10520F3C0904E06D09066
:1017C0004F06E0905006F0905106C114D104E10498
:1017D000F104B9F240E0C701B6010E94440B88232E
:1017E00081F280919304909194048115924049F67E
:1017F000A0919804AA2329F260919604709197040D
:101800006115710509F4BDCF20919504222309F4D7
:10181000B8CFA093A80620939A0690E080E030E02D
:10182000E1E0F0E0C82FAF01082E02C0440F551FC1
:101830000A94E2F72417350769F041E0480F019652
:101840008930910579F74093A3069BCFC12CD12C09
:101850007601C0CF8093A30620919E0430919F040F
:1018600050E040E02115310541F42091AC04309165
:10187000AD044091AE045091AF0420939B06309389
:101880009C0640939D0650939E0646015701860E86
:10189000971EA11CB11C8092A9069092AA06A09244
:1018A000AB06B092AC06E0919904F0919A04F093E3
:1018B000AF06E093AE06B0E00E948640DC01CB01AB
:1018C000880D991DAA1DBB1D8093B0069093B1068B
:1018D000A093B206B093B30625E0EE0FFF1F2A9542
:1018E000E1F7E150FE4FEF2FFF27E6958E0F9F1F88
:1018F000A11DB11D8093A4069093A506A093A606F2
:10190000B093A70680909B0490909C04B12CA12CCE
:101910008114910441F48090A8049090A904A090AF
:10192000AA04B090AB04C81AD90AEA0AFB0AC80C88
:10193000D91CEA1CFB1C04C0F694E794D794C79406
:10194000CA95D2F7C0929F06D092A006E092A10657
:10195000F092A20685EFC8168FE0D806E104F104E4
:1019600028F48CE08093AD0681E00CCF80E125EF78
:10197000C2162FEFD206E104F104A0F38091B40463
:101980009091B504A091B604B091B7048093B006CD
:101990009093B106A093B206B093B30680E2E2CF73
:1019A0004F925F926F927F928F929F92AF92BF926F
:1019B000CF92DF92EF92FF920F931F93CF93DF931B
:1019C000EC01423051056105710590F480E0DF9132
:1019D000CF911F910F91FF90EF90DF90CF90BF902C
:1019E000AF909F908F907F906F905F904F900895F1
:1019F00089859A85AB85BC850196A11DB11D84178B
:101A00009507A607B70710F3CB88DC88ED88FE881A
:101A10008F89803109F042C0BB27A72F962F852FD1
:101A2000480159012A013B01C80ED91EEA1EFB1EBE
:101A30008091000290910102A0910202B0910302F4
:101A4000C816D906EA06FB0699F58F898031C1F5DB
:101A5000B301A201552766277727440F551F485722
:101A60005B4FFA01918280828091110481608093A2
:101A700011048A89823080F08D819E81AF81B88582
:101A80008C0D9D1DAE1DBF1D8093120490931304F9
:101A9000A0931404B093150481E099CFDB01CA012F
:101AA000E7E0B695A79597958795EA95D1F7B8CFD2
:101AB00040E0C701B6010E94440B8111C6CF86CF1A
:101AC000B301A2014F77552766277727440F551F8B
:101AD000440F551F48575B4FFA0180829182A282C2
:101AE000B382C2CF8F929F92AF92BF92CF92DF927A
:101AF000EF92FF920F931F93CF93DF93FC018185A9
:101B00009285A385B4850196A11DB11D8417950703
:101B1000A607B70770F480E0DF91CF911F910F9176
:101B2000FF90EF90DF90CF90BF90AF909F908F90FD
:101B3000089583889488A588B6888789803189F537
:101B4000BB27A72F962F852FE9016A017B018F0103
:101B5000BC01CD01680D791D8A1D9B1D809000027E
:101B600090900102A0900202B090030286169706A0
:101B7000A806B90601F5F8018789803111F5DD2441
:101B8000EE24FF24F601EE0FFF1FE857FB4F808184
:101B90009181B0E0A0E088839983AA83BB8381E030
:101BA000BBCFDB01CA01C7E0B695A795979587958E
:101BB000CA95D1F7C9CF40E00E94440B8111DBCF19
:101BC000AACFE894C7F8DD24EE24FF24F601EE0F37
:101BD000FF1FEE0FFF1FE857FB4F80819181A2810D
:101BE000B381BF70D8CF4F925F926F927F92AF92C6
:101BF000BF92CF92DF92EF92FF920F931F93CF93FA
:101C0000DF9300D01F92CDB7DEB78C0149835A8392
:101C10006B837C835901C12CD12C7601412C82E04D
:101C2000582E612C712C49815A816B817C819E01D7
:101C30002F5F3F4FC8010E94720D882339F1F801D0
:101C40008585A301920104C0220F331F441F551F35
:101C50008A95D2F7DA01C901C80ED91EEA1EFB1E09
:101C600049815A816B817C818789803111F188EFAC
:101C70009FEFAFEFBFE0481759076A077B0798F25D
:101C8000F501C082D182E282F38281E00F900F9051
:101C90000F900F90DF91CF911F910F91FF90EF90D8
:101CA000DF90CF90BF90AF907F906F905F904F90FC
:101CB000089588EF9FEFA0E0B0E0DDCFCF93DF93F2
:101CC000FC012581222321F080E0DF91CF9108954E
:101CD000EC018091AD06803159F582E08583178A49
:101CE000108E118E128E8091AE069091AF06B0E0EC
:101CF000A0E025E0880F991FAA1FBB1F2A95D1F7E6
:101D0000838B948BA58BB68B86E996E09C8F8B8F0B
:101D100081E08C831E821F82188619861A861B8694
:101D20001C861D861E861F86188A198A1A8ACDCFA0
:101D3000803251F683E085834091B0065091B10620
:101D40006091B2067091B306478B508F618F728F8E
:101D50009F012D5E3F4F86E996E00E94F30D8111B1
:101D6000D3CFB2CF8F929F92AF92BF92CF92DF929A
:101D7000EF92FF920F931F93CF93DF93EC018D812E
:101D800081110EC080E0DF91CF911F910F91FF90E4
:101D9000EF90DF90CF90BF90AF909F908F9008957D
:101DA0000B891C892D893E890417150726073707DB
:101DB00048F34A015B01823031F48A869B86AC8607
:101DC000BD8681E0E0CF81149104A104B10449F4FF
:101DD0001E821F82188619861A861B861C861D86FF
:101DE000F0CF0A851B852C853D85EB8DFC8D858587
:101DF00090E00996B901A8014150510961097109A2
:101E0000082E04C076956795579547950A94D2F7A2
:101E100075016401E1E0CE1AD108E108F10804C0BF
:101E2000F694E794D794C7948A95D2F7C416D5064A
:101E3000E606F70620F0012B022B032B11F58F8904
:101E4000988DA98DBA8D8E839F83A887B9878E01BF
:101E50000A5F1F4FC114D104E104F10409F4ADCFAE
:101E60004E815F816885798598018B8D9C8D0E945C
:101E7000720D91E0C91AD108E108F1088111EACF89
:101E800081CFC41AD50AE60AF70AE1CF3F924F92F2
:101E90005F926F927F928F929F92AF92BF92CF92FA
:101EA000DF92EF92FF920F931F93CF93DF93CDB703
:101EB000DEB72C970FB6F894DEBF0FBECDBF5C0126
:101EC000DC015B968D909C905C9716964D905D9092
:101ED0006D907C901997411451046104710409F4C8
:101EE00068C0BFEF4B1A5B0A6B0A7B0A312CF40106
:101EF00081859285A385B4859C01AD012F5F3F4FFD
:101F00004F4F5F4F29873A874B875C877301620188
:101F10001D821E821F821886F40181859285A38509
:101F2000B4852D813E814F815885281739074A078E
:101F30005B0708F056C089859A85AB85BC858C15F2
:101F40009D05AE05BF0550F482E0C82ED12CE12CD2
:101F5000F12C92E0492E512C612C712C9E012F5FA7
:101F60003F4FB701A601C4010E94720D8823C9F139
:101F700089819A81AB81BC81892B8A2B8B2B09F1BA
:101F8000260137019FEF491A590A690A790A2D81FA
:101F90003E814F8158852F5F3F4F4F4F5F4F2D83BD
:101FA0003E834F8358873FEFC31AD30AE30AF30AED
:101FB000B3CFF40140805180628073803324339426
:101FC00096CFC414D504E604F70409F70FEF1FEF0A
:101FD0002FEF3FE0B701A601C4010E94D00C811190
:101FE00019C080E02C960FB6F894DEBF0FBECDBFAF
:101FF000DF91CF911F910F91FF90EF90DF90CF90E5
:10200000BF90AF909F908F907F906F905F904F9018
:102010003F900895D50116964D915D916D917C91FB
:102020001997411551056105710539F09701860130
:10203000C4010E94D00C8823A1F2D5011696CD923E
:10204000DD92ED92FC921997332051F0D701C60131
:102050000196A11DB11DF40180839183A283B383F6
:10206000F5018789908DA18DB28D892B8A2B8B2BC1
:1020700039F48481C78AD08EE18EF28E80688483A1
:10208000F50184818062848381E0ACCF2F923F92FE
:102090004F925F926F927F928F929F92AF92BF9278
:1020A000CF92DF92EF92FF920F931F93CF93DF9324
:1020B00000D0CDB7DEB7FC018581811118C08FEF4C
:1020C0009FEF0F900F900F90DF91CF911F910F9185
:1020D000FF90EF90DF90CF90BF90AF909F908F9048
:1020E0007F906F905F904F903F902F9008958481E4
:1020F00080FFE5CF438954896589768982859385F8
:10210000A485B585312C212C481759076A077B0710
:1021100019F022242394312C6F012101CE01019664
:102120003C01DF011696BB83AA834114510409F4D4
:10213000C5C0F60142855385648575854A01F1E085
:102140009F22D6015B968D919C915C978A019B01A1
:10215000E9E03695279517950795EA95D1F71596F5
:10216000EC91E230E9F5FC01628D738D848D958DE3
:10217000600F711F821F931FA12C22E0B22EA8189E
:10218000B9084A145B0408F45201F601248126FDC3
:1021900004C0A114F2E0BF0671F400910002109196
:1021A0000102209102023091030206171707280747
:1021B000390709F05EC040E00E94440B882309F40F
:1021C0007ECFC40188579B4FD3019C012A0D3B1D34
:1021D000FC012E173F0709F46CC041914D93F9CFD4
:1021E000DC011496BC90BA94B0228114910479F465
:1021F000B1100DC0452B462B472B69F5F601878999
:10220000908DA18DB28D86839783A087B187D601EB
:102210005B96ED91FC915C9716966D917D918D91F9
:102220009C9119976250710981099109258504C013
:10223000660F771F881F991F2A95D2F70685178585
:1022400020893189600F711F821F931F6B0D711DD3
:10225000811D911D91CFD60116964D915D916D9185
:102260007C9119972A813B810E94720D8111CFCFF9
:1022700026CF730185019401AB01BC0180918604D6
:10228000909187040E94E509882309F418CF6A0C0D
:102290007B1CF60182859385A485B5858A0D9B1DDF
:1022A000A11DB11D82879387A487B5874A185B0853
:1022B0003CCF281B390B620E731EEBCF2A942328C8
:1022C00009F0FDCE898190E0FCCEFC01818D928DDC
:1022D000009711F00C9446108FEF9FEF08950F9325
:1022E0001F93CF93DF93EC01898D9A8D10E000E06E
:1022F000009799F00E9446108C010F3F100769F07B
:10230000898D9A8DFC014285538564857585415080
:102310005109610971090E94B20EC801DF91CF9184
:102320001F910F9108951F93CF93DF93FC01258197
:10233000222371F1162FEC01848187FF1EC0CF018B
:102340000E948E0BFC01892B19F18D81823040F4A3
:102350008B899C89AD89BE89848F958FA68FB78F15
:102360008F89988D938F828F8F89988DA98DBA8D43
:10237000B58BA48B8C818F778C83111103C08C81DA
:102380008F7E8C83812FDF91CF911F910C94190B3D
:1023900080E0DF91CF911F910895FF920F931F93DB
:1023A000CF93DF93EC018D81813041F090E080E0AC
:1023B000DF91CF911F910F91FF9008958C8181FF44
:1023C000F5CF82FD1BC00091860410918704C801DF
:1023D0000E9472090E94C002F82EC8010E9447099B
:1023E0008FEFF812E3CF8C8185FF1BC060E0CE0138
:1023F0000E9493118C818F7D8C83D8CF4B895C890F
:102400006D897E898A859B85AC85BD8584179507F6
:10241000A607B707C1F2CE010E94B20E8111D3CF39
:10242000C5CF40911204509113046091140470912F
:102430001504452B462B472B21F080E00E94F50A1E
:10244000B5CF80618C832A853B85317080E092E036
:10245000821B930BADCFCF93DF93EC0161E00E9421
:102460009311882311F01D8281E0DF91CF910895AF
:10247000FC01818D928D009719F061E00C9493110D
:1024800008952F923F924F925F926F927F928F9218
:102490009F92AF92BF92CF92DF92EF92FF920F93F3
:1024A0001F93CF93DF9300D01F921F92CDB7DEB75B
:1024B0007C015B01342E5D83DC0115968C911597B0
:1024C000813009F0CEC014962C9021FECAC022FCA7
:1024D000B4C0C32CDD8022947FE027222094B22D4B
:1024E000B1702B2ED7011A964D915D916D917C9113
:1024F0001D97C114D10409F428C15B968D919C915C
:102500005C97FC0174807A948A019B0169E036959E
:102510002795179507956A95D1F770228A01117052
:10252000711020C001151105E9F416964D915D91C9
:102530006D917C911997411551056105710509F05F
:1025400099C057968D919D910D90BC91A02D0097AB
:10255000A105B10509F0B0C0C7010E94460F88234C
:1025600009F47FC080E092E0801B910B46018C153E
:102570009D0508F44C01D7015B964D915C915C97E9
:1025800016968D919D910D90BC91A02D0297A10959
:10259000B109FA01258504C0880F991FAA1FBB1F26
:1025A0002A95D2F74685578560897189840F951FD2
:1025B000A61FB71F9C01AD01270D311D411D511DE7
:1025C00029013A01811432E0930609F07BC0809121
:1025D000000290910102A0910202B09103028415C1
:1025E0009505A605B70559F48FEF9FEFDC018093A1
:1025F000000290930102A0930202B0930302022D05
:102600009501B301A20180918604909187040E94F4
:10261000870A882331F19EEFB91AC818D908F70143
:1026200082859385A485B585880D991DA11DB11D51
:1026300082879387A487B58755CFF701438954894B
:102640006589768982859385A485B585481759075C
:102650006A077B0709F43DCFC7010E94B20E8111C2
:1026600038CF81E090E0D70113969C938E93129718
:1026700080E007C09E012F5F3F4F0E94720D8111C5
:1026800002C090E079C089819A81AB81BC81F70159
:10269000238D348DF901278948EF5FEF60E070E00A
:1026A000203121F048EF5FEF6FEF7FE0841795074F
:1026B000A607B70708F050CFF70186839783A08756
:1026C000B18750CF0115110599F5D7011A964D9193
:1026D0005D916D917C911D9753968D919D910D907B
:1026E000BC91A02D481759076A077B0708F181E0C4
:1026F0000E94190B882309F4B4CF40920002509233
:1027000001026092020270920302809111048160C2
:1027100080931104C80188579B4FD5019C01280D57
:10272000391DFC012E173F0759F04D914193FACF07
:1027300041E0C301B2010E94440B8111EBCF91CF64
:10274000281B390BA20EB31E68CFF7018389948929
:10275000A589B68984179507A607B70738F4848139
:10276000438B548B658B768B80688483F7018481DF
:1027700083FD1AC0832D9D810F900F900F900F90B5
:102780000F90DF91CF911F910F91FF90EF90DF900D
:10279000CF90BF90AF909F908F907F906F905F9001
:1027A0004F903F902F90089561E0C7010E949311D0
:1027B000882309F456CFDECFCF93DF931F92CDB796
:1027C000DEB7698341E050E0BE016F5F7F4F0E943A
:1027D00041120F90DF91CF910895CF93DF93EC01D9
:1027E000E98DFA8D309749F481E090E09B838A83EC
:1027F00090E080E0DF91CF91089513821282898D5D
:102800009A8D0E944112E98DFA8D22813381232B0A
:1028100059F7F0CF6115710579F0FB0101900020A7
:10282000E9F73197AF01461B570BDC01ED91FC91A5
:102830000280F381E02D199490E080E008958F925A
:102840009F92AF92BF920F931F93CF93DF93CDB719
:10285000DEB7A1970FB6F894DEBF0FBECDBF19A2A9
:10286000423008F44AE08E010F5D1F4F842E912CF8
:10287000B12CA12CA50194010E944540E62FB9017D
:10288000CA01EA30E4F4E05DD801EE938D01232B18
:10289000242B252B79F7BD018FED96E00E940A14B9
:1028A000A1960FB6F894DEBF0FBECDBFDF91CF91DA
:1028B0001F910F91BF90AF909F908F900895E95C0A
:1028C000E3CFCF92DF92EF92FF92CF93DF936B0132
:1028D0007C016DE28FED96E00E94A608EC01662770
:1028E0007727CB016C197D098E099F094AE00E9468
:1028F0001F148C0F9D1FDF91CF91FF90EF90DF9001
:10290000CF9008950C940A1442E050E06CE472E019
:102910008FED96E00C940C08CF93DF93BC018FED04
:1029200096E00E940A14EC010E9484148C0F9D1FF3
:10293000DF91CF910895CF93DF93BC018FED96E0A7
:102940000E94FE07EC010E9484148C0F9D1FDF91F2
:10295000CF9108958F929F92AF92BF92CF92DF92C4
:10296000EF92FF920F931F93CF93DF9300D01F92AC
:10297000CDB7DEB7FC018581813091F080E00F900A
:102980000F900F900F90DF91CF911F910F91FF90BB
:10299000EF90DF90CF90BF90AF909F908F90089571
:1029A000848181FFEBCF83899489A589B689892B9E
:1029B0008A2B8B2B09F45FC07F0140E050E0BA0105
:1029C000CF010E94B20E8823C9F2F701C38CD48CC8
:1029D0008788908CA18CB28C82E090E0A0E0B0E07F
:1029E000F60180839183A283B3839E012F5F3F4FC3
:1029F000B501A401C6010E94720D882309F4BECF5F
:102A000000E010E09801B501A401C6010E94D00CBD
:102A1000882309F4B3CF89809A80AB80BC80F6010B
:102A20008789803119F188EF9FEFAFEFBFE08816FB
:102A30009906AA06BB06C8F2F701178A108E118EF6
:102A4000128E138A148A158A168A84818068848378
:102A500061E0C7010E949311882309F48FCF40E001
:102A600050E0BA01C7010E94B20E89CF88EF9FEFF4
:102A7000A0E0B0E0DCCF81E082CFCF92DF92EF9296
:102A8000FF921F93CF93DF93EC0180E2689FF001E8
:102A90001124E857FB4F9385917161F0842F827464
:102AA00049F080E0DF91CF911F91FF90EF90DF9090
:102AB000CF900895142F6A8B8091000290910102AB
:102AC000A0910202B09103028E879F87A88BB98BD9
:102AD000C488D588F12CE12C7601DD24CC24CF8A62
:102AE000D88EE98EFA8E828D938DB0E0A0E0AC0195
:102AF000BD014C295D296E297F294F8B588F698F25
:102B00007A8F83858871B1F4848D958DA68DB78D6C
:102B10008B8B9C8BAD8BBE8B81E08D831F701C8358
:102B20001E821F82188619861A861B861C861D86A1
:102B300081E0B8CF803109F0B4CF9E012D5E3F4FC8
:102B40008B8D9C8D0E94F30D882309F4AACF84E01D
:102B5000E4CFCF93DF9397FF0AC00E946114EC018A
:102B60000E9484148C0F9D1FDF91CF9108954AE03D
:102B70000E941F14F4CF0F931F93CF93DF93FC0198
:102B8000048115810115110539F4FB011082DF91D3
:102B9000CF911F910F9108950732110510F007E2B0
:102BA00010E0EB01FC0160817181A801CE010E945F
:102BB0008545C00FD11F1882EACF8091950790916B
:102BC0009607009761F00E942B12809195079091D3
:102BD00096070E94EA43109296071092950708956F
:102BE000CF93DF93EC0188819981009711F00E94C7
:102BF000EA43198218821D821C821B821A82DF918D
:102C0000CF910895FC0180819181009711F00C947F
:102C1000EA4308953F924F925F926F927F928F9214
:102C20009F92AF92BF92CF92DF92EF92FF920F935B
:102C30001F93CF93DF9300D000D000D01F921F923C
:102C4000CDB7DEB77C01DC0115968C91811115C0E2
:102C5000FE013196CE010C966F0130E23193E817F8
:102C6000F907E1F7DA0130E087E09D91B92E992369
:102C700029F19E3239F48A3011F480E0DAC038E06C
:102C80008AE0F3CFE7E7F4E04491442321F0319662
:102C90009413FACFF2CF831780F34FED490F4E35DF
:102CA00060F74FE9490F4A3118F440EEB42EB90EDF
:102CB000F601E30FF11DB0823F5FD7CF89818032EB
:102CC000E1F2322E8B01FB01838D948DD7015C964E
:102CD0009C938E935B9716821782108611861286BC
:102CE000138614861586F80182859385A485B5859B
:102CF000438954896589768984179507A607B7079C
:102D000008F04DC025E0B695A795979587952A952B
:102D1000D1F7F82FFF70AF2ED80115968C91823025
:102D200008F4ABCFC8010E94461097FDA6CFF8016A
:102D300082859385A485B5854F96A11DB11D828797
:102D40009387A487B587F0E2AF9EB001112468573E
:102D50007B4F6115710509F490CFDB018C918823BD
:102D600041F0853E09F058C0BB2029F0BB24B39444
:102D7000BACFB1100EC0F701A28A809100029091E3
:102D80000102A0910202B091030286879787A08B6F
:102D9000B18BDB018C918111E9CFBB24B394832DDE
:102DA0008271823109F069CFBB2009F45AC0C70192
:102DB0000E948E0B009709F460CF20E2FC01119273
:102DC0002A95E9F72BE0F601DC0101900D922A9596
:102DD000E1F721E238E2DC0151963C932E935097C3
:102DE00040E058E01F965C934E931E9753963C9399
:102DF0002E93529759963C932E93589757965C93DF
:102E00004E93569781E00E94190B882309F435CF21
:102E1000432DF70162890AC04BE050E0C6010E94D1
:102E20005445892B09F05FCF432D6A2DC7010E94BD
:102E30003D152B960FB6F894DEBF0FBECDBFDF91C8
:102E4000CF911F910F91FF90EF90DF90CF90BF90A7
:102E5000AF909F908F907F906F905F904F903F903A
:102E60000895F8018581823009F407CFC8010E94D6
:102E7000460F882309F401CFD8015B96ED91FC91B0
:102E80005C9716968D909D90AD90BC901997B2E08E
:102E90008B1A9108A108B108858504C0880C991C7B
:102EA000AA1CBB1C8A95D2F786859785A089B18913
:102EB000880E991EAA1EBB1E848124013501480E6E
:102EC000511C611C711C84149504A604B70409F1FB
:102ED000E1E04E1A51086108710881E00E94190B67
:102EE000882309F4CACEE8E8F4E0119288E896E075
:102EF0008E179F07D1F74092000250920102609214
:102F00000202709203028091110481608093110487
:102F1000DACFD8015B96ED91FC91258580E092E0B7
:102F2000A0E0B0E004C0880F991FAA1FBB1F2A951C
:102F3000D2F7F8014389548965897689840F951FF2
:102F4000A61FB71F838B948BA58BB68BD701529688
:102F50001C9288E894E031CF5F926F927F928F92BB
:102F60009F92AF92BF92CF92DF92EF92FF920F9318
:102F70001F93CF93DF93CDB7DEB7C754D1090FB6F8
:102F8000F894DEBF0FBECDBF5C013B0119A218A2B1
:102F90008EE092E09F8F8E8F1BA21C821B829A83F1
:102FA00089831E8210E000E06E018EE1C80ED11C04
:102FB00084EBE82E86E0F82EF501E00FF11F80810A
:102FC0008F3211F40F5F1F4FD501A00FB11FFE010B
:102FD000FB9690E080E04F012D912F3249F02223A3
:102FE00039F00F5F1F4F019621938C309105A1F7A7
:102FF000880D991DFC011082F501E00FF11F808101
:103000008F3211F40F5F1F4FF501E00FF11F508059
:1030100041E0511040E030E020E0B401C701F3018D
:103020001995811121C0F4EBEF16F6E0FF06C1F40B
:1030300080E0C95BDF4F0FB6F894DEBF0FBECDBF97
:10304000DF91CF911F910F91FF90EF90DF90CF9084
:10305000BF90AF909F908F907F906F905F900895FA
:10306000C7010E942B12E4CF552091F021E0A4016A
:10307000B701C6010E940A16982E84EBE81686E076
:10308000F80681F0C7010E942B12911010C0D0CF1A
:1030900094EBE91696E0F90619F0C7010E942B128D
:1030A00081E0C7CF992021F2FE0131967F019E2D4C
:1030B0008F2D7601C92ED82E7FCFCF93DF93CDB73A
:1030C000DEB76D970FB6F894DEBF0FBECDBF4423B9
:1030D00099F1AB01BC011C821B828EE092E09A83C5
:1030E00089831E8222E0CE0101960E940A16811178
:1030F0000EC090E081E0911101C080E06D960FB6A6
:10310000F894DEBF0FBECDBFDF91CF910895CE0101
:1031100001960E94AA14882361F3CE0101960E94B1
:103120008E0B009731F325EEFC0120831E8281E097
:103130000E94190B982FDECF81E0E0CF1F93CF9331
:10314000DF93CDB7DEB76D970FB6F894DEBF0FBE35
:10315000CDBFAB011C821B822EE032E03A83298373
:103160001E8221E0BC01CE0101960E940A1611E0E8
:1031700081110CC010E0812F6D960FB6F894DEBF60
:103180000FBECDBFDF91CF911F910895CE01019663
:103190000E942B12F0CFEF92FF920F931F93CF93C9
:1031A000DF93EC017B018A011B821A8288EE93E097
:1031B000A0E0B0E08C839D83AE83BF838EE392E07A
:1031C000998388838DE190E00E944E439A8F898F86
:1031D000009779F02DE1F701DC0101900D922A951D
:1031E000E1F74CE050E0B801CE010C960E94854515
:1031F000188EDF91CF911F910F91FF90EF9008955E
:103200002F923F924F925F926F927F928F929F92F6
:10321000AF92BF92CF92DF92EF92FF920F931F93E4
:10322000CF93DF93CDB7DEB7C756D1090FB6F89469
:10323000DEBF0FBECDBF5C013B01A6964FAFA69788
:1032400019A218A28EE092E09F8F8E8F1BA21C8283
:103250001B829A8389831E824E018EE1880E911C07
:10326000C4010E945E0E63018E010F5F1F4F240197
:1032700018016FE270E0C6010E946A45009709F4E8
:1032800059C0F60120812F3271F4FFEFCF1ADF0A07
:10329000902F812F8201492E582E942D852D2801A3
:1032A000092F182FE6CF8C198D3008F08CE0E82E0E
:1032B000F12CA701B601CE01885A9F4F0E94854587
:1032C000E8E5F0E0EC0FFD1FEE0DFF1D1082C801D8
:1032D0000E942B1221E0AE01485A5F4FB201C80193
:1032E0000E940A16811120C01EAE1DAE8EE092E033
:1032F0009CAF8BAF21961FAE2197A896EEADFFAD88
:10330000A8976E0E7F1EF3018081811120C0BE013F
:10331000655C7F4FC1010E94C3024FE452E0B101DE
:10332000C5010E94CB1831C0CE0CDF1CC2010E9427
:103330002B12B3CFC60186199709A8969FAF8EAFFF
:10334000A897B201CE01CB960E94C302D6CF19A294
:1033500018A28EE092E09F8F8E8F1BA221968FADD8
:10336000219781112DC0F5011382128288EE93E01E
:10337000A0E0B0E084839583A683B7838EE392E0D8
:1033800091838083128E118E1486C501C959DF4F37
:103390000FB6F894DEBF0FBECDBFDF91CF911F9166
:1033A0000F91FF90EF90DF90CF90BF90AF909F90E4
:1033B0008F907F906F905F904F903F902F900895E7
:1033C000A6962FADA697A301BE01655C7F4FC401F1
:1033D0000E940A16882339F2CE01CB960E942B1246
:1033E000A6968FADA6978670863039F449A95AA95A
:1033F0006BA97CA9C4010E94B20EB401C1010E9454
:10340000C302A3018CCF85ED8093BC0080915E0444
:1034100090915F04A0916004B09161040796A11D92
:10342000B11D23E0B695A795979587952A95D1F775
:103430002091BC0024FD03C010925C0408954091CB
:103440005E0450915F046091600470916104452BAB
:10345000462B472B69F30097A105B10541F025E301
:103460002A95F1F700000197A109B109E1CF8091F8
:103470005D040C941205CF93DF93DC0114962D911B
:103480003C911597232B79F0FB01CD91DC91608164
:103490007181CE010E949445009729F08C1B9D0BF1
:1034A000DF91CF9108958FEF9FEFFACFFC01248138
:1034B0003581232B39F421E0FB018081882349F0F9
:1034C00020E007C0808191810E94754521E0892B11
:1034D000B9F7822F08950F931F93CF93DF93EC01D9
:1034E00088819981009759F02A813B8126173707F7
:1034F00030F081E0DF91CF911F910F9108958B0102
:103500006F5F7F4F0E947344009759F099838883BF
:103510001B830A832C813D81232B59F7FC011082E8
:10352000E8CF80E0E7CFEF92FF920F931F93CF9306
:10353000DF936115710541F480E0DF91CF911F9118
:103540000F91FF90EF90089541155105B1F07B0167
:10355000EC010C811D81040F151FB8010E946B1A2C
:10356000882351F3288139818C819D81B701820F95
:10357000931F0E947E451D830C8381E0DECFCF9395
:10358000DF93EC01FB0101900020E9F73197AF01D7
:10359000461B570B0E94931A811103C0CE010E9453
:1035A000F015CE01DF91CF910895CF93DF93EC0119
:1035B000FB0144815581608171810E94931A8111C0
:1035C00003C0CE010E94F015CE01DF91CF91089586
:1035D000FB0101900020E9F73197AF01461B570B23
:1035E0000C94931AEF92FF920F931F93CF93DF9354
:1035F000EC017B018A01BA010E946B1A81110BC098
:10360000CE010E94F015CE01DF91CF911F910F9155
:10361000FF90EF9008951D830C83B70188819981F5
:103620000E947E45F0CFFB0101900020E9F7319721
:10363000AF01461B570B0C94F21A0F931F93CF93B5
:10364000DF93CDB7DEB7A2970FB6F894DEBF0FBEFB
:10365000CDBF8C01CB01BA01F80111821082138217
:103660001282158214822AE0AE014F5F5F4F0E94E2
:10367000D73ABE016F5F7F4FC8010E94131BA2960D
:103680000FB6F894DEBF0FBECDBFDF91CF911F9173
:103690000F9108950F931F93CF93DF93CDB7DEB7AC
:1036A00062970FB6F894DEBF0FBECDBF8C01CB0181
:1036B000F8011182108213821282158214824AE06C
:1036C000BE016F5F7F4F0E94CC3ABE016F5F7F4F9C
:1036D000C8010E94131B62960FB6F894DEBF0FBE9E
:1036E000CDBFDF91CF911F910F910895EF92FF927F
:1036F0000F931F93CF93DF93CDB7DEB7A1970FB68C
:10370000F894DEBF0FBECDBF7C01CB01BA01F7013B
:103710001182108213821282158214828E010F5F31
:103720001F4F22E044E00E944C39009789F0BC0111
:10373000C7010E94131BA1960FB6F894DEBF0FBEFF
:10374000CDBFDF91CF911F910F91FF90EF90089522
:10375000C7010E94F015EFCFCF93DF93EC01FB017F
:103760008617970749F0608171816115710541F0F5
:10377000448155810E94F21ACE01DF91CF910895C4
:103780000E94F015F9CFFC0111821082138212827F
:10379000158214820C94AC1B4F925F926F927F92B1
:1037A000AF92BF92CF92DF92EF92FF920F931F934F
:1037B000CF93DF93CDB7DEB7A7970FB6F894DEBFF0
:1037C0000FBECDBF8C01BC01CE0101960E944A1BE9
:1037D000BE016F5F7F4FCE014C960E94C31B61E517
:1037E00072E0CE014C960E94BF1A0E949B14CE013B
:1037F0004C960E940216CE0101960E940216B80154
:10380000CE0101960E944A1BBE016F5F7F4FCE0121
:103810004C960E94C31B61E572E0CE014C960E945B
:10382000BF1A6EE978E1FC01808191810E94AC179A
:10383000F82ECE014C960E940216CE0101960E94EF
:103840000216B801CE01FF2009F4AEC101960E9414
:103850004A1BBE016F5F7F4FCE014C960E94C31B77
:1038600061E572E0CE014C960E94BF1A6DE578E1E9
:10387000FC01808191810E94AC17CE014C960E9480
:103880000216CE0101960E940216B801CE014C9696
:103890000E944A1BBE01645E7F4FCE0182960E9449
:1038A000C31B61E572E0CE0182960E94BF1AFC0143
:1038B0006081718147E1CE0101960E940019CE011D
:1038C00001960E947802CE0182960E940216CE01D5
:1038D0004C960E940216E0919507F091960730975A
:1038E00009F4B2C18581882309F4AEC103EA17E067
:1038F000F12CE12CF80140805180052C000C660869
:103900007708A280B380C480D580C301B2010E9431
:10391000A915B501CE0101960E944A1BCE01019660
:103920000E949B14CE0101960E940216B601CE01A0
:1039300001960E944A1BCE0101960E949B14CE0163
:1039400001960E94021667E672E08CE797E00E94FB
:103950008214B701CE0101960E944A1BBE016F5F1F
:103960007F4F8CE797E00E94FE07CE0101960E94F0
:1039700002166AEE72E08CE797E00E948214B301AF
:10398000A201CE0101960E941D1BBE016F5F7F4FF9
:10399000CE014C960E94C31B6AEE72E0CE014C969B
:1039A0000E94BF1ABC018CE797E00E94FE07CE017F
:1039B0004C960E940216CE0101960E940216B50195
:1039C000CE0101960E944A1BBE016F5F7F4FCE0160
:1039D0004C960E94C31B6AEE72E0CE014C960E9488
:1039E000BF1ABC018CE797E00E94FE07CE014C96FF
:1039F0000E940216CE0101960E940216B601CE0167
:103A000001960E944A1BBE016F5F7F4FCE014C960C
:103A10000E94C31B6AEE72E0CE014C960E94BF1A50
:103A2000BC018CE797E00E94FE07CE014C960E94F5
:103A30000216CE0101960E9402166FE672E08CE734
:103A400097E00E948214FFEFEF1AFF0A045F1F4FF6
:103A500084E0E816F10409F04DCFC0909103D090B6
:103A600092030D2C000CEE08FF0864E772E08FED66
:103A700096E00E948214C701B6010E94A9156AE768
:103A800072E08CE797E00E948214B701A601CE0194
:103A900001960E941D1BBE016F5F7F4FCE014C96A9
:103AA0000E94C31B6AEE72E0CE014C960E94BF1AC0
:103AB000BC018CE797E00E94FE07CE014C960E9465
:103AC0000216CE0101960E9402166FE672E08CE7A4
:103AD00097E00E948214C0909303D09094030D2C21
:103AE000000CEE08FF086FE772E08FED96E00E9491
:103AF0008214B701A601CE0101960E941D1BCE01C2
:103B000001960E949B14CE0101960E94021665E860
:103B100072E08CE797E00E948214B701A601CE0103
:103B200001960E941D1BBE016F5F7F4FCE014C9618
:103B30000E94C31B6AEE72E0CE014C960E94BF1A2F
:103B4000BC018CE797E00E94FE07CE014C960E94D4
:103B50000216CE0101960E9402166FE672E08CE713
:103B600097E00E9482146AE872E08CE797E00E9476
:103B700082140E94DD1582E992E00E948C14A796BF
:103B80000FB6F894DEBF0FBECDBFDF91CF911F916E
:103B90000F91FF90EF90DF90CF90BF90AF907F900C
:103BA0006F905F904F9008954C960E944A1BBE0103
:103BB000645E7F4FCE0182960E94C31B61E572E076
:103BC000CE0182960E94BF1AFC016081718147E19B
:103BD000CE0101960E940019CE0101960E94780242
:103BE000CE0182960E940216CE014C960E940216C9
:103BF0000E94DD15B801CE0101960E944A1BBE014C
:103C00006F5F7F4FCE014C960E94C31B61E572E04F
:103C1000CE014C960E94BF1A6EE978E1FC018081CA
:103C200091810E94AC17F82ECE014C960E9402168C
:103C3000CE0101960E940216FF2009F44CCE86E5C3
:103C400092E00E948C1421CE8BEA92E096CFFC0188
:103C5000118210821382128215821482FB0101905C
:103C60000020E9F73197AF01461B570B0C94F21A6D
:103C70000F931F93CF93DF9300D000D0CDB7DEB763
:103C80008C010E94C31BF8018481958182309105CB
:103C900071F0039701F1C80126960FB6F894DEBFC4
:103CA0000FBECDBFDF91CF911F910F91089565ECAD
:103CB00072E0CE0101960E94271EB801CE01019646
:103CC0000E94D51ABC01C8010E94AC1BCE0101960E
:103CD0000E940216E0CF61EE72E0EBCF0F931F93CC
:103CE000CF93DF9300D000D0CDB7DEB78C010E9418
:103CF000C31BF801848195818230910551F180F4D4
:103D000063EC72E0019799F0C80126960FB6F8941B
:103D1000DEBF0FBECDBFDF91CF911F910F910895F0
:103D200083309105C9F061EE72E0049769F7CE0126
:103D300001960E94271EB801CE0101960E94D51A55
:103D4000BC01C8010E94AC1BCE0101960E94021664
:103D5000DBCF64EC72E0EBCF65EC72E0E8CF0F9361
:103D60001F93CF93DF9300D000D0CDB7DEB78C0187
:103D70000E94C31BF801848195818130910571F007
:103D8000029701F1C80126960FB6F894DEBF0FBE68
:103D9000CDBFDF91CF911F910F91089565EC72E037
:103DA000CE0101960E94271EB801CE0101960E9405
:103DB000D51ABC01C8010E94AC1BCE0101960E941D
:103DC0000216E0CF61EE72E0EBCFEF92FF920F931D
:103DD0001F93CF93DF9300D000D0CDB7DEB78C0117
:103DE0000E94C31BF801848195818130910509F4FB
:103DF0004CC00297A1F068E672E4CE0101960E94E1
:103E00004A1BED80FE80F80184819581E81AF90A49
:103E1000CE0101960E940216EA94EF2809F561EEA0
:103E200072E0CE0101960E94271EB801CE010196D4
:103E30000E94D51ABC01C8010E94AC1BCE0101969C
:103E40000E940216C80126960FB6F894DEBF0FBE78
:103E5000CDBFDF91CF911F910F91FF90EF9008950B
:103E600068E672E4CE0101960E944A1BED80FE8056
:103E7000F80184819581E81AF90ACE0101960E9421
:103E80000216F2E0EF16F10419F465EC72E0C9CF06
:103E9000B801C8010E94AC1BD5CF9B01AC0167ECF7
:103EA00071E780E092E40E94BA412BE338EA43E0F4
:103EB0005DE30E94773F2BE338EA43E05DE30E9435
:103EC000A0400895EF92FF920F931F93CF93DF933B
:103ED00000D000D0CDB7DEB78C017B010E94C31BA0
:103EE000D70114968D919C910197F8012481358119
:103EF0008217930758F40190F081E02DE80FF91F25
:103F0000D80115969C938E9314971082F8018081A6
:103F100091810E94983A20E030E0A9010E94B541C9
:103F200018169CF468EC72E0CE0101960E94271EE0
:103F3000B801CE0101960E94D51ABC01C8010E94A9
:103F4000AC1BCE0101960E9402166AEC72E0C80119
:103F50000E94561A882329F060ED72E0C8010E9481
:103F6000131B64ED72E0C8010E94561A882329F0E1
:103F70006AED72E0C8010E94131B6EED72E0C80189
:103F80000E94561A811107C063EE72E0C8010E94B8
:103F9000561A882329F06EED72E0C8010E94131BA7
:103FA000D80114968D919C9168EE72E08130910554
:103FB00049F069EE72E08230910521F0039729F40F
:103FC0006AEE72E0C8010E94E81AC80126960FB690
:103FD000F894DEBF0FBECDBFDF91CF911F910F913F
:103FE000FF90EF9008954F925F926F927F92AF9201
:103FF000BF92CF92DF92EF92FF920F931F93CF93D6
:10400000DF93CDB7DEB7ADB6BEB62DB73EB7281B32
:10401000390B0FB6F8943EBF0FBE2DBFEDB7FEB7FC
:1040200031967F016F019F012E193F09281739072B
:1040300014F41192F8CF8701080F191F0C151D05F4
:1040400059F10E94D7076093DB067093DC068093DA
:10405000DD069093DE0683ED96E00E94BB0397FF9A
:1040600037C00E94D7074090DB065090DC06609076
:10407000DD067090DE06641975098609970940907F
:10408000D7065090D8066090D9067090DA0664156D
:10409000750586059705F8F2F7018081813021F4D6
:1040A0008CEE92E00E948C140FB6F894BEBE0FBE48
:1040B000ADBEDF91CF911F910F91FF90EF90DF90F8
:1040C000CF90BF90AF907F906F905F904F9008958A
:1040D000F60181936F01B2CF2F923F924F925F9280
:1040E0006F927F928F929F92AF92BF92CF92DF9208
:1040F000EF92FF920F931F93CF93DF93CDB7DEB76D
:10410000C754D1090FB6F894DEBF0FBECDBF8C01E6
:104110002DB73EB728963FAF2EAF28976EE472E0DA
:10412000CE0188960E94271E6EE472E0CE018E9624
:104130000E94271EB801CE0101960E944A1BBE01B3
:104140006F5F7F4FCE014C960E94C31B61E572E00A
:10415000CE014C960E94BF1A6EE978E1FC01808185
:1041600091810E94AC17D82ECE014C960E94021667
:10417000CE0101960E940216DD2031F1B801CE0178
:104180004C960E944A1BBE01645E7F4FCE01829610
:104190000E94C31B61E572E0CE0182960E94BF1AA5
:1041A000FC016081718141E0CE0101960E940019FD
:1041B000CE0101960E947802CE0182960E940216DC
:1041C000CE014C960E940216D12CC12C8CE797E0B0
:1041D0000E9413035C011601FFEF2F1A3F0A892B7F
:1041E000A9F08CE797E00E946511182F89831A8245
:1041F00041E050E0BE016F5F7F4FCE0188960E9484
:10420000931A103209F016016101E0CF6AEF72E0F3
:104210008FED96E00E948214B101CE0101960E94BA
:104220004A1BCE0101960E949B14CE0101960E946A
:10423000021686E0829D9001839D300D11243FABD4
:104240002EAB8DB79EB7821B930B0FB6F8949EBF13
:104250000FBE8DBFEDB7FEB731964F018F01FDAB9D
:10426000ECAB6EE472E08CA99DA90E94271E2CA9DC
:104270003DA92A5F3F4F3DAB2CAB31E0C31AD108BB
:1042800080F7CE0188960E949B14D12CC12C1DAAC8
:104290001CAA8CA59DA59C01295F3F4F2C153D05AF
:1042A00008F468C0C816D90628F4E8A5F9A530971F
:1042B00009F057C010929003E0E9F3E0208120322A
:1042C000C1F0C816D90628F4E8A5F9A5309709F079
:1042D0004BC010929003E0E9F3E0808189831A8259
:1042E00041E050E0BE016F5F7F4FCE018E960E948D
:1042F000931A8CA59DA5C816D90620F4E8A5F9A5A2
:104300003097A9F510929003E0E9F3E080818032C4
:1043100021F526E0ECA9FDA92E9FC0012F9F900D4D
:104320001124BE01625D7F4F880D991D0E94AC1B58
:104330008CA99DA901969DAB8CAB6AE073E08FEDD3
:1043400096E00E948214CE018E960E949B146EE429
:1043500072E0CE018E960E94131B9FEFC91AD90AF4
:1043600098CFEC0DFD1DAACFEC0DFD1DB6CFEC0DC9
:10437000FD1DCCCF0E94DD156EE472E0CE014C969F
:104380000E94271E65E273E0C8010E94561A882326
:1043900081F0B801CE014C960E94AC1BF12CE12CAF
:1043A0003FEFA31AB30A0A5F1F4FA214B30454F3DA
:1043B0006AC1E114F10401F565E273E0CE014C96A7
:1043C0000E94561A882389F1F80180819181009713
:1043D00079F00E949C3A26967FAF6EAF2697B8017F
:1043E000CE014C960E94AC1BEE24E394F12CD8CF66
:1043F00060E070E0CB01EFCFF1E0EF16F104A9F43B
:104400004AE050E070E060E0F801808191810E9414
:104410006A392B010E94A915B801CE014C960E9461
:10442000AC1BF2E0EF2EF12CBBCF6CE273E0CE01BF
:1044300001960E94271EBE016F5F7F4FC8010E9438
:104440003B1A1816190634F4DD24D394F2E0EF1663
:10445000F10409F0D12CCE0101960E940216DD2054
:1044600021F1F801808191810097B9F00E949C3A76
:1044700079AF68AF072E000C880B990B97FF11C01E
:104480000E9461140E948414B801CE014C960E94CF
:10449000AC1BE3E0EE2EF12C83CF60E070E0CB01AB
:1044A000E7CF4AE00E941F14EDCF6CE273E0CE012B
:1044B00001960E94271EBE016F5F7F4FCE014C9672
:1044C0000E943B1A181619063CF4DD24D394F3E03D
:1044D000EF16F10409F0D12CCE0101960E940216CC
:1044E000DD20C9F04AE050E070E060E0F801808132
:1044F00091810E946A397BAF6AAFF8018081918116
:104500000E948C14B801CE014C960E94AC1B74E042
:10451000E72EF12C45CFF4E0EF16F10439F56EE209
:1045200073E0C8010E94561A882309F4A4C0B80198
:10453000CE014C960E94AC1B8CE026962EAD3FAD72
:104540002697829FF001839FF00D1124ED55F84FBF
:104550005782468288AD99AD918780872AAD3BAD61
:104560003387228765E0E62EF12C1ACF25E0E2168C
:10457000F10489F462E373E0C8010E94561A8823AB
:1045800009F479C0B801CE014C960E94AC1B56E0EC
:10459000E52EF12C05CF36E0E316F104B1F44AE044
:1045A00050E070E060E0F801808191810E946A39FA
:1045B0006CAF7DAF8EAF9FAFB801CE014C960E941D
:1045C000AC1B47E0E42EF12CEBCEF7E0EF16F10444
:1045D000B9F46EE273E0C8010E94561A882309F408
:1045E0004AC08CAD9DAD90939A0380939903B80116
:1045F000CE014C960E94AC1B38E0E32EF12CD0CEBD
:1046000028E0E216F10481F466E373E0C8010E9439
:10461000561A882381F1B801CE014C960E94AC1B3A
:1046200029E0E22EF12CBCCE99E0E916F104C1F4A8
:104630004AE050E070E060E0F801808191810E94E2
:104640006A3924966CAF7DAF8EAF9FAF2497B801C7
:10465000CE014C960E94AC1B9AE0E92EF12CA0CE24
:10466000FAE0EF16F10439F46EE273E0C8010E943B
:10467000561A811119C06AE373E0C8010E94561AE4
:10468000882309F48DCECE014C960E9402160EA905
:104690001FA9080D191D08151905B9F006501109B3
:1046A000C8010E940216F7CF22962EAD3FAD229789
:1046B0003093980320939703B801CE014C960E9443
:1046C000AC1B8BE0E82EF12C6BCECE018E960E94B7
:1046D0000216CE0188960E94021628968EAD9FADD6
:1046E00028970FB6F8949EBF0FBE8DBFC95BDF4FF2
:1046F0000FB6F894DEBF0FBECDBFDF91CF911F91F3
:104700000F91FF90EF90DF90CF90BF90AF909F9070
:104710008F907F906F905F904F903F902F90089573
:104720002F923F924F925F926F927F928F929F92C1
:10473000AF92BF92CF92DF92EF92FF920F931F93AF
:10474000CF93DF93CDB7DEB7CA54D1090FB6F89433
:10475000DEBF0FBECDBF83E00E949D048C0190930D
:10476000B9038093B8038091B6039091B7030817FB
:10477000190791F00130110549F48091B40390912B
:10478000B50301969093B5038093B40362E370E0A0
:1047900080E090E00E94A5071093B7030093B60352
:1047A0008091B40361E080FD60E08CE20E94C60469
:1047B00086E10E949D048C019093B3038093B20321
:1047C0008091B0039091B1030817190791F001305F
:1047D000110549F48091AE039091AF030196909337
:1047E000AF038093AE0362E370E080E090E00E944C
:1047F000A5071093B1030093B0038091AE0361E06D
:1048000080FD60E086E00E94C60489E10E949D046C
:104810008C019093AD038093AC038091AA03909197
:10482000AB030817190791F00130110549F4809185
:10483000A8039091A90301969093A9038093A803DC
:1048400062E370E080E090E00E94A5071093AB0364
:104850000093AA038091A80361E080FD60E08DE1F0
:104860000E94C60488E10E949D048C019093A703D6
:104870008093A6038091A4039091A50308171907BC
:1048800091F00130110549F48091A2039091A303A6
:1048900001969093A3038093A20362E370E080E00B
:1048A00090E00E94A5071093A5030093A4038091B4
:1048B000A20360E080FD61E08CE10E94C6048BE110
:1048C0000E949D048C019093A1038093A00380918A
:1048D0009E0390919F030817190791F0013011056D
:1048E00049F480919C0390919D03019690939D03C0
:1048F00080939C0362E370E080E090E00E94A50753
:1049000010939F0300939E0380919C0360E080FDC1
:1049100061E08FE20E94C60480919B03882309F422
:10492000F7C7A091CD07B091CE0728E43FE30E94DE
:10493000474388248A94F3E09F2EA12CB12CA50133
:1049400094010E946740BA01A901405E5C4F6F4F1D
:104950007F4FCE0189960E941D1BBE01675D7F4F70
:10496000CE018F960E94E51EBE016F5F7F4FCE0184
:104970008F960E94BB15CE018F960E940216CE0123
:1049800089960E94021684E00E94AF0280E390E0C4
:104990000E943104BE016F5F7F4F83ED96E00E945D
:1049A0000A140E94CA066091CF077091D007072EA3
:1049B000000C880B990B0E94183F20E030E040EA81
:1049C00051E40E94773F20E030EC4FE754E40E942E
:1049D0000D4120E030E040E251E40E94A040AB01F4
:1049E000BC01CE0189960E94761BBE01675D7F4F98
:1049F000CE018F960E94621FBE016F5F7F4FCE0176
:104A00008F960E94BB15CE018F960E940216CE0192
:104A100089960E94021661E473E08FED96E00E9491
:104A20008214CE0101960E948C1484E00E94AF0291
:104A300081E390E00E943104BE016F5F7F4F83ED00
:104A400096E00E940A140E94CA06A091D107B09174
:104A5000D20724E630E00E944743A50194010E945A
:104A60006740BA01A901CE0189960E941D1BBE01B3
:104A7000675D7F4FCE018F960E94AF1EBE016F5FB4
:104A80007F4FCE018F960E94BB15CE018F960E945C
:104A90000216CE0189960E94021684E00E94AF029F
:104AA00081E390E00E943104BE016F5F7F4F83ED90
:104AB00096E00E940A140E94CA06A091CD07B09108
:104AC000CE0728E43FE30E944743A50194010E94DA
:104AD0006740CA01B901605E7C4F8F4F9F4F0E94B3
:104AE000183F2BED3FE049EC50E40E94773F23EC68
:104AF00030E046E851E30E94773F9B01AC0160E063
:104B000070E080E89FE30E940D412BE738E046E12A
:104B100055E40E94A04020E030EF49E357E40E94B2
:104B2000773F2BEA32EE4DE357E40E940D4120E03F
:104B300030E046E155E40E94A1400E947F419B0184
:104B4000AC01AFEFB3E00E948640A0E52A2EA3ECB3
:104B50003A2E412C512CA20191010E946740CA01BA
:104B6000B9010E94183F0E947F41CB010E94440975
:104B70009CAF8BAF8091CF079091D0070E944409E2
:104B800023969FAF8EAF2397A091D107B091D20704
:104B900024E630E00E944743A50194010E9467404B
:104BA000B901330F880B990B0E94183F20E030E0C9
:104BB00048EC52E40E940D4120E030E0A9010E943F
:104BC000A1400E944D1F20E030E44CE956E40E94D1
:104BD000773F0E947F419B01AC01AFEFB3E00E94A1
:104BE0008640B0E2CB2EBEE4DB2EE12CF12CA701F7
:104BF00096010E946740CA01B9010E94183F0E94B5
:104C00007F41CB010E94440925969FAF8EAF259727
:104C1000A091C107B091C20720EB3DE10E9447433C
:104C2000A50194010E946740BA01A90140575E4F57
:104C30006F4F7F4FCE0189960E941D1BBE01675D9D
:104C40007F4FCE018F960E94E51EBE016F5F7F4FA2
:104C5000CE018F960E94BB15CE018F960E94021640
:104C6000CE0189960E94021684E00E94AF0280E283
:104C700090E00E943104BE016F5F7F4F83ED96E0AC
:104C80000E940A140E94CA066091C3077091C4076B
:104C9000072E000C880B990B0E94183F20E030E093
:104CA00040EA51E40E94773F20E030EC4FE754E4C3
:104CB0000E940D4120E030E040E251E40E94A0401B
:104CC000AB01BC01CE0189960E94761BBE01675DD7
:104CD0007F4FCE018F960E94621FBE016F5F7F4F94
:104CE000CE018F960E94BB15CE018F960E940216B0
:104CF000CE0189960E94021684E00E94AF0281E2F2
:104D000090E00E943104BE016F5F7F4F83ED96E01B
:104D10000E940A140E94CA06A091C507B091C60756
:104D200024E630E00E944743A50194010E946740B9
:104D3000BA01A901CE0189960E941D1BBE01675DC3
:104D40007F4FCE018F960E94AF1EBE016F5F7F4FD7
:104D5000CE018F960E94BB15CE018F960E9402163F
:104D6000CE0189960E94021682E20E94AF02BE0125
:104D70006F5F7F4F83ED96E00E940A140E94CA067F
:104D8000A091C107B091C20720EB3DE10E944743CB
:104D9000A50194010E946740CA01B90160577E4F86
:104DA0008F4F9F4F0E94183F2BED3FE049EC50E49E
:104DB0000E94773F2BEF3FED4CE052E30E94773F9C
:104DC0009B01AC0160E070E080E89FE30E940D4130
:104DD0002BE738E046E155E40E94A04020E030EFA8
:104DE00049E357E40E94773F2BEA32EE4DE357E464
:104DF0000E940D4120E030E046E155E40E94A140D0
:104E00000E947F419B01AC01AFEFB3E00E9486405E
:104E1000A20191010E946740CA01B9010E94183F96
:104E20000E947F41CB010E9444099EAF8DAF8091CB
:104E3000C3079091C4070E94440927969FAF8EAF85
:104E40002797A091C507B091C60724E630E00E94DD
:104E50004743A50194010E946740B901330F880BB5
:104E6000990B0E94183F20E030E048EC52E40E9489
:104E70000D4120E030E0A9010E94A1400E944D1F99
:104E800020E030E44CE955E40E94773F0E947F41E6
:104E90009B01AC01AFEFB3E00E948640A7019601F1
:104EA0000E946740CA01B9010E94183F0E947F41D9
:104EB000CB010E94440929969FAF8EAF2997A091FC
:104EC0009903B0919A0327EB38E30E944743A50169
:104ED00094010E946740BA01A901405A5F4F6F4F89
:104EE0007F4FCE0189960E941D1BBE01675D7F4FDB
:104EF000CE018F960E946E1EBE016F5F7F4FCE0166
:104F00008F960E94BB15CE018F960E940216CE018D
:104F100089960E94021684E00E94AF0280E490E02D
:104F20000E943104BE016F5F7F4F83ED96E00E94C7
:104F30000A140E94CA06A0919903B0919A0327EB24
:104F400038E30E944743A50194010E946740CA01CB
:104F5000B901605A7F4F8F4F9F4F0E94183F2BED32
:104F60003FE049EC50E40E94773F22EE3BEB4DE0FE
:104F700053E30E94773F9B01AC0160E070E080E862
:104F80009FE30E940D4120E030E045EA53E40E9497
:104F9000A04020E036E042E457E40E94773F2DE451
:104FA00034EF42E457E40E940D4120E030E045EA4E
:104FB00053E40E94A1400E947F419B01AC01AFEFEE
:104FC000B3E00E948640A20191010E946740CA019D
:104FD000B9010E94183F0E947F412FEF33E0C901C1
:104FE000861B970B0E94440921969FAF8EAF219795
:104FF000A091B507B091B60720EB3DE10E94474371
:10500000A50194010E946740BA01A90140575E4F73
:105010006F4F7F4FCE0189960E941D1BBE01675DB9
:105020007F4FCE018F960E94E51EBE016F5F7F4FBE
:10503000CE018F960E94BB15CE018F960E9402165C
:10504000CE0189960E94021684E00E94AF0280E1A0
:1050500090E00E943104BE016F5F7F4F83ED96E0C8
:105060000E940A140E94CA066091B7077091B8079F
:10507000072E000C880B990B0E94183F20E030E0AF
:1050800040EA51E40E94773F20E030EC4FE754E4DF
:105090000E940D4120E030E040E251E40E94A04037
:1050A000AB01BC01CE0189960E94761BBE01675DF3
:1050B0007F4FCE018F960E94621FBE016F5F7F4FB0
:1050C000CE018F960E94BB15CE018F960E940216CC
:1050D000CE0189960E94021684E00E94AF0281E10F
:1050E00090E00E943104BE016F5F7F4F83ED96E038
:1050F0000E940A140E94CA06A091B907B091BA078B
:1051000024E630E00E944743A50194010E946740D5
:10511000BA01A901CE0189960E941D1BBE01675DDF
:105120007F4FCE018F960E94AF1EBE016F5F7F4FF3
:10513000CE018F960E94BB15CE018F960E9402165B
:10514000CE0189960E94021684E00E94AF0282E19D
:1051500090E00E943104BE016F5F7F4F83ED96E0C7
:105160000E940A140E94CA06A091B507B091B60722
:1051700020EB3DE10E944743A50194010E94674056
:10518000CA01B90160577E4F8F4F9F4F0E94183F51
:105190002BED3FE049EC50E40E94773F2BEF3FEDD1
:1051A0004CE052E30E94773F9B01AC0160E070E06D
:1051B00080E89FE30E940D412BE738E046E155E48B
:1051C0000E94A04020E030EF49E357E40E94773F7F
:1051D0002BEA32EE4DE357E40E940D4120E030E02F
:1051E00046E155E40E94A1400E947F419B01AC0131
:1051F000AFEFB3E00E948640A20191010E94674098
:10520000CA01B9010E94183F0E947F41CB010E9450
:1052100044093C018091B7079091B8070E94440966
:105220002B969FAF8EAF2B97A091B907B091BA077D
:1052300024E630E00E944743A50194010E946740A4
:10524000B901330F880B990B0E94183F20E030E022
:1052500048EC52E40E940D4120E030E0A9010E9498
:10526000A1400E944D1F20E030E44CE955E40E942B
:10527000773F0E947F419B01AC01AFEFB3E00E94FA
:105280008640A70196010E946740CA01B9010E94A9
:10529000183F0E947F41CB010E9444096C01A091FC
:1052A0009703B091980326E239E00E944743A50195
:1052B00094010E946740BA01A901465E5F4F6F4F9B
:1052C0007F4FCE0189960E941D1BBE01675D7F4FF7
:1052D000CE018F960E94381EBE016F5F7F4FCE01B8
:1052E0008F960E94BB15CE018F960E940216CE01AA
:1052F00089960E94021684E00E94AF0280E590E049
:105300000E943104BE016F5F7F4F83ED96E00E94E3
:105310000A140E94CA06A0919703B091980326E24E
:1053200039E00E944743A50194010E946740CA01E9
:10533000B901665E7F4F8F4F9F4F0E94183F2BED44
:105340003FE049EC50E40E94773F29E539ED40E029
:1053500054E30E94773F9B01AC0160E070E080E87D
:105360009FE30E940D4123EC35E04CE054E40E94A1
:10537000A04020E030E241E457E40E94773F2CE176
:1053800033E145E457E40E940D4120E030E04CE079
:1053900054E40E94A1400E947F419B01AC01AFEF09
:1053A000B3E00E948640A20191010E946740CA01B9
:1053B000B9010E94183F0E947F41CB010E9444091D
:1053C0008C01A091A907B091AA0728EF32E00E94B2
:1053D0004743A50194010E946740BA01A901485DB5
:1053E0005F4F6F4F7F4FCE01C5960E941D1B89AD49
:1053F0009AAD0297B1F461EE72E0CE0189960E94F7
:10540000271EBE016B5C7F4FCE0189960E94D51A84
:10541000BC01CE01C5960E94AC1BCE0189960E94AC
:105420000216BE016F5F7F4FCE01C5960E94BB156D
:1054300084E00E94AF0290E080E00E943104BE014F
:105440006F5F7F4F83ED96E00E940A140E94CA06A8
:105450006091AB077091AC07072E000C880B990B7D
:105460000E94183F20E030E040EA51E40E94773F7C
:1054700020E030EC4FE754E40E940D4120E030E0A2
:1054800040E251E40E94A040AB01BC01CE018996EC
:105490000E94761BBE01675D7F4FCE018F960E94F2
:1054A000621FBE016F5F7F4FCE018F960E94BB15BA
:1054B000CE018F960E940216CE0189960E94021696
:1054C00084E00E94AF0281E090E00E943104BE01BE
:1054D0006F5F7F4F83ED96E00E940A140E94CA0618
:1054E000A091AD07B091AE0724E630E00E9447439B
:1054F00022242A94E3E03E2E412C512CA20191015A
:105500000E946740BA01A901CE0189960E941D1B25
:10551000BE01675D7F4FCE018F960E94AF1EBE0118
:105520006F5F7F4FCE018F960E94BB15CE018F9685
:105530000E940216CE0189960E94021684E00E9403
:10554000AF0282E090E00E943104BE016F5F7F4FA6
:1055500083ED96E00E940A140E94CA06A091A90752
:10556000B091AA0728EF32E00E944743A2019101BF
:105570000E946740CA01B901685D7F4F8F4F9F4FFE
:105580000E94183F2BED3FE049EC50E40E94773F2A
:105590002AEF37E140EB53E30E94773F9B01AC01D8
:1055A00060E070E080E89FE30E940D410E947F412F
:1055B0009B01AC01AFEFB3E00E94864020E533ECE5
:1055C00040E050E00E946740CA01B9010E94183FC4
:1055D0000E947F41CB010E9444097C018091AB076E
:1055E0009091AC070E9444095C01A091AD07B09175
:1055F000AE0724E630E00E944743A20191010E94D9
:105600006740B901330F880B990B0E94183F20E0C7
:1056100030E048EC52E40E940D4120E030E0A90166
:105620000E94A1400E944D1F20E030E44CE955E467
:105630000E94773F0E947F419B01AC01AFEFB3E036
:105640000E94864020E23EE440E050E00E94674035
:10565000CA01B9010E94183F0E947F41CB010E94FC
:1056600044094C0160E085E30E94C60484E591E0B2
:105670000E946F09C4010E94520961E070E080E05D
:1056800090E00E94A507C7010E94520961E070E006
:1056900080E090E00E94A507C7010E94520961E0E6
:1056A00070E080E090E00E94A507C5010E945209C9
:1056B00061E070E080E090E00E94A507C8010E94D0
:1056C000520961E070E080E090E00E94A507C80107
:1056D0000E94520961E070E080E090E00E94A5071E
:1056E000C6010E94520961E070E080E090E00E94F3
:1056F000A507C3010E94520961E070E080E090E0DC
:105700000E94A507C3010E94520961E070E080E099
:1057100090E00E94A5072B968EAD9FAD2B970E941F
:10572000520961E070E080E090E00E94A5072196B8
:105730008EAD9FAD21970E94520961E070E080E03C
:1057400090E00E94A50721968EAD9FAD21970E9403
:10575000520961E070E080E090E00E94A507299680
:105760008EAD9FAD29970E94520961E070E080E004
:1057700090E00E94A5078DAD9EAD0E94520961E0A8
:1057800070E080E090E00E94A5078DAD9EAD0E9484
:10579000520961E070E080E090E00E94A507279642
:1057A0008EAD9FAD27970E94520961E070E080E0C6
:1057B00090E00E94A50725968EAD9FAD25970E948B
:1057C000520961E070E080E090E00E94A5078BAD97
:1057D0009CAD0E94520961E070E080E090E00E9480
:1057E000A5078BAD9CAD0E94520961E070E080E09E
:1057F00090E00E94A50723968EAD9FAD23970E944F
:10580000520961E070E080E090E00E94A50761E04D
:1058100085E30E94C60480919B03882309F45AC043
:1058200041E062E084E00E94CD061092C5038093BF
:10583000C40383ED96E00E94BB03182F8093960368
:1058400083ED96E00E94BB03809395031031C1F471
:1058500099270E94CC1B809196038230E1F68091BB
:105860009503813099F480939B0384E00E94AF02FA
:1058700080E990E00E94310481E00E94DA05CBCFFC
:10588000103249F799270E946C20E5CF10929B03B4
:1058900084E00E94AF0280E890E00E94310481E041
:1058A0000E94DA05E3EAF7E023ED37E08FEF9FEFA0
:1058B0009183808393838283958384833C962E1780
:1058C0003F07B1F7909394038093930390939203CF
:1058D00080939103CE01C5960E940216C65BDF4FEE
:1058E0000FB6F894DEBF0FBECDBFDF91CF911F91F1
:1058F0000F91FF90EF90DF90CF90BF90AF909F906F
:105900008F907F906F905F904F903F902F90089571
:1059100041E062E084E00E94CD061092C5038093CE
:10592000C40383ED96E00E94BB03182F8093960377
:1059300083ED96E00E94BB03809395031031F1F450
:1059400099270E94CC1B64EF71E080E090E00E94F8
:10595000A507809196038230B9F480919503813038
:1059600099F480939B0384E00E94AF0280E990E069
:105970000E94310481E00E94DA05B0CF103249F76D
:1059800099270E946C20DFCF82E40E949A055C0177
:105990008CE30E949A057C018AE30E949A056C01BF
:1059A000FE0131961E0189E2280E311C8F012E1650
:1059B0003F0611F01192FBCF28E43FE3D5010E948E
:1059C00047432FEF33E040E050E00E946740290159
:1059D0003A0180E2480E83E0581E611C711C8091E0
:1059E000C7079091C8078A159B0549F1B301A20129
:1059F000C1010E941D1BB101CE018F960E94E51EC0
:105A0000B801CE018F960E94BB15CE018F960E94E1
:105A10000216C1010E940216B092C807A092C707E1
:105A200084E00E94AF0280E390E00E943104B8015C
:105A300083ED96E00E940A1481E00E94DA058091CD
:105A4000C9079091CA078E159F0509F442C0B70196
:105A50000F2C000C880B990B0E94183F20E030E0BF
:105A600040EA51E40E94773F20E030EC4FE754E4F5
:105A70000E940D4120E030E040E251E40E94A0404D
:105A8000AB01BC01C1010E94761BB101CE018F9612
:105A90000E94621FB801CE018F960E94BB15CE01F5
:105AA0008F960E940216C1010E940216F092CA0748
:105AB000E092C90784E00E94AF0281E390E00E9477
:105AC0003104B80183ED96E00E940A1481E00E943F
:105AD000DA0524E630E0D6010E9447432FEF33E099
