:100000000C9423020C9454020C9454020C94540249
:100010000C9454020C9454020C9454020C94540208
:100020000C9454020C9454020C9454020C945402F8
:100030000C9454020C9454020C9454020C945402E8
:100040000C9454020C9454020C9454020C945402D8
:100050000C9454020C9454020C9454020C946D0BA6
:100060000C9454020C94E10B0C94B70B0C945402B6
:100070000C9454020C9454020C9454020C945402A8
:100080000C9454020C9454020C9454020C94540298
:100090000C9454020C9454020C9454020C94490A8B
:1000A0000C9454020C9454020C9454020C94540278
:1000B0000C9454020C9454020C9454020C94540268
:1000C0000C9454020C9454020C9454020C94540258
:1000D0000C9454020C9454020C9454020C94540248
:1000E0000C94540207634236B79BD8A71A39685656
:1000F00018AEBAAB558C1D3CB7CC5763BD6DEDFD4A
:10010000753EF6177231BF000000803F0800000006
:10011000BE922449123EABAAAA2ABECDCCCC4C3EFC
:1001200000000080BEABAAAAAA3E00000000BF00EB
:100130000000803F0000000000084178D3BB4387E7
:10014000D1133D190E3CC3BD4282AD2B3E68EC82FB
:1001500076BED98FE1A93E4C80EFFFBE01C4FF7F80
:100160003F00000000000C943F030C9437060C94F1
:10017000DD050C9450030C94B6020C94CB050C9442
:1001800062030C94170C0C9454030C948A020C9484
:100190005E030C9475030C946C030C943B030C9459
:1001A00076030C94FF050C949E050C94F1050C94B9
:1001B000E3020C94CE050C949C020C945A030C940C
:1001C00084060C948D020C9470030C9435030C94EB
:1001D0007A030C944A030C9447030C9468030C9420
:1001E000AF020C9443030C948C020C948B024E418E
:1001F0004E494E495459494E46CDCCCC3D0AD723A1
:100200003C17B7D13877CC2B329595E6241FB14FE8
:100210000A000020410000C84200401C4620BCBE2D
:100220004CCA1B0E5AAEC59D7400407A10F35A009A
:10023000A0724E18090010A5D4E80000E87648170F
:100240000000E40B54020000CA9A3B000000E1F5F4
:1002500005000080969800000040420F000000A0BA
:100260008601000000102700000000E803000000E5
:10027000006400000000000A00000000000100000F
:100280000000002C76D888DC674F0823DFC1DFAE82
:1002900059E1B1B796E5E3E453C63AE6519976964B
:1002A000E8E6C28426EB898C9B62ED407C6FFCEF14
:1002B000BC9C9F40F2BAA56FA5F490055A2AF75C42
:1002C000936B6CF9676DC11BFCE0E40D47FEF520F4
:1002D000E6B500D0ED902E030094357705008084BC
:1002E0001E080000204E0A000000C80C33333333D0
:1002F0000F986E12831141EF8D2114893BE655163C
:10030000CFFEE6DB18D1844B381BF77C1D901DA473
:10031000BBE424203284725E228100C9F124ECA166
:10032000E53D2700002100240027002A002D003091
:1003300000330001010000040107010A010000224E
:1003400000250028002B002E00310034000201009F
:1003500000050108010B01000020002300260029F0
:10036000002C002F003200000100000301060109EB
:100370000105050505070508080808020202020A2A
:100380000A08080404040401010101010101010338
:1003900003030303030303040707070C0C0C0C0CF3
:1003A0000C0C0C0202020206060606060606060BE6
:1003B0000B0B0B0B0B0B0B0102102020080810205D
:1003C00040102040800201020108040201010204E1
:1003D00008102040808040201008040201800402A0
:1003E00001804020100804020108040201010204F7
:1003F0000810204080010204081020408000000AFC
:100400000B02090C0D0E0807030401000000000098
:1004100000000000000000000000000000000000DC
:100420000000000000000000001211100000000099
:1004300000000000000000000000000000000000BC
:1004400000000000170C11241FBECFEFD1E2DEBF69
:10045000CDBF00E00CBF12E0A0E0B2E0EAE5F4E4BA
:1004600000E00BBF02C007900D92A437B107D9F787
:1004700024E0A4E7B2E001C01D92A132B207E1F787
:1004800012E0C3E2D2E000E006C021970109802F0C
:10049000FE010E94EE1FC232D10780E00807A9F7D3
:1004A0000E94500C0C942B220C9400008CBD9DBD1E
:1004B000089591E090934E038093700310924F0340
:1004C0001092710308952091FD02260F3327331FE8
:1004D00021323105ECF420914803FC0190E080E0EA
:1004E000243069F082E00895A091FD022191AC01D1
:1004F00045525D4FA40FB52FB11D2C930196861761
:1005000098F38091FD02680F6093FD0280E00895EA
:1005100081E00895089508950895E091D9028091A9
:10052000D802E81730F4F0E0E854FD4F808190E005
:1005300008958FEF9FEF08959091D9028091D8028E
:100540002FEF3FEF981748F4E92FF0E0E854FD4F04
:10055000208130E09F5F9093D902C9010895809176
:10056000D8029091D902891B990B0895CF92DF92FE
:10057000EF92FF920F931F93CF93DF937C01CB01F8
:100580008A0120914E03222389F0EB016B01C40EF6
:10059000D51ECC15DD0569F06991D701ED91FC916F
:1005A0000190F081E02DC7011995F3CF642F0E94CF
:1005B0006302C801DF91CF911F910F91FF90EF90DF
:1005C000DF90CF900895CF93DF931F92CDB7DEB722
:1005D000698320914E032223F9F020917103203288
:1005E00058F021E030E0FC013383228390E080E08A
:1005F0000F90DF91CF91089580914F03E82FF0E0A5
:10060000E05BFC4F998190838F5F80934F038093D1
:10061000710381E090E0ECCF61E0CE0101960E9491
:100620006302F7CF682F82E793E00C94E3028150D6
:10063000823108F05AC0E82FF0E08827ED5DFC4FCA
:100640008F4F0C94EE1F4303470335033B033F03D7
:1006500075034A03500354035A035E03620368039D
:100660006C037503700376037A03809180008F77A3
:10067000809380000895809180008F7DF9CF8091D4
:100680008000877FF5CF84B58F7784BD089584B5CA
:100690008F7DFBCF8091B0008F778093B00008955D
:1006A0008091B0008F7DF9CF809190008F778093FB
:1006B00090000895809190008F7DF9CF80919000F7
:1006C000877FF5CF8091A0008F778093A000089559
:1006D0008091A0008F7DF9CF8091A000877FF5CF1A
:1006E000809120018F7780932001089580912001CF
:1006F0008F7DF9CF80912001877FF5CFCF93DF9356
:10070000282F30E0F901E350FC4F8491F901E954BE
:10071000FC4FD491F901EF58FC4FC491CC23A1F0C8
:1007200081110E941703EC2FF0E0EE0FFF1FE95A32
:10073000FC4FA591B491EC91ED2381E090E009F498
:1007400080E0DF91CF91089580E090E0FACF1F9391
:10075000CF93DF93282F30E0F901E350FC4F8491D1
:10076000F901E954FC4FD491F901EF58FC4FC491C1
:10077000CC23A9F0162F81110E941703EC2FF0E073
:10078000EE0FFF1FE35CFC4FA591B4918FB7F89477
:10079000EC91111108C0D095DE23DC938FBFDF915F
:1007A000CF911F910895DE2BF8CF1092480381E07E
:1007B000809347031092220361E084E10E94A70323
:1007C00061E085E10E94A703E9EBF0E080818E7F84
:1007D000808380818D7F808388E48093B80085E466
:1007E0008093BC000895CF93DF9391E09093DA0259
:1007F0008823B9F0C091B800D091BA008091BC00B4
:100800008A7B8093BC0060E084E10E94A70360E0E3
:1008100085E10E94A7030E94D503D093BA00C0933C
:10082000B800DF91CF910895CF93DF9390E0FC0162
:10083000E954FC4F24918F589C4FFC0184918823EC
:10084000D1F090E0880F991FFC01ED5DFC4FA59160
:10085000B491FC01E35CFC4FC591D49161110EC0D1
:100860009FB7F8948C91E22FE0958E238C9328818A
:10087000E223E8839FBFDF91CF9108958FB7F8946B
:10088000EC91E22BEC938FBFF6CF865320917B0047
:10089000982F987F277F922B90937B00877080649E
:1008A00080937C0080917A00806480937A008091AC
:1008B0007A0086FDFCCF80917800909179000895B0
:1008C0003FB7F8948091B4029091B502A091B6021E
:1008D000B091B70226B5A89B05C02F3F19F001962D
:1008E000A11DB11D3FBFBA2FA92F982F8827BC018A
:1008F000CD01620F711D811D911D42E0660F771FB2
:10090000881F991F4A95D1F70895CF92DF92EF92F1
:10091000FF920F931F93CF93DF93D091710381E0E8
:10092000D13208F09CC0C09170030E9460046B013A
:100930007C018091480381116CC082E08093480360
:1009400081E0809347038FEF809346031092450325
:10095000D0934403A0E5B3E0E4E2F3E080E0D813F1
:100960008DC01092230380912303CC0FC82BC0931A
:10097000230380912203813009F084C01092220366
:100980000E9460046B017C01809123038093BB0073
:1009900080914A0390914B03A0914C03B0914D0379
:1009A000892B8A2B8B2BA1F00E94600400914A03B3
:1009B00010914B0320914C0330914D036C197D092C
:1009C0008E099F09061717072807390708F442C040
:1009D0008091BC0083FDD8CF85EC8093BC000E9441
:1009E00060046B017C0180914803823009F44CC0A3
:1009F000809146038F3F09F469C08091460380329D
:100A000009F466C080914603803309F463C084E032
:100A100026C080914A0390914B03A0914C03B09162
:100A20004D03892B8A2B8B2B09F483CF0E94600402
:100A300000914A0310914B0320914C0330914D03D8
:100A40006C197D098E099F090617170728073907B2
:100A500008F06FCF809149030E94F30385E0109264
:100A60004F031092710310924E03DF91CF911F91AB
:100A70000F91FF90EF90DF90CF9008959D9191930B
:100A80008F5F6DCF85EEA9CF80914A0390914B0384
:100A9000A0914C03B0914D03892B8A2B8B2B09F429
:100AA000A2CF0E94600400914A0310914B03209151
:100AB0004C0330914D036C197D098E099F0906176F
:100AC00017072807390708F08ECFC4CF80E0C7CFBB
:100AD00082E0C5CF83E0C3CF8F929F92AF92BF9247
:100AE000CF92DF92EF92FF924B015C010E94600473
:100AF0006B017C010E9460046C197D098E099F09BD
:100B0000683E734081059105A8F321E0821A91089F
:100B1000A108B10888EEC80E83E0D81EE11CF11CC4
:100B200081149104A104B10429F7FF90EF90DF90A4
:100B3000CF90BF90AF909F908F900895AF92BF924B
:100B4000CF92DF92EF92FF920F931F93CF93DF9399
:100B50006C017B018B01040F151FEB015E01AE18C8
:100B6000BF08C017D10759F06991D601ED91FC91EA
:100B70000190F081E02DC6011995892B79F7C50107
:100B8000DF91CF911F910F91FF90EF90DF90CF9069
:100B9000BF90AF90089590E080E00895FC01538DE0
:100BA000448D252F30E0842F90E0821B930B541747
:100BB00010F0CF96089501970895FC01918D828DD4
:100BC000981761F0A28DAE0FBF2FB11D5D968C916D
:100BD000928D9F5F9F73928F90E008958FEF9FEFAC
:100BE0000895FC01918D828D981731F0828DE80F68
:100BF000F11D858D90E008958FEF9FEF0895FC0122
:100C0000918D228D892F90E0805C9F4F821B9109EE
:100C10008F73992708958EE793E00E94FF0521E0E6
:100C2000892B09F420E0822F0895FC01A48DA80FE0
:100C3000B92FB11DA35ABF4F2C91848D90E001961E
:100C40008F739927848FA689B7892C93A089B1893E
:100C50008C91837080648C93938D848D981306C0DF
:100C60000288F389E02D80818F7D80830895EF9243
:100C7000FF920F931F93CF93DF93EC0181E0888F56
:100C80009B8D8C8D98131AC0E889F989808185FF26
:100C900015C09FB7F894EE89FF896083E889F989C8
:100CA00080818370806480839FBF81E090E0DF91CA
:100CB000CF911F910F91FF90EF900895F62E0B8D1D
:100CC00010E00F5F1F4F0F731127E02E8C8D8E11D8
:100CD0000CC00FB607FCFACFE889F989808185FF3F
:100CE000F5CFCE010E941506F1CFEB8DEC0FFD2F55
:100CF000F11DE35AFF4FF0829FB7F8940B8FEA89FA
:100D0000FB8980818062CFCFCF93DF93EC01888D08
:100D10008823B9F0AA89BB89E889F9898C9185FD76
:100D200003C0808186FD0DC00FB607FCF7CF8C9104
:100D300085FFF2CF808185FFEDCFCE010E941506A1
:100D4000E9CFDF91CF91089580E090E0892B29F0E1
:100D50000E940B0681110E94000080E090E0892B28
:100D600049F080E090E0892B29F00E940000811179
:100D70000E94000080E090E0892B49F080E090E044
:100D8000892B29F00E94000081110E94000080E060
:100D900090E0892B49F080E090E0892B29F00E94B7
:100DA000000081110C94000008959C5F089508953F
:100DB0000CB405FC0DC09EBD00000DB407FEFDCFB8
:100DC0009EB58EBD00000DB407FEFDCF8EB5089513
:100DD0008EBD00000DB407FEFDCF8EB59EBD000098
:100DE0000DB407FEFDCF9EB508956115710579F02C
:100DF000FB0101900020E9F73197AF01461B570B2B
:100E0000DC01ED91FC910280F381E02D199490E0DA
:100E100080E0089542E050E06AE272E08EE793E0FD
:100E20000C949E050F931F93CF93DF93FC010481D5
:100E300015810115110539F4FB011082DF91CF9165
:100E40001F910F9108950732110510F007E210E08D
:100E5000EB01FC0160817181A801CE010E941C227E
:100E6000C00FD11F1882EACF85ED8093BC0080911E
:100E70004A0390914B03A0914C03B0914D03079608
:100E8000A11DB11D23E0B695A795979587952A9545
:100E9000D1F72091BC0024FD03C0109248030895AF
:100EA00040914A0350914B0360914C0370914D0364
:100EB000452B462B472B69F30097A105B10541F05F
:100EC00025E32A95F1F700000197A109B109E1CFC7
:100ED000809149030C94F303FC0124813581232B79
:100EE00039F421E0FB018081882349F020E007C02C
:100EF000808191810E940C2221E0892BB9F7822FF9
:100F000008950F931F93CF93DF93EC01888199810C
:100F1000009759F02A813B812617370730F081E08E
:100F2000DF91CF911F910F9108958B016F5F7F4FDC
:100F30000E942221009759F0998388831B830A839A
:100F40002C813D81232B59F7FC011082E8CF80E0F2
:100F5000E7CFEF92FF920F931F93CF93DF9361152B
:100F6000710541F480E0DF91CF911F910F91FF90C7
:100F7000EF90089541155105B1F07B01EC010C8112
:100F80001D81040F151FB8010E948107882351F3AA
:100F9000288139818C819D81B701820F931F0E9426
:100FA00015221D830C8381E0DECFFB010190002020
:100FB000E9F73197AF01461B570B0C94A907CF9364
:100FC000DF93EC0188819981009711F00E949920AC
:100FD000198218821D821C821B821A82DF91CF9196
:100FE0000895CF93DF93EC01FB014481558160812B
:100FF00071810E94A907811103C0CE010E94DF0701
:10100000CE01DF91CF910895EF92FF920F931F933E
:10101000CF93DF93EC017B018A01BA010E94810723
:1010200081110BC0CE010E94DF07CE01DF91CF916D
:101030001F910F91FF90EF9008951D830C83B701CE
:10104000888199810E941522F0CFFB010190002038
:10105000E9F73197AF01461B570B0C9404080F9327
:101060001F93CF93DF93CDB7DEB762970FB6F89497
:10107000DEBF0FBECDBF8C01FC0111821082138236
:101080001282158214824AE0BE016F5F7F4F88E6AC
:1010900092E40E949717BE016F5F7F4FC8010E94C4
:1010A000250862960FB6F894DEBF0FBECDBFDF9164
:1010B000CF911F910F9108950F931F93CF93DF93BB
:1010C000CDB7DEB7A2970FB6F894DEBF0FBECDBF87
:1010D0008C01CB01BA01F8011182108213821282B5
:1010E000158214822AE0AE014F5F5F4F0E94A21763
:1010F000BE016F5F7F4FC8010E942508A2960FB600
:10110000F894DEBF0FBECDBFDF91CF911F910F913D
:101110000895EF92FF920F931F93CF93DF93CDB774
:10112000DEB7A1970FB6F894DEBF0FBECDBF7C012E
:10113000CB01BA01F701118210821382128215824B
:1011400014828E010F5F1F4F22E044E00E9475174A
:10115000009789F0BC01C7010E942508A1960FB62F
:10116000F894DEBF0FBECDBFDF91CF911F910F91DD
:10117000FF90EF900895C7010E94DF07EFCFCF9354
:10118000DF93EC01FB018617970749F060817181BD
:101190006115710541F0448155810E940408CE011A
:1011A000DF91CF9108950E94DF07F9CFFC011182F2
:1011B000108213821282158214820C94BF08FC01E3
:1011C000118210821382128215821482FB01019017
:1011D0000020E9F73197AF01461B570B0C94040828
:1011E000FC0180819181009711F00C949920089561
:1011F0000F931F93CF93DF9300D000D0CDB7DEB70E
:101200008C010E94D608F801848195818130910576
:1012100071F0029701F1C80126960FB6F894DEBF6F
:101220000FBECDBFDF91CF911F910F9108956FE554
:1012300072E0CE0101960E94DF08B801CE0101964E
:101240000E94F107BC01C8010E94BF08CE010196AF
:101250000E94F008E0CF62E572E0EBCFEF92FF92E0
:101260000F931F93CF93DF9300D000D0CDB7DEB79D
:101270008C010E94D608F801848195818130910506
:1012800009F459C0029719F1CE0101960E942F0866
:10129000ED80FE80F80184819581E81AF90ACE017B
:1012A00001960E94F008EA94EF2891F56DE272E051
:1012B0008EE793E00E94F506F80144815581608134
:1012C00071818EE793E00E949E050E940A0762E505
:1012D00072E0CE0101960E94DF08B801CE010196AE
:1012E0000E94F107BC01C8010E94BF08CE0101960F
:1012F0000E94F008C80126960FB6F894DEBF0FBE14
:10130000CDBFDF91CF911F910F91FF90EF90089586
:10131000CE0101960E942F08ED80FE80F8018481A5
:101320009581E81AF90ACE0101960E94F008F2E0D0
:10133000EF16F10419F46FE572E0CBCFB801C801E4
:101340000E94BF08D7CF9B01AC0167EC71E780E03A
:1013500092E40E94691E2BE338EA43E05DE30E94B9
:10136000331C2BE338EA43E05DE30E944F1D0895F0
:10137000EF92FF920F931F93CF93DF9300D000D093
:10138000CDB7DEB78C017B010E94D608D701149639
:101390008D919C910197F8012481358182179307E3
:1013A00058F40190F081E02DE80FF91FD80115964F
:1013B0009C938E9314971082F801808191810E94F2
:1013C000931720E030E0A9010E94641E18169CF4D7
:1013D00069E372E0CE0101960E94DF08B801CE01F8
:1013E00001960E94F107BC01C8010E94BF08CE010E
:1013F00001960E94F0086BE372E0C8010E946C073E
:10140000882329F061E472E0C8010E94250865E4A0
:1014100072E0C8010E946C07882329F06BE472E037
:10142000C8010E9425086FE472E0C8010E946C07A1
:10143000811107C064E572E0C8010E946C0788232F
:1014400029F06FE472E0C8010E942508D8011496C3
:101450008D919C9169E572E08130910549F06AE5D2
:1014600072E08230910521F0039729F46BE572E078
:10147000C8010E94D507C80126960FB6F894DEBFB2
:101480000FBECDBFDF91CF911F910F91FF90EF90D5
:1014900008951F920F920FB60F9211240BB60F9260
:1014A0002F933F934F935F936F937F938F939F936C
:1014B000AF93BF93EF93FF938091B900887F8036FD
:1014C00009F44DC008F040C0883209F4A9C028F5DD
:1014D000803109F49DC0C8F4882309F4FBC088302A
:1014E00009F496C0FF91EF91BF91AF919F918F91B9
:1014F0007F916F915F914F913F912F910F900BBE14
:101500000F900FBE0F901F901895883109F488C076
:10151000803241F78093460314C0803409F49DC0A3
:1015200040F48033B9F38833E9F68093460385ECC1
:10153000B0C0803509F485C0883509F496C0883478
:1015400089F60E943407CECF883909F48CC038F56B
:10155000883729F050F4883611F0803719F683E087
:10156000809348031092210357C0883809F47BC048
:10157000803919F0803809F0B5CF8091210380328D
:1015800008F071C0E091210381E08E0F8093210368
:101590008091BB00F0E0EF5FFC4F80833DC0803B5B
:1015A00039F0E0F4803A09F479C0883A09F09ACF2A
:1015B00084E0809348031092FE021092FD02E091B5
:1015C000FB02F091FC0219958091FD0281110FC080
:1015D00081E08093FD021092DB0209C0803C09F497
:1015E000A6CF883C09F4A3CF883B09F07BCFE091DC
:1015F000FE0281E08E0F8093FE02F0E0E552FD4F87
:1016000080818093BB009091FE028091FD0229C0F1
:10161000809123038093BB0085EC8093BC0062CF54
:101620009091450380914403981758F5E091450344
:1016300081E08E0F80934503F0E0EC5DFC4F8081EC
:10164000E9CFE091450381E08E0F809345038091BF
:10165000BB00F0E0EC5DFC4F8083909145038091EE
:1016600044039817C8F285E8D8CFE091450381E09C
:101670008E0F809345038091BB00F0E0EC5DFC4F42
:1016800080838091470381115CCF81E080932203A6
:1016900084EA8093BC001092480324CF85EC8093A9
:1016A000BC001092480380912103803230F4E09115
:1016B0002103F0E0EF5FFC4F10826091210370E0A6
:1016C000E091FF02F091000381E093E01995109200
:1016D000210308CF1092460334CF1F920F920FB60A
:1016E0000F9211242F933F938F939F93AF93BF93A8
:1016F0008091B0029091B102A091B202B091B30278
:101700003091AF0223E0230F2D3758F50196A11D2C
:10171000B11D2093AF028093B0029093B102A093C9
:10172000B202B093B3028091B4029091B502A0913D
:10173000B602B091B7020196A11DB11D8093B4020B
:101740009093B502A093B602B093B702BF91AF9148
:101750009F918F913F912F910F900FBE0F901F90EF
:10176000189526E8230F0296A11DB11DD2CF1F9216
:101770000F920FB60F9211240BB60F922F933F9337
:101780004F935F936F937F938F939F93AF93BF9389
:10179000EF93FF938EE793E00E941506FF91EF9180
:1017A000BF91AF919F918F917F916F915F914F9179
:1017B0003F912F910F900BBE0F900FBE0F901F9077
:1017C00018951F920F920FB60F9211240BB60F921D
:1017D0002F938F939F93EF93FF93E0918E03F0915C
:1017E0008F038081E0919403F091950382FD1DC0E9
:1017F0009081809197038F5F8F7320919803821758
:1018000041F0E0919703F0E0E258FC4F958F809310
:101810009703FF91EF919F918F912F910F900BBEA6
:101820000F900FBE0F901F9018958081F2CFE2E7C6
:10183000F3E01382128288EE93E0A0E0B0E08483AC
:101840009583A683B7832AE032E031832083EEE7D5
:10185000F3E01382128284839583A683B7838CE19D
:1018600092E09183808385EC90E09587848784EC77
:1018700090E09787868780EC90E0918B808B81EC5D
:1018800090E0938B828B82EC90E0958B848B86EC3E
:1018900090E0978B868B118E128E138E148E089586
:1018A000CF93DF93CDB7DEB7CF56D1090FB6F894FB
:1018B000DEBF0FBECDBF789484B5826084BD84B591
:1018C000816084BD85B5826085BD85B5816085BD3B
:1018D00080916E00816080936E00109281008091F3
:1018E000810082608093810080918100816080937B
:1018F0008100809180008160809380008091B100A0
:1019000084608093B1008091B00081608093B000CA
:10191000809191008260809391008091910081601C
:1019200080939100809190008160809390008091DD
:10193000A10082608093A1008091A10081608093CA
:10194000A1008091A00081608093A000809121017E
:101950008260809321018091210181608093210127
:101960008091200181608093200180917A008460C1
:1019700080937A0080917A00826080937A008091CF
:101980007A00816080937A0080917A0080688093E9
:101990007A001092C10061E08CE10E94140461E0C1
:1019A0008DE10E94140461E086E00E94140461E06D
:1019B0008FE20E94140461E08CE20E94140460E053
:1019C00083E00E94140460E086E10E94140460E059
:1019D00089E10E94140460E088E10E94140460E040
:1019E0008BE10E94140461E084E00E94140461E031
:1019F00087E10E9414041FB7F8948091740281114A
:101A000027C0E6EAF3E08491ECEEF3E09491E82F4E
:101A1000F0E0EE0FFF1FED5DFC4FA591B491EC914E
:101A2000E92321F461E085E30E94A70361E085E3F7
:101A30000E9414048CB580618CBD8CB580648CBD13
:101A400061E084E30E94140461E083E30E941404D3
:101A5000809174028F5F809374021FBF61E085E301
:101A60000E94A703E0918E03F0918F0382E08083B0
:101A7000E0918A03F0918B031082E0918C03F09146
:101A80008D038FEC808310929603E0919203F09186
:101A9000930386E08083E0919003F091910380812D
:101AA00080618083E0919003F09191038081886050
:101AB0008083E0919003F09191038081806880831E
:101AC000E0919003F091910380818F7D808368EB9A
:101AD0007BE080E090E00E946C0560E085E30E947E
:101AE000A70384E591E00E94560282E098E10E94FB
:101AF000D80682E098E10E94D80682E098E10E9430
:101B0000D80682E098E10E94D80682E098E10E941F
:101B1000D80682E098E10E94D80682E098E10E940F
:101B2000D80682E098E10E94D80682E098E10E94FF
:101B3000D80682E098E10E94D80682E098E10E94EF
:101B4000D80682E098E10E94D80682E098E10E94DF
:101B5000D80682E098E10E94D80682E098E10E94CF
:101B6000D80682E098E10E94D80682E098E10E94BF
:101B7000D80682E098E10E94D80682E098E10E94AF
:101B8000D80682E098E10E94D80661E085E30E94D1
:101B9000A70361E070E080E090E00E946C05109285
:101BA000D9021092D80210924F03109271030E9432
:101BB000D5038AE892E09093FC028093FB028BE8C5
:101BC00092E0909300038093FF0281E090E0A0E018
:101BD000B0E08093760390937703A0937803B0935B
:101BE00079038E01075D1F4F44244A9493E0592ED8
:101BF000612C712C83E00E947E037C019093AE02E5
:101C00008093AD028091AB029091AC02E816F90688
:101C100099F021E0E216F10449F48091A902909133
:101C2000AA0201969093AA028093A90262E370E04F
:101C300080E090E00E946C05F092AC02E092AB0272
:101C40008091A90261E080FD60E08CE20E94A70320
:101C500086E10E947E037C019093A8028093A702F4
:101C60008091A5029091A602E816F90699F031E05C
:101C7000E316F10449F48091A3029091A402019625
:101C80009093A4028093A30262E370E080E090E06E
:101C90000E946C05F092A602E092A5028091A30238
:101CA00061E080FD60E086E00E94A70389E10E9478
:101CB0007E037C019093A2028093A10280919F02F7
:101CC0009091A002E816F90699F081E0E816F10477
:101CD00049F480919D0290919E02019690939E02FC
:101CE00080939D0262E370E080E090E00E946C05CA
:101CF000F092A002E0929F0280919D0261E080FD3F
:101D000060E08DE10E94A70388E10E947E037C01D0
:101D100090939C0280939B028091990290919A02E9
:101D2000E816F90699F091E0E916F10449F480917A
:101D3000970290919802019690939802809397024F
:101D400062E370E080E090E00E946C05F0929A02FD
:101D5000E09299028091970260E080FD61E08CE161
:101D60000E94A7038BE10E947E037C019093960260
:101D7000809395028091930290919402E816F9065F
:101D800099F0A1E0EA16F10449F480919102909152
:101D900092020196909392028093910262E370E026
:101DA00080E090E00E946C05F0929402E092930231
:101DB0008091910260E080FD61E08FE20E94A703C4
:101DC00082E40E9445045C018CE30E9445041C01EE
:101DD0008AE30E9445046C01FE0131967F010E17D3
:101DE0001F0711F01192FBCF28E43FE3D5010E94B9
:101DF000F61FA30192010E94F41CDA01C901805E62
:101E00009C4FAF4FBF4F6A968CAF9DAFAEAFBFAF89
:101E10006A9780918F02909190028A159B0579F1C3
:101E20006A964CAD5DAD6EAD7FAD6A97CE01865BB7
:101E30009F4F0E945C08BE01665B7F4FC8010E94F5
:101E40002E09B701C8010E941207C8010E94F008BC
:101E5000CE01865B9F4F0E94F008B0929002A09244
:101E60008F0284E00E94590280E390E00E941203F6
:101E7000B70182E793E00E94F5060E9485048091F5
:101E80008D0290918E028215930509F444C0B10130
:101E9000032C000C880B990B0E94D41B20E030E02F
:101EA00040EA51E40E94331C20E030EC4FE754E458
:101EB0000E94BC1D20E030E040E251E40E944F1D32
:101EC000AB01BC01CE01865B9F4F0E948908BE0119
:101ED000665B7F4FC8010E94B809B701C8010E9424
:101EE0001207C8010E94F008CE01865B9F4F0E9436
:101EF000F00830928E0220928D0284E00E945902F6
:101F000081E390E00E941203B70182E793E00E9410
:101F1000F5060E94850424E630E0D6010E94F61FF3
:101F2000A30192010E94F41C490180918B029091BF
:101F30008C028C159D0559F1BA01A901CE01865B71
:101F40009F4F0E945C08BE01665B7F4FC8010E94E4
:101F5000F808B701C8010E941207C8010E94F008E2
:101F6000CE01865B9F4F0E94F008D0928C02C092F7
:101F70008B0284E00E94590282E390E00E941203E7
:101F8000B70182E793E00E94F5060E9485046A96F5
:101F90006CAD7DAD8EAD9FAD6A970E94D41B2BEDCD
:101FA0003FE049EC50E40E94331C23EC30E046E86B
:101FB00051E30E94331C9B01AC0160E070E080E8BB
:101FC0009FE30E94BC1D2BE738E046E155E40E94E8
:101FD0004F1D20E030EF49E357E40E94331C2BEA09
:101FE00032EE4DE357E40E94BC1D20E030E046E1B4
:101FF00055E40E94501D0E942E1E9B01AC01AFEFC4
:10200000B3E00E94131D20E533EC40E050E00E9455
:10201000F41CCA01B9010E94D41B0E942E1ECB01E0
:102020000E94D50668969FAF8EAF6897C1010E9447
:10203000D506A6969FAF8EAFA697B401990C880BD4
:10204000990B0E94D41B20E030E048EC52E40E943F
:10205000BC1D20E030E0A9010E94501D0E94A30990
:1020600020E030E44CE956E40E94331C0E942E1E0E
:102070009B01AC01AFEFB3E00E94131D20E23EE4F0
:1020800040E050E00E94F41CCA01B9010E94D41B38
:102090000E942E1ECB010E94D506A8969FAF8EAF40
:1020A000A89781E40E9445045C018DE30E944504E9
:1020B0006C0189E30E9445044C0180918902909152
:1020C0008A028A159B05C1F120EB3DE1D5010E94F2
:1020D000F61FA30192010E94F41CBA01A901405706
:1020E0005E4F6F4F7F4FCE01865B9F4F0E945C0813
:1020F000BE01665B7F4FC8010E942E09B701C8016F
:102100000E941207C8010E94F008CE01865B9F4F13
:102110000E94F008B0928A02A092890284E00E9494
:10212000590280E290E00E941203B70182E793E037
:102130000E94F5060E948504809187029091880292
:102140008C159D0509F444C0B6010D2C000C880BBC
:10215000990B0E94D41B20E030E040EA51E40E9439
:10216000331C20E030EC4FE754E40E94BC1D20E01B
:1021700030E040E251E40E944F1DAB01BC01CE01B2
:10218000865B9F4F0E948908BE01665B7F4FC80136
:102190000E94B809B701C8010E941207C8010E9435
:1021A000F008CE01865B9F4F0E94F008D092880213
:1021B000C092870284E00E94590281E290E00E946E
:1021C0001203B70182E793E00E94F5060E9485049E
:1021D00024E630E0D4010E94F61FA30192010E9480
:1021E000F41C6E962CAF3DAF4EAF5FAF6E978091F3
:1021F0008502909186028815990559F1BA01A901C5
:10220000CE01865B9F4F0E945C08BE01665B7F4FDC
:10221000C8010E94F808B701C8010E941207C8014E
:102220000E94F008CE01865B9F4F0E94F0089092BA
:1022300086028092850284E00E94590282E290E048
:102240000E941203B70182E793E00E94F5060E9404
:10225000850420EB3DE1D5010E94F61FA301920108
:102260000E94F41CCA01B90160577E4F8F4F9F4FE7
:102270000E94D41B2BED3FE049EC50E40E94331C3C
:102280002BEF3FED4CE052E30E94331C9B01AC016D
:1022900060E070E080E89FE30E94BC1D2BE738E01F
:1022A00046E155E40E944F1D20E030EF49E357E43A
:1022B0000E94331C2BEA32EE4DE357E40E94BC1D12
:1022C00020E030E046E155E40E94501D0E942E1EA1
:1022D0009B01AC01AFEFB3E00E94131D20E533EC8E
:1022E00040E050E00E94F41CCA01B9010E94D41BD6
:1022F0000E942E1ECB010E94D506A0969FAF8EAFE6
:10230000A097C6010E94D506AA969FAF8EAFAA9746
:102310006C96AEADBFAD6C97BD01BB0F880B990B32
:102320000E94D41B20E030E048EC52E40E94BC1D27
:1023300020E030E0A9010E94501D0E94A30920E086
:1023400030E44CE955E40E94331C0E942E1E9B0190
:10235000AC01AFEFB3E00E94131D20E23EE440E089
:1023600050E00E94F41CCA01B9010E94D41B0E94D3
:102370002E1ECB010E94D506AC969FAF8EAFAC97B8
:1023800080E40E9445046C01809183029091840254
:102390008C159D0509F44DC027EB38E3D6010E944A
:1023A000F61FA30192010E94F41CBA01A901405A30
:1023B0005F4F6F4F7F4FCE01805B9F4F0E945C0845
:1023C000BE01605B7F4FCE01865B9F4F0E94D608A7
:1023D00060968EAD9FAD60978230910509F44CC533
:1023E00008F02FC56DE572E0019709F432C5B70119
:1023F000CE01865B9F4F0E941207CE01865B9F4FE6
:102400000E94F008CE01805B9F4F0E94F008D0929E
:102410008402C092830284E00E94590280E490E02A
:102420000E941203B70182E793E00E94F5060E9422
:10243000850427EB38E3D6010E94F61FA301920121
:102440000E94F41CCA01B901605A7F4F8F4F9F4F01
:102450000E94D41B2BED3FE049EC50E40E94331C5A
:1024600022EE3BEB4DE053E30E94331C9B01AC0199
:1024700060E070E080E89FE30E94BC1D20E030E057
:1024800045EA53E40E944F1D20E036E042E457E461
:102490000E94331C2DE434EF42E457E40E94BC1D3B
:1024A00020E030E045EA53E40E94501D0E942E1EB9
:1024B0009B01AC01AFEFB3E00E94131D20E533ECAC
:1024C00040E050E00E94F41CCA01B9010E94D41BF4
:1024D0000E942E1ECC24CA9483E0D82EC61AD70A96
:1024E000C6010E94D5066C969FAF8EAF6C9762E6D0
:1024F00072E08EE793E00E94F5060D2C000CEE08CA
:10250000FF08F7FEBFC46DE28EE793E00E94370636
:1025100022273327A9012C193D094E095F092A9664
:102520001FAE2A976801B0E2CB0ED11CCA01B901D7
:102530002AE030E040E050E00E941E1D605DF601A0
:1025400062936F01211531054105510579F7B601F7
:102550008EE793E00E94F5060E940A0784E40E9439
:1025600045046C018EE30E9445047C0188E30E94CF
:1025700045041C0180918102909182028C159D0579
:10258000E1F120EB3DE1D6010E94F61FA30192018B
:102590000E94F41CBA01A90140575E4F6F4F7F4F54
:1025A000CE01865B9F4F0E945C08BE01665B7F4F39
:1025B000C8010E942E09BE016F5F7F4FC8010E94B3
:1025C0001207C8010E94F008CE01865B9F4F0E944F
:1025D000F008D0928202C092810284E00E945902E7
:1025E00080E190E00E941203BE016F5F7F4F82E79F
:1025F00093E00E94F5060E94850480917F029091ED
:1026000080028E159F0509F448C0B7010F2C000CFD
:10261000880B990B0E94D41B20E030E040EA51E483
:102620000E94331C20E030EC4FE754E40E94BC1DB4
:1026300020E030E040E251E40E944F1DAB01BC01BC
:10264000CE01865B9F4F0E948908BE01665B7F4F6B
:10265000C8010E94B809BE016F5F7F4FC8010E9488
:102660001207C8010E94F008CE01865B9F4F0E94AE
:10267000F008F0928002E0927F0284E00E9459020A
:1026800081E190E00E941203BE016F5F7F4F82E7FD
:1026900093E00E94F5060E94850424E630E0D10113
:1026A0000E94F61FA30192010E94F41C490180912F
:1026B0007D0290917E028215930579F1BA01A901FC
:1026C000CE01865B9F4F0E945C08BE01665B7F4F18
:1026D000C8010E94F808BE016F5F7F4FC8010E94C9
:1026E0001207C8010E94F008CE01865B9F4F0E942E
:1026F000F00830927E0220927D0284E00E9459020E
:1027000082E190E00E941203BE016F5F7F4F82E77B
:1027100093E00E94F5060E94850420EB3DE1D6017E
:102720000E94F61FA30192010E94F41CCA01B90184
:1027300060577E4F8F4F9F4F0E94D41B2BED3FE081
:1027400049EC50E40E94331C2BEF3FED4CE052E388
:102750000E94331C9B01AC0160E070E080E89FE3C5
:102760000E94BC1D2BE738E046E155E40E944F1D56
:1027700020E030EF49E357E40E94331C2BEA32EEAD
:102780004DE357E40E94BC1D20E030E046E155E4F3
:102790000E94501D0E942E1E9B01AC01AFEFB3E0C2
:1027A0000E94131D20E533EC40E050E00E94F41C31
:1027B000CA01B9010E94D41B0E942E1ECB010E94A7
:1027C000D5061C01C7010E94D506AE969FAF8EAFFD
:1027D000AE97B401990C880B990B0E94D41B20E092
:1027E00030E048EC52E40E94BC1D20E030E0A9013A
:1027F0000E94501D0E94A30920E030E44CE955E4FA
:102800000E94331C0E942E1E9B01AC01AFEFB3E06F
:102810000E94131D20E23EE440E050E00E94F41CC0
:10282000CA01B9010E94D41B0E942E1ECB010E9436
:10283000D506E0969FAF8EAFE09785E40E944504F1
:102840007C0180917B0290917C028E159F0509F49A
:102850004DC026E239E0D7010E94F61FA301920184
:102860000E94F41CBA01A901465E5F4F6F4F7F4F73
:10287000CE01805B9F4F0E945C08BE01605B7F4F72
:10288000CE01865B9F4F0E94D60860968EAD9FADAD
:1028900060978230910509F410C3039709F422C3AD
:1028A000BE016F5F7F4FCE01865B9F4F0E94120774
:1028B000CE01865B9F4F0E94F008CE01805B9F4F48
:1028C0000E94F008F0927C02E0927B0284E00E9479
:1028D000590280E590E00E941203BE016F5F7F4FB6
:1028E00082E793E00E94F5060E94850426E239E023
:1028F000D7010E94F61FA30192010E94F41CCA0195
:10290000B901665E7F4F8F4F9F4F0E94D41B2BED06
:102910003FE049EC50E40E94331C29E539ED40E0EA
:1029200054E30E94331C9B01AC0160E070E080E83E
:102930009FE30E94BC1D23EC35E04CE054E40E9470
:102940004F1D20E030E241E457E40E94331C2CE1AB
:1029500033E145E457E40E94BC1D20E030E04CE048
:1029600054E40E94501D0E942E1E9B01AC01AFEF4B
:10297000B3E00E94131D20E533EC40E050E00E94DC
:10298000F41CCA01B9010E94D41B0E942E1ECB0167
:102990000E94D5064C0183E40E9445046C018FE33C
:1029A0000E9445047C018BE30E9445045C018091F8
:1029B000790290917A028C159D0509F44FC028EF99
:1029C00032E0D6010E94F61FA30192010E94F41C7E
:1029D000BA01A901485D5F4F6F4F7F4FCE01865B03
:1029E0009F4F0E945C0860968EAD9FAD60970297E6
:1029F000A1F462E572E0C8010E94DF08BE01665BD7
:102A00007F4FC8010E94F107BC01CE01865B9F4F3A
:102A10000E94BF08C8010E94F008BE016F5F7F4F8F
:102A2000CE01865B9F4F0E941207D0927A02C0921D
:102A3000790284E00E94590290E080E00E94120333
:102A4000BE016F5F7F4F82E793E00E94F5060E9410
:102A50008504CE01865B9F4F0E94F008809177022B
:102A6000909178028E159F0509F448C0B7010F2C8C
:102A7000000C880B990B0E94D41B20E030E040EA48
:102A800051E40E94331C20E030EC4FE754E40E94F4
:102A9000BC1D20E030E040E251E40E944F1DAB013C
:102AA000BC01CE01865B9F4F0E948908BE01665B18
:102AB0007F4FC8010E94B809BE016F5F7F4FC801F8
:102AC0000E941207C8010E94F008CE01865B9F4F4A
:102AD0000E94F008F0927802E092770284E00E946F
:102AE000590281E090E00E941203BE016F5F7F4FA8
:102AF00082E793E00E94F5060E94850424E630E018
:102B0000D5010E94F61FA30192010E94F41CA49615
:102B10002CAF3DAF4EAF5FAFA497809175029091FF
:102B200076028A159B0579F1BA01A901CE01865B6F
:102B30009F4F0E945C08BE01665B7F4FC8010E94E8
:102B4000F808BE016F5F7F4FC8010E941207C801DD
:102B50000E94F008CE01865B9F4F0E94F008B09261
:102B60007602A092750284E00E94590282E090E011
:102B70000E941203BE016F5F7F4F82E793E00E94C5
:102B8000F5060E94850428EF32E0D6010E94F61F68
:102B9000A30192010E94F41CCA01B901685D7F4F34
:102BA0008F4F9F4F0E94D41B2BED3FE049EC50E428
:102BB0000E94331C2AEF37E140EB53E30E94331CA1
:102BC0009B01AC0160E070E080E89FE30E94BC1DC7
:102BD0000E942E1E9B01AC01AFEFB3E00E94131DBB
:102BE00020E533EC40E050E00E94F41CCA01B9013A
:102BF0000E94D41B0E942E1ECB010E94D5066C01A0
:102C0000C7010E94D5067C01A296EEADFFADA2974A
:102C1000BF01FF0F880B990B0E94D41B20E030E00E
:102C200048EC52E40E94BC1D20E030E0A9010E9463
:102C3000501D0E94A30920E030E44CE955E40E94B5
:102C4000331C0E942E1E9B01AC01AFEFB3E00E942B
:102C5000131D20E23EE440E050E00E94F41CCA0153
:102C6000B9010E94D41B0E942E1ECB010E94D506E2
:102C70005C0160E085E30E94A70384E591E00E9487
:102C80005602C5010E94D80661E070E080E090E045
:102C90000E946C05C6010E94D80661E070E080E0E9
:102CA00090E00E946C05C6010E94D80661E070E0C9
:102CB00080E090E00E946C05C7010E94D80661E0A8
:102CC00070E080E090E00E946C05C4010E94D8068C
:102CD00061E070E080E090E00E946C05C4010E9419
:102CE000D80661E070E080E090E00E946C05E0961C
:102CF0008EAD9FADE0970E94D80661E070E080E065
:102D000090E00E946C05C1010E94D80661E070E06D
:102D100080E090E00E946C05C1010E94D80661E04D
:102D200070E080E090E00E946C05AE968EAD9FADA5
:102D3000AE970E94D80661E070E080E090E00E94CB
:102D40006C056C968EAD9FAD6C970E94D80661E0C5
:102D500070E080E090E00E946C056C968EAD9FADB7
:102D60006C970E94D80661E070E080E090E00E94DD
:102D70006C05AC968EAD9FADAC970E94D80661E015
:102D800070E080E090E00E946C05A0968EAD9FAD53
:102D9000A0970E94D80661E070E080E090E00E9479
:102DA0006C05A0968EAD9FADA0970E94D80661E0FD
:102DB00070E080E090E00E946C05AA968EAD9FAD19
:102DC000AA970E94D80661E070E080E090E00E943F
:102DD0006C05A8968EAD9FADA8970E94D80661E0BD
:102DE00070E080E090E00E946C0568968EAD9FAD2B
:102DF00068970E94D80661E070E080E090E00E9451
:102E00006C0568968EAD9FAD68970E94D80661E00C
:102E100070E080E090E00E946C05A6968EAD9FADBC
:102E2000A6970E94D80661E070E080E090E00E94E2
:102E30006C0561E085E30E94A7030E94A4060C9440
:102E4000FA0D83309105D9F062E572E0049709F03C
:102E5000CECAC8010E94DF08BE01665B7F4FC80171
:102E60000E94F107BC01CE01865B9F4F0E94BF0804
:102E7000C8010E94F008BBCA6EE572E0EACF6FE5B8
:102E800072E0E7CFA70196012A961FAE2A97680144
:102E9000F0E2CF0ED11CCA01B9012AE030E040E0D7
:102EA00050E00E941E1D605DD6016E936D012115DC
:102EB00031054105510579F74ACB6FE572E0C8014C
:102EC0000E94DF08BE01665B7F4FC8010E94F107C8
:102ED000BC01CE01865B9F4F0E94BF08C8010E94C3
:102EE000F008DECC62E572E0EACFEF920F931F9319
:102EF000CF93DF93E80134E047FD34E1042E000C6A
:102F0000550B57FF03C0519541955109E32E022FF0
:102F1000242FAE010E94ED17CE01DF91CF911F91BA
:102F20000F91EF900895662777270C946619BB27B9
:102F30004A3031F4992322F4BDE2909581959F4F58
:102F40000C94D417BB272A3051F4992342F4BDE2E4
:102F500090958095709561957F4F8F4F9F4F0C9402
:102F6000B217BB27FA01A62F6217710581059105DB
:102F7000330B30FB66F0AA27660F771F881F991F57
:102F8000AA1FA21710F0A21B63953850A9F7A05DE5
:102F9000AA3308F0A95DA19336F7B111B19310825D
:102FA000CA010C94BD1BBB27FB015527AA27880F1C
:102FB000991FAA1FA41710F0A41B83955051B9F7AD
:102FC000A05DAA3308F0A95DA193009779F7B1112C
:102FD000B1931192CB010C94BD1B8F929F92AF9233
:102FE000BF92CF92DF92EF92FF920F931F93CF93F6
:102FF000DF9300D000D000D0CDB7DEB76A01F22E4B
:10300000B02E102FFBE3AF2EA01608F41BE31F5FBA
:10301000012F27E0AE014F5F5F4F0E94C41ABC0131
:103020008981982F9970913009F44EC09BE2E1FCA0
:1030300004C09E2D9170E0FC49C05E2D5071E82FB8
:10304000E87083FF55C084E0911101C083E0EF2D4B
:10305000E81B8F1508F0E0E0D6018E2F20E2552303
:10306000C9F1992329F0D6019C93C60101966C0100
:1030700096012D5F3F4FE2FE33C08EE4D6018C9364
:1030800091E411969C93119712968C93D9018E2FEF
:1030900090E281112AC0E20FF32FF11D10828EEF12
:1030A0009FEF29960FB6F894DEBF0FBECDBFDF911C
:1030B000CF911F910F91FF90EF90DF90CF90BF9035
:1030C000AF909F908F9008959DE2B7CF90E2B5CFDB
:1030D0002D9381508111FCCFCE0ED11CE0E0C1CFE9
:1030E0008EE6D6018C9391E6CCCF9D938150D1CFC3
:1030F000482F447082FF3DC084E0911101C083E0FD
:103100008F1510F4EF2DE81BD6018E2F20E25523EA
:1031100009F1992329F0D6019C93C60101966C010F
:1031200096012D5F3F4FE2FE1BC089E4D6018C93D0
:103130008EE411968C93119786E412968C93D901A4
:103140008E2F90E2882309F4A6CF9D938150FACF69
:103150002D9381508111FCCFCE0ED11CE0E0D9CF50
:1031600089E6D6018C938EE611968C93119786E6AC
:10317000E4CF9B0177FF02C030E020E0A1E0B0E0A7
:10318000911102C0B0E0A0E0F9013196AE0FBF1F6F
:103190008B2C912CBB2009F461C05401EFEFAE1AC7
:1031A000BE0AAA0DBB1DFA161B0619F014F04F2D0E
:1031B0004A1B511188C0E3FC59C07601A42FB0E22C
:1031C000A1114FC0C40ED11C992309F45BC040E08B
:1031D000D6011196F60190836D01552309F448C07C
:1031E000012F060F9A81582F507184FF03C091332D
:1031F00009F4015010160CF047C0093008F008E03F
:10320000EEE2FE2E5B01A01AB10885019194819433
:1032100091082F3F320729F4D601FC92F60131962E
:103220006F016217730794F1021713077CF5DB0136
:10323000A21BB30BAA24A394B12CAC0EBD1EAA0DE5
:10324000BB1D11968C9121503109D601119628157C
:103250003905F4F0F60180836D01DBCFB12CA12C90
:10326000A0CFF701B1937F01A150AACF9111B0CFA8
:10327000D601942F50E302C05D9391509111FCCF81
:10328000C40ED11C40E0ACCF01E0BACF80E3DBCF6D
:103290006217730731F4963388F4953311F455238C
:1032A00069F0F6018083FD01842F90E2811108C04E
:1032B000A40FB11D1C9290E080E0F3CE81E3F1CF2A
:1032C00091938150F3CF911183CF8ACF8F929F92A8
:1032D000AF92BF92CF92DF92EF92FF920F931F9324
:1032E000CF93DF935C017B016115710519F0DB0160
:1032F0008D939C9385010F5F1F4FF501D0818D2F1A
:1033000090E00E949C1B6C01892BB9F5DD32B9F568
:103310000F5F1F4FD5011196DC91C1E05801F1E01C
:10332000AF1AB10843E050E066EF71E0C5010E94BA
:10333000A51B892B69F5680182E0C80ED11C45E008
:1033400050E061EF71E0C6010E94A51B892B21F4BA
:10335000680197E0C90ED11CE114F10419F0D701FE
:10336000CD92DC9260E070E080E89FEFC111FFC079
:1033700060E070E080E89FE7FAC05801BBCFDB3225
:1033800029F485010E5F1F4FF501D181C0E0C6CF42
:1033900043E050E06EEE71E0C5010E94A51B892B51
:1033A000E9F0F80110E000E020E030E0A9015F0161
:1033B000B0ED8B2E8D0E89E08815C8F19C2E689497
:1033C00091F88C2F8870C2FF16C0811102C00F5F68
:1033D0001F4F3196D501DC91C92DE9CFE114F104DD
:1033E00029F00E5F1F4FF7011183008360E070E04A
:1033F00080EC9FE7BCC0882311F001501109A5E0C3
:10340000B0E00E94131D9B01AC01220F331F441F2B
:10341000551F280D311D411D511D283999E93907C6
:10342000490799E15907A8F2C6609C2ED2CFAEEFAA
:103430008A1206C0C3FD3CC09C2E689493F8C9CF85
:10344000DF7DD534A9F580818D3239F4C061DF018B
:103450001296818162E070E006C0DF018B32C1F319
:10346000119661E070E080535D01A61AB70A8A30B8
:10347000F8F4E0E8CE16ECE0DE065CF4B601660F88
:10348000771F660F771FC60ED71ECC0CDD1CC80E2B
:10349000D11C5D01FFEFAF1ABF0A8C9180538A30B7
:1034A000A8F1C4FF03C0D194C194D1080C0D1D1D17
:1034B000C1FF09C0E114F10431F081E0A81AB1089C
:1034C000D701AD92BC92CA01B9010E94D21BC37050
:1034D000C33009F490584B015C0120E030E0A901B1
:1034E0000E94CD1B882309F440C0C5E2D2E017FF3B
:1034F00005C0119501951109CDE0D2E06E01B8E14A
:10350000CB1AD10880E2E82EF12C0FC0D501B1CF43
:10351000FE0125913591459154910E191F09C50160
:10352000B4010E94331C4B015C01D501C4010E158E
:103530001F0574F72497F594E794CC16DD06A9F7D8
:103540008A2F880F8B2F881F8F3F49F020E030E0B3
:10355000A901C501B4010E94CD1B811106C082E200
:1035600090E090931C0480931B04C501B401DF918B
:10357000CF911F910F91FF90EF90DF90CF90BF9070
:10358000AF909F908F900895283008F027E0332760
:10359000DA01990F311D87FD916000966105710573
:1035A00039F432602E5F3D9330E32A95E1F70895B8
:1035B0009F3F30F080387105610509F03C5F3C5F4A
:1035C0003D93913008F08068911DDF93CF931F9356
:1035D0000F93FF92EF92192F987F9695E92F96956A
:1035E0009695E90FFF27ED57FD4F99273327EE24D6
:1035F000FF24A701E70105900894079428F4360FEB
:10360000E71EF81E491F511D660F771F881F991F5F
:103610000694A1F70590079428F4E70EF81E491FB9
:10362000561FC11D770F881F991F661F0694A1F7AB
:103630000590079428F4F80E491F561FC71FD11D87
:10364000880F991F661F771F0694A1F705900794AE
:1036500020F4490F561FC71FD81F990F661F771FE9
:10366000881F0694A9F784911095177041F0D6959C
:10367000C79557954795F794E7941A95C1F7E9E2EE
:10368000F2E06894159015913591659195910590AA
:103690007FE27395E118F10A430B560BC90BD00971
:1036A000C0F7E10CF11E431F561FC91FD01D7EF449
:1036B000703311F48A95E6CFE894015030F0080F8A
:1036C0000AF40027021708F4202F2395022F7A33DB
:1036D00028F079E37D932A95E9F710C07D932A9528
:1036E00089F6069497956795379517951794E1187D
:1036F000F10A430B560BC90BD00998F023957E9124
:1037000073957A3308F070E37C932013B8F77E91B9
:1037100070617D9330F0839571E37D9370E32A951A
:10372000E1F71124EF90FF900F911F91CF91DF915E
:10373000992787FD9095089591110C94A01C8032D3
:1037400019F089508550C8F70895FB01DC014150FC
:10375000504088F08D9181341CF08B350CF4805EE4
:10376000659161341CF06B350CF4605E861B611151
:1037700071F3990B0895881BFCCFDC01FC01672FC6
:1037800071917723E1F7329704C07C916D93708338
:103790006291AE17BF07C8F308950E940F1C08F48A
:1037A00081E00895E89409C097FB3EF490958095D8
:1037B000709561957F4F8F4F9F4F9923A9F0F92FF7
:1037C00096E9BB279395F695879577956795B79575
:1037D000F111F8CFFAF4BB0F11F460FF1BC06F5F5B
:1037E0007F4F8F4F9F4F16C0882311F096E911C06D
:1037F000772321F09EE8872F762F05C0662371F08E
:1038000096E8862F70E060E02AF09A95660F771FA1
:10381000881FDAF7880F9695879597F90895990F7D
:103820000008550FAA0BE0E8FEEF16161706E8078A
:10383000F907C0F012161306E407F50798F0621BAB
:10384000730B840B950B39F40A2661F0232B242B80
:10385000252B21F408950A2609F4A140A6958FEF9F
:10386000811D811D08950E94461C0C94BA1C0E9463
:10387000AC1C38F00E94B31C20F0952311F00C947E
:10388000A31C0C94A91C11240C94EE1C0E94CB1CAC
:1038900070F3959FC1F3950F50E0551F629FF001A3
:1038A000729FBB27F00DB11D639FAA27F00DB11DBC
:1038B000AA1F649F6627B00DA11D661F829F222745
:1038C000B00DA11D621F739FB00DA11D621F839FCC
:1038D000A00D611D221F749F3327A00D611D231FA2
:1038E000849F600D211D822F762F6A2F11249F57F0
:1038F00050409AF0F1F088234AF0EE0FFF1FBB1FF3
:10390000661F771F881F91505040A9F79E3F5105B1
:1039100080F00C94A31C0C94EE1C5F3FE4F3983EE3
:10392000D4F3869577956795B795F795E7959F5F5B
:10393000C1F7FE2B880F911D9695879597F90895ED
:1039400099278827089597F99F6780E870E060E0DD
:1039500008959FEF80EC089500240A941616170628
:1039600018060906089500240A9412161306140670
:1039700005060895092E0394000C11F4882352F0D3
:10398000BB0F40F4BF2B11F460FF04C06F5F7F4F8B
:103990008F4F9F4F089557FD9058440F551F59F072
:1039A0005F3F71F04795880F97FB991F61F09F3F2C
:1039B00079F087950895121613061406551FF2CF55
:1039C0004695F1DF08C0161617061806991FF1CFA5
:1039D00086957105610508940895E894BB276627CC
:1039E0007727CB0197F90895052E97FB1EF40094D5
:1039F0000E940B1D57FD07D00E941E1D07FC03D01F
:103A00004EF40C940B1D50954095309521953F4FE9
:103A10004F4F5F4F089590958095709561957F4FBA
:103A20008F4F9F4F08950E94401DA59F900DB49FFA
:103A3000900DA49F800D911D11240895A1E21A2ECE
:103A4000AA1BBB1BFD010DC0AA1FBB1FEE1FFF1F42
:103A5000A217B307E407F50720F0A21BB30BE40B92
:103A6000F50B661F771F881F991F1A9469F76095D9
:103A70007095809590959B01AC01BD01CF01089593
:103A8000A29FB001B39FC001A39F700D811D11249F
:103A9000911DB29F700D811D1124911D08955058E4
:103AA000BB27AA270E94671D0C94BA1C0E94AC1C5D
:103AB00038F00E94B31C20F039F49F3F19F426F42B
:103AC0000C94A91C0EF4E095E7FB0C94A31CE92FC1
:103AD0000E94CB1C58F3BA17620773078407950737
:103AE00020F079F4A6F50C94ED1C0EF4E0950B2E65
:103AF000BA2FA02D0B01B90190010C01CA01A00140
:103B00001124FF27591B99F0593F50F4503E68F19A
:103B10001A16F040A22F232F342F4427585FF3CFDB
:103B2000469537952795A795F0405395C9F77EF4AC
:103B30001F16BA0B620B730B840BBAF09150A1F0F5
:103B4000FF0FBB1F661F771F881FC2F70EC0BA0F7B
:103B5000621F731F841F48F4879577956795B79503
:103B6000F7959E3F08F0B0CF9395880F08F09927FE
:103B7000EE0F9795879508950E94D01D0C94BA1C5E
:103B80000E94B31C58F00E94AC1C40F029F45F3F27
:103B900029F00C94A31C51110C94EE1C0C94A91C3C
:103BA0000E94CB1C68F39923B1F3552391F3951B25
:103BB000550BBB27AA2762177307840738F09F5F4E
:103BC0005F4F220F331F441FAA1FA9F335D00E2EBB
:103BD0003AF0E0E832D091505040E695001CCAF728
:103BE0002BD0FE2F29D0660F771F881FBB1F2617EB
:103BF00037074807AB07B0E809F0BB0B802DBF01C2
:103C0000FF2793585F4F3AF09E3F510578F00C9490
:103C1000A31C0C94EE1C5F3FE4F3983ED4F386950E
:103C200077956795B795F7959F5FC9F7880F911DB1
:103C30009695879597F90895E1E0660F771F881F9D
:103C4000BB1F621773078407BA0720F0621B730B50
:103C5000840BBA0BEE1F88F7E09508950E94351E7D
:103C60006894B1110C94EE1C08950E94D31C88F046
:103C70009F5798F0B92F9927B751B0F0E1F0660F30
:103C8000771F881F991F1AF0BA95C9F714C0B13071
:103C900091F00E94ED1CB1E008950C94ED1C672F8B
:103CA000782F8827B85F39F0B93FCCF386957795A0
:103CB0006795B395D9F73EF4909580957095619589
:103CC0007F4F8F4F9F4F08950E940F1C08F48FEF76
:103CD0000895FA01EE0FFF1F309621053105A1F17D
:103CE0006115710561F48038BFE39B0749F1689461
:103CF0009038810561F08038BFEF9B0741F0992330
:103D00004AF5FF3FE1053105210519F1E8940894D2
:103D1000E795D901AA2329F4AB2FBE2FF85FD0F382
:103D200010C0FF5F70F4A695E0F7F73950F019F076
:103D3000FF3A38F49F779F930DD00F9007FC90586F
:103D4000089546F00C94A91C60E070E080E89FE3C1
:103D500008954FE79F775F934F933F932F930E9470
:103D6000641F2F913F914F915F910E94331C0C94DF
:103D7000C11E29F416F00C94A31C0C94ED1C0C9499
:103D8000A91C0E94D31CA8F39638A0F707F80F923D
:103D9000E8942BE33AEA48EB5FE70E94491C0F9254
:103DA0000F920F924DB75EB70F920E94AC1FE4EED8
:103DB000F0E00E94F31E4F915F91EF91FF91E59526
:103DC000EE1FFF1F49F0FE57E0684427EE0F441F27
:103DD000FA95E1F74195550B0E94261F0F9007FEBB
:103DE0000C941A1F0895DF93CF931F930F93FF92A4
:103DF000EF92DF927B018C01689406C0DA2EEF010E
:103E00000E94461CFE01E894A591259135914591AB
:103E10005591A6F3EF010E94671DFE019701A801CD
:103E2000DA9469F7DF90EF90FF900F911F91CF9197
:103E3000DF9108959B01AC0160E070E080E89FE3B2
:103E40000C94BC1D0C94A31C0C94E01F0E94D31C6A
:103E5000D8F39923C9F3940F511DA3F39150504007
:103E600094F059F0882332F0660F771F881F915025
:103E70005040C1F79E3F51052CF7880F911D969534
:103E8000879597F908955F3FACF0983E9CF0BB276B
:103E9000869577956795B79508F4B1609395C1F7C6
:103EA000BB0F58F711F460FFE8CF6F5F7F4F8F4F64
:103EB0009F4FE3CF0C94EE1C16F00C94E01F0C9473
:103EC000A91C68940C94A31C0E94D31CA8F39923EA
:103ED000C1F3AEF3DF93CF931F930F93FF92C92FDC
:103EE000DD2788232AF02197660F771F881FDAF7CE
:103EF00020E030E040E85FEB9FE3883920F0803E2F
:103F000038F021968F770E94501DECE0F1E004C05C
:103F10000E94501DE9E3F1E00E94F31E8B01BE01F7
:103F2000EC01FB2E6F5771097595771F880B990B64
:103F30000E94D41B28E132E741E35FE30E94461C64
:103F4000AF2D9801AE01FF900F911F91CF91DF919E
:103F50000E94671D0C94BA1CFA01DC01AA0FBB1F5A
:103F60009B01AC01BF5728F4222733274427507800
:103F700020C0B75190F4AB2F002446953795279574
:103F8000011CA395D2F3002071F0220F331F441FB0
:103F9000B395DAF30ED00C944F1D61307105A0E893
:103FA0008A07B94630F49B01AC016627772788273A
:103FB0009078309621F02083318342835383089593
:103FC0009F3F31F0915020F4879577956795B7958D
:103FD000880F911D9695879597F90895EE0FFF1F0D
:103FE000881F8BBF0790F691E02D19940E94401D09
:103FF000B7FF0895821B930B08950F931F93CF93E0
:10400000DF938230910510F482E090E0E0911F048C
:10401000F091200430E020E0B0E0A0E0309799F487
:104020002115310509F44AC0281B390B243031050C
:10403000D8F58A819B816115710589F1FB01938314
:104040008283FE0111C04081518102811381481792
:104050005907E0F04817590799F4109761F0129644
:104060000C93129713961C933296CF01DF91CF9148
:104070001F910F91089500931F0410932004F4CF13
:104080002115310551F04217530738F0A901DB0122
:104090009A01BD01DF01F801C1CFEF01F9CF909383
:1040A000200480931F04CDCFFE01E20FF31F819304
:1040B00091932250310939832883D7CF20911D0451
:1040C00030911E04232B41F420910202309103020F
:1040D00030931E0420931D042091000230910102B0
:1040E0002115310541F42DB73EB74091040250919E
:1040F0000502241B350BE0911D04F0911E04E2170C
:10410000F307A0F42E1B3F0B2817390778F0AC01FA
:104110004E5F5F4F2417350748F04E0F5F1F5093D7
:104120001E0440931D04819391939FCFF0E0E0E043
:104130009CCFCF93DF930097E9F0FC013297138275
:104140001282A0911F04B0912004ED0130E020E024
:104150001097A1F420813181820F931F20911D04BB
:1041600030911E042817390709F061C0F0931E042E
:10417000E0931D04DF91CF910895EA01CE17DF0788
:10418000E8F54A815B819E0141155105B1F7E901CE
:10419000FB83EA8349915991C40FD51FEC17FD07A2
:1041A00061F4808191810296840F951FE9019983C2
:1041B0008883828193819B838A83F0E0E0E012967A
:1041C0008D919C9113970097B9F52D913C91119782
:1041D000CD010296820F931F20911D0430911E0481
:1041E0002817390739F6309751F5109220041092AC
:1041F0001F04B0931E04A0931D04BCCFD383C283BD
:1042000040815181840F951FC817D90761F44E5F13
:104210005F4F88819981480F591F518340838A815C
:104220009B81938382832115310509F0B0CFF093F0
:104230002004E0931F049ECFFD01DC01C0CF138258
:104240001282D7CF4F925F926F927F928F929F92FE
:10425000AF92BF92CF92DF92EF92FF920F931F9394
:10426000CF93DF938C01009799F4CB01DF91CF912D
:104270001F910F91FF90EF90DF90CF90BF90AF9084
:104280009F908F907F906F905F904F900C94FD1F48
:10429000FC01E60FF71F9C0122503109E217F307DA
:1042A00008F4AEC0D901CD91DC911197C617D7079C
:1042B00020F1C530D10578F0CE0104978617970715
:1042C00050F0C61BD70B2297C193D1936D937C936B
:1042D000CF010E949920C801DF91CF911F910F91CA
:1042E000FF90EF90DF90CF90BF90AF909F908F9016
:1042F0007F906F905F904F9008955B01AC1ABD0A5C
:104300004C018C0E9D1EA0911F04B0912004512CD5
:10431000412CF12CE12C109731F580911D049091E6
:104320001E048815990509F05CC04616570608F06A
:1043300058C08091000290910102009741F48DB71E
:104340009EB74091040250910502841B950BE8171B
:10435000F90708F055C0F0931E04E0931D04F9011D
:1043600071836083B8CF8D919C91119712966C9058
:10437000129713967C901397A815B90559F56C01FF
:1043800042E0C40ED11CCA14DB0420F1AC014A196E
:104390005B09DA011296159780F06282738251836D
:1043A0004083D9016D937C93E114F10471F0D7013E
:1043B0001396FC93EE9312978ECF22968C0F9D1F2F
:1043C000F90191838083F301EFCFF0932004E09310
:1043D0001F0481CF4816590608F42C017D01D30132
:1043E0009ACFCB010E94FD1F7C01009749F0AE01DE
:1043F000B8010E940322C8010E94992087016BCF57
:1044000010E000E068CFFB01DC0102C001900D92DA
:1044100041505040D8F70895FB01DC018D91019087
:1044200080190110D9F3990B0895FB01DC0101906B
:104430000D920020E1F70895FB01DC01415050404E
:1044400048F001900D920020C9F701C01D92415023
:0A4450005040E0F70895F894FFCF04
:10445A0000002104800000000000E302B602CB0540
:10446A008C02AF029C028D020000000037069E05F6
:10447A00CE058406FF05DD05F1050D0A00467265C5
:10448A007175656E63793A20002B002B31302E301E
:10449A00002B3130002D31302E30002D3130002BE1
:1044AA00302E30002D302E300020202000303030C9
:1044BA0030004C4F572050415353205749504552D2
:0444CA003A20000094
:00000001FF
