:100000000C9445020C9476020C9476020C947602C1
:100010000C9476020C9476020C9476020C94760280
:100020000C9476020C9476020C9476020C94760270
:100030000C9476020C9476020C9476020C94760260
:100040000C9476020C9476020C9476020C94760250
:100050000C9476020C9476020C9476020C94ED3992
:100060000C9476020C94613A0C94373A0C94760214
:100070000C9476020C9476020C9476020C94760220
:100080000C9476020C9476020C9476020C94760210
:100090000C9476020C9476020C9476020C94C93877
:1000A0000C9476020C9476020C9476020C947602F0
:1000B0000C9476020C9476020C9476020C947602E0
:1000C0000C9476020C9476020C9476020C947602D0
:1000D0000C9476020C9476020C9476020C947602C0
:1000E0000C94760207634236B79BD8A71A39685634
:1000F00018AEBAAB558C1D3CB7CC5763BD6DEDFD4A
:10010000753EF6177231BF000000803F0800000006
:10011000BE922449123EABAAAA2ABECDCCCC4C3EFC
:1001200000000080BEABAAAAAA3E00000000BF00EB
:100130000000803F0000000000084178D3BB4387E7
:10014000D1133D190E3CC3BD4282AD2B3E68EC82FB
:1001500076BED98FE1A93E4C80EFFFBE01C4FF7F80
:100160003F00000000000C9449080C9437080C94E0
:100170008F040C94B2180C94CE030C9443030C948B
:10018000D5030C946B080C9413030C945E040C942C
:1001900050380C94F0080C94EA130C94973A0C9491
:1001A00079040C9487040C9409080C9466040C944C
:1001B00033030C943A080C94A3080C946F040C9429
:1001C00081040C9462040C9436080C94D9130C949A
:1001D000BB030C9495040C9481030C9462110C9451
:1001E000CA110C94AC030C947D040C945D080C941F
:1001F00080030C9494040C9435120C945A040C94BF
:1002000073040C946C110C9499040C9469040C9470
:10021000AB030C9471180C948B040C9402040C9492
:1002200054044E414E494E495459494E46CDCCCCCA
:100230003D0AD7233C17B7D13877CC2B329595E6BA
:10024000241FB14F0A000020410000C84200401C9A
:100250004620BCBE4CCA1B0E5AAEC59D7400407AE7
:1002600010F35A00A0724E18090010A5D4E800003F
:10027000E87648170000E40B54020000CA9A3B00DD
:100280000000E1F505000080969800000040420F54
:10029000000000A08601000000102700000000E818
:1002A00003000000006400000000000A00000000DD
:1002B000000100000000002C76D888DC674F08237E
:1002C000DFC1DFAE59E1B1B796E5E3E453C63AE6E4
:1002D00051997696E8E6C28426EB898C9B62ED40C4
:1002E0007C6FFCEFBC9C9F40F2BAA56FA5F4900513
:1002F0005A2AF75C936B6CF9676DC11BFCE0E40D47
:1003000047FEF520E6B500D0ED902E03009435773A
:10031000050080841E080000204E0A000000C80C62
:10032000333333330F986E12831141EF8D211489CB
:100330003BE65516CFFEE6DB18D1844B381BF77C25
:100340001D901DA4BBE424203284725E228100C96A
:10035000F124ECA1E53D2700002200250028002B18
:10036000002E003100340002010000050108010BDD
:1003700001000020002300260029002C002F00325D
:10038000000001000003010601090100000A0B0240
:10039000090C0D0E08070304010000000000000016
:1003A000000000000000000000000000000000004D
:1003B000000000000000001211100000000000000A
:1003C000000000000000000000000000000000002D
:1003D0000000002100240027002A002D00300033F7
:1003E0000001010000040107010A010102102020A0
:1003F0000808102040102040800201020108040279
:1004000001010204081020408080402010080402EE
:100410000180040201804020100804020108040247
:10042000010102040810204080010204081020404D
:100430008005050505070508080808020202020AEA
:100440000A08080404040401010101010101010377
:1004500003030303030303040707070C0C0C0C0C32
:100460000C0C0C0202020206060606060606060B25
:100470000B0B0B0B0B0B0B7C3C3E5E2B3D3F2F5BAA
:100480005D3B2C2A225C0000973A11241FBECFEF5F
:10049000D1E2DEBFCDBF00E00CBF14E0A0E0B2E0CF
:1004A000E0E5F4E900E00BBF02C007900D92AE3822
:1004B000B107D9F729E0AEE8B4E001C01D92AD362E
:1004C000B207E1F712E0C5E4D2E000E006C02197F0
:1004D0000109802FFE010E94D147C434D10780E07A
:1004E0000807A9F70E94733B0C94264A0C9400005D
:1004F000CF93DF93FC018281938190935F08809377
:100500005E0884819581A681B7818093600890936D
:100510006108A0936208B093630880859185A285E5
:10052000B3858093640890936508A0936608B093A0
:100530006708DF011C96CF014996C8E6D8E02D91E7
:100540002993A817B907D9F7818D928D90937608D2
:10055000809375088CE598E0DF91CF91089591E044
:1005600090934205809364051092430510926505AF
:1005700008958EBD00000DB407FEFDCF8EB5089521
:100580008FEF0C94B902FC01DB0112968D919C91C6
:100590001397938382838EE092E0918380831496F5
:1005A0008C911497848315968C9115978583169654
:1005B0004D915D916D917C9119974683578360872A
:1005C00071871A964D915D916D917C911D9742872F
:1005D0005387648775871E964D915D916D917C91CF
:1005E000519746875787608B718B52968C915297A3
:1005F000828B53964D915D916D917C915697438B73
:10060000548B658B768B57964D915D916D917C9156
:100610005A97478B508F618F728F5B968D919C910B
:10062000948F838F0895DC015996ED91FC9130975A
:10063000B9F083899489A589B689428553856485F3
:100640007585841B950BA60BB70B811520E89207C7
:10065000A105B10538F08FEF9FE7A0E0B0E0089565
:1006600090E080E00895DC0159968D919C9100976F
:1006700039F0DC01ED91FC910480F581E02D1994B5
:1006800090E080E00895CF93DF931F92CDB7DEB75F
:100690006983DC01ED91FC910280F381E02D41E062
:1006A00050E0BE016F5F7F4F19950F90DF91CF91A2
:1006B00008952091CB04260F3327331F21323105B3
:1006C000ECF420913C05FC0190E080E0243069F0DE
:1006D00082E00895A091CB042191AC0147555B4F76
:1006E000A40FB52FB11D2C930196861798F3809116
:1006F000CB04680F6093CB0480E0089581E00895F7
:100700000895CF93DF93EC01E091A604F091A70444
:100710003097F1F09091A5048091A4049817C0F04F
:1007200090E0292F30E02617370754F4DE01A20F9E
:10073000B31F4C912A503B4FD9014C939F5FF1CF8F
:100740001092A5046093A404CB01DF91CF9119947A
:10075000DF91CF9108950895E091A5048091A404BC
:10076000E81730F4F0E0EA50FB4F808190E0089504
:100770008FEF9FEF08959091A5048091A4042FEF2F
:100780003FEF981748F4E92FF0E0EA50FB4F208143
:1007900030E09F5F9093A504C90108958091A4045F
:1007A0009091A504891B990B0895CF92DF92EF9247
:1007B000FF920F931F93CF93DF937C01CB018A01AC
:1007C00020914205222389F0EB016B01C40ED51E56
:1007D000CC15DD0569F06991D701ED91FC9101908F
:1007E000F081E02DC7011995F3CF642F0E945903C2
:1007F000C801DF91CF911F910F91FF90EF90DF9093
:10080000CF900895CF93DF931F92CDB7DEB7698362
:10081000209142052223F9F020916505203258F0FD
:1008200021E030E0FC013383228390E080E00F90F0
:10083000DF91CF91089580914305E82FF0E0EC5BC4
:10084000FA4F998190838F5F80934305809365056C
:1008500081E090E0ECCF61E0CE0101960E94590367
:10086000F7CF682F83EB97E00C940204815082311C
:1008700008F05AC0E82FF0E08827EE5BFB4F8F4F5F
:100880000C94D1476204660454045A045E04940430
:1008900069046F04730479047D04810487048B0464
:1008A00094048F0495049904809180008F7780933D
:1008B00080000895809180008F7DF9CF8091800025
:1008C000877FF5CF84B58F7784BD089584B58F7DFC
:1008D000FBCF8091B0008F778093B0000895809116
:1008E000B0008F7DF9CF809190008F77809390003A
:1008F0000895809190008F7DF9CF80919000877F3F
:10090000F5CF8091A0008F778093A000089580910B
:10091000A0008F7DF9CF8091A000877FF5CF8091D7
:1009200020018F77809320010895809120018F7D91
:10093000F9CF80912001877FF5CFCF93DF93282FC8
:1009400030E0F901E557FC4F8491F901E551FC4F86
:10095000D491F901EF5CFB4FC491CC23A1F081113C
:100960000E943604EC2FF0E0EE0FFF1FEF58FC4F13
:10097000A591B491EC91ED2381E090E009F480E041
:10098000DF91CF91089580E090E0FACF1F93CF934D
:10099000DF93282F30E0F901E557FC4F8491F901EE
:1009A000E551FC4FD491F901EF5CFB4FC491CC238E
:1009B000A9F0162F81110E943604EC2FF0E0EE0F03
:1009C000FF1FE95AFC4FA591B4918FB7F894EC91B1
:1009D000111108C0D095DE23DC938FBFDF91CF913A
:1009E0001F910895DE2BF8CF10923C0581E0809393
:1009F0003B051092160561E084E10E94C60461E0A7
:100A000085E10E94C604E9EBF0E080818E7F80835F
:100A100080818D7F808388E48093B80085E4809313
:100A2000BC000895CF93DF9391E09093A8048823AE
:100A3000B9F0C091B800D091BA008091BC008A7B17
:100A40008093BC0060E084E10E94C60460E085E120
:100A50000E94C6040E94F404D093BA00C093B80068
:100A6000DF91CF910895CF93DF9390E0FC01E551A2
:100A7000FC4F24918F5C9B4FFC0184918823D1F023
:100A800090E0880F991FFC01EF52FC4FA591B491A3
:100A9000FC01E95AFC4FC591D49161110EC09FB77A
:100AA000F8948C91E22FE0958E238C932881E22399
:100AB000E8839FBFDF91CF9108958FB7F894EC91B1
:100AC000E22BEC938FBFF6CFCF93CFB7F894809102
:100AD000A304811127C0E6E6F4E08491E0E2F4E0AB
:100AE0009491E82FF0E0EE0FFF1FEF52FC4FA5911D
:100AF000B491EC91E92321F461E085E30E94C604FE
:100B000061E085E30E9433058CB580618CBD8CB5B6
:100B100080648CBD61E084E30E94330561E083E37F
:100B20000E9433058091A3048F5F8093A304CFBFFD
:100B3000CF910895865320917B00982F987F277F2F
:100B4000922B90937B008770806480937C008091CF
:100B50007A00806480937A0080917A0086FDFCCFD1
:100B6000809178009091790008953FB7F894809132
:100B70009F049091A004A091A104B091A20426B575
:100B8000A89B05C02F3F19F00196A11DB11D3FBFC5
:100B9000BA2FA92F982F8827BC01CD01620F711D94
:100BA000811D911D42E0660F771F881F991F4A958E
:100BB000D1F708958F929F92AF92BF92CF92DF921A
:100BC000EF92FF920F931F93CF93DF93D091650520
:100BD000D13208F0D7C0182FC09164050E94B50526
:100BE0006B017C0180913C0581116BC082E0809398
:100BF0003C0510933B058FEF80933A051092390521
:100C0000D0933805A4E4B5E0E8E1F5E080E0D8133E
:100C100091C01092170580911705CC0FC82BC09377
:100C2000170580911605813009F088C010921605CD
:100C30000E94B5056B017C01809117058093BB0074
:100C400080913E0590913F05A0914005B0914105EE
:100C5000892B8A2B8B2BA1F00E94B50500913E05B4
:100C600010913F0520914005309141056C197D0997
:100C70008E099F09061717072807390708F442C08D
:100C80008091BC0083FDD8CF85EC8093BC000E948E
:100C9000B5056B017C0180913C05823009F450C0A0
:100CA00080913A058F3F09F46FC080913A058032F8
:100CB00009F46CC080913A05803309F469C084E07E
:100CC00026C080913E0590913F05A0914005B091CE
:100CD0004105892B8A2B8B2B09F484CF0E94B50503
:100CE00080903E0590903F05A0904005B090410552
:100CF0006C197D098E099F0986169706A806B90604
:100D000008F070CF80913D050E94120585E0109299
:100D100043051092650510924205DF91CF911F9116
:100D20000F91FF90EF90DF90CF90BF90AF909F908A
:100D30008F9008959D9191938F5F69CF85EEA5CF98
:100D400080913E0590913F05A0914005B0914105ED
:100D5000892B8A2B8B2B09F49ECF0E94B50500911D
:100D60003E0510913F0520914005309141056C19D9
:100D70007D098E099F09061717072807390708F00C
:100D80008ACFC0CF81E0C3CF80E0C1CF82E0BFCFA8
:100D900083E0BDCF8F929F92AF92BF92CF92DF92AE
:100DA000EF92FF920F931F93CF93DF93D82FC62F0D
:100DB000142F613208F09CC00E94B5056B017C01C4
:100DC00080913C0581116FC081E080933C051093B8
:100DD0003B059FEF90933A05109239059C0F909335
:100DE00038058093170580911705DD0FD82BD09318
:100DF000170580911605813009F07CC01092160508
:100E00000E94B5056B017C01809117058093BB00A2
:100E100080913E0590913F05A0914005B09141051C
:100E2000892B8A2B8B2BA1F00E94B50500913E05E2
:100E300010913F0520914005309141056C197D09C5
:100E40008E099F09061717072807390708F44CC0B1
:100E50008091BC0083FDD8CF85EC8093BC000E94BC
:100E6000B5056B017C0180913C05813009F444C0DB
:100E7000809139058C1710F4C0913905E8E1F5E04F
:100E8000A6EFB4E080E08C1359C08C2FDF91CF9196
:100E90001F910F91FF90EF90DF90CF90BF90AF9098
:100EA0009F908F90089580913E0590913F05A0916D
:100EB0004005B0914105892B8A2B8B2B09F480CFFB
:100EC0000E94B50580903E0590903F05A09040059A
:100ED000B09041056C197D098E099F098616970609
:100EE000A806B90608F06CCF80913D050E94120556
:100EF000C0E0CBCF85EEB1CF80913E0590913F050C
:100F0000A0914005B0914105892B8A2B8B2B09F4C8
:100F1000AACF0E94B50500913E0510913F05209192
:100F20004005309141056C197D098E099F0906170E
:100F300017072807390708F096CFD6CF91919D93D0
:100F40008F5FA1CF8F929F92AF92BF92CF92DF928D
:100F5000EF92FF924B015C010E94B5056B017C0191
:100F60000E94B5056C197D098E099F09683E734082
:100F700081059105A8F321E0821A9108A108B10822
:100F800088EEC80E83E0D81EE11CF11C8114910488
:100F9000A104B10429F7FF90EF90DF90CF90BF90AC
:100FA000AF909F908F9008952FB7F89460919B0415
:100FB00070919C0480919D0490919E042FBF089590
:100FC0000F931F93CF93DF93EC010E94D4078B0103
:100FD0000E94C0028F3F69F00E94D407601B710B12
:100FE0006C177D07A8F380E0DF91CF911F910F91DF
:100FF000089581E0F9CFDB0114964D915C9115972E
:101000006D917C91DC01ED91FC910280F381E02DEA
:101010001994AF92BF92CF92DF92EF92FF920F930B
:101020001F93CF93DF936C017B018B01040F151F7E
:10103000EB015E01AE18BF08C017D10759F06991E6
:10104000D601ED91FC910190F081E02DC60119953A
:10105000892B79F7C501DF91CF911F910F91FF90F7
:10106000EF90DF90CF90BF90AF900895089590E0FB
:1010700080E00895FC01538D448D252F30E0842FAE
:1010800090E0821B930B541710F0CF9608950197B0
:101090000895FC01918D828D981761F0A28DAE0F9D
:1010A000BF2FB11D5D968C91928D9F5F9F73928F24
:1010B00090E008958FEF9FEF0895FC01918D828D50
:1010C000981731F0828DE80FF11D858D90E008951D
:1010D0008FEF9FEF0895FC01918D228D892F90E075
:1010E000805C9F4F821B91098F73992708958FEB26
:1010F00097E00E946B0821E0892B09F420E0822F01
:101100000895FC01A48DA80FB92FB11DA35ABF4F9C
:101110002C91848D90E001968F739927848FA689F6
:10112000B7892C93A089B1898C91837080648C934A
:10113000938D848D981306C00288F389E02D8081F9
:101140008F7D80830895EF92FF920F931F93CF932B
:10115000DF93EC0181E0888F9B8D8C8D98131AC0F2
:10116000E889F989808185FF15C09FB7F894EE89D9
:10117000FF896083E889F989808183708064808336
:101180009FBF81E090E0DF91CF911F910F91FF9081
:10119000EF900895F62E0B8D10E00F5F1F4F0F7329
:1011A0001127E02E8C8D8E110CC00FB607FCFACFE4
:1011B000E889F989808185FFF5CFCE010E948108F9
:1011C000F1CFEB8DEC0FFD2FF11DE35AFF4FF082B5
:1011D0009FB7F8940B8FEA89FB8980818062CFCF1B
:1011E000CF93DF93EC01888D8823B9F0AA89BB895E
:1011F000E889F9898C9185FD03C0808186FD0DC049
:101200000FB607FCF7CF8C9185FFF2CF808185FF69
:10121000EDCFCE010E948108E9CFDF91CF910895F3
:1012200080E090E0892B29F00E94770881110E94CC
:10123000000080E090E0892B49F080E090E0892B6D
:1012400029F00E94000081110E94000080E090E0DF
:10125000892B49F080E090E0892B29F00E94000062
:1012600081110E94000080E090E0892B49F080E02D
:1012700090E0892B29F00E94000081110C9400005D
:1012800008959C5F0895089561E0FC0184810E94A7
:10129000C6048091F00481111092F00408950CB4FA
:1012A00005FC0DC09EBD00000DB407FEFDCF9EB530
:1012B0008EBD00000DB407FEFDCF8EB508958EBD26
:1012C00000000DB407FEFDCF8EB59EBD00000DB42D
:1012D00007FEFDCF9EB508958CBD9DBD0895CF93AB
:1012E000DF93EC018091F004811109C081E08093CB
:1012F000F00480916807909169070E946C0960E092
:101300008C81DF91CF910C94C6048F929F92AF9203
:10131000BF92FF920F931F93CF93DF93EC01F62EB2
:1013200049015A018E81882389F08F8198859C011B
:101330002F5F3F4F38872F838230924018F40E94EE
:10134000C002F3CFCE010E9444091E82CE010E944A
:101350006F098CE291E00E94E0078F2D80640E946B
:10136000B90208E110E0D501C401002E04C0B69511
:10137000A795979587950A94D2F70E94B9020850CD
:101380001109083F8FEF180771F785E9FF2021F059
:1013900028E087E8F2128FEF0E94B90210E00E9465
:1013A000C0028A8787FF04C01F3F11F01F5FF7CF7D
:1013B000DF91CF911F910F91FF90BF90AF909F90C1
:1013C0008F900895AF92BF92CF92DF92EF92FF92EB
:1013D0000F931F93CF93DF93EC016901C801820F34
:1013E000931F8130924050F58E81882379F0888157
:1013F0009981AA81BB8184179507A607B70731F4A5
:101400008F819885C816D90608F042C04883598351
:101410006A837B838B85833039F089E0440F551FC5
:10142000661F771F8A95D1F79A01AB0161E1CE0162
:101430000E948509882389F083E08D83CE010E9474
:10144000440980E0DF91CF911F910F91FF90EF90C1
:10145000DF90CF90BF90AF9008950E94D4075B01BA
:101460000E94C0028A878F3F69F40E94D4076A19DC
:101470007B096D327140A0F38FE08D83CE010E9415
:101480004409DCCF8E3F89F418861F8281E08E8369
:101490008F8198858C159D0550F40E94C0028F8124
:1014A0009885019698878F83F3CF8DE0E6CF67010B
:1014B000E00EF11E0E94C002F60181936F01EE154D
:1014C000FF05C1F78F819885080F191F18870F83B3
:1014D0008985882319F001151240A0F08E81882398
:1014E00089F08F8198859C012F5F3F4F38872F832C
:1014F0008230924018F40E94C002F3CFCE010E94C5
:1015000044091E8281E09ECFCF92DF92EF92FF923C
:101510000F93CF93DF93EC01690182E141155105EF
:101520006105710599F08B85833039F089E0440FAE
:10153000551F661F771F8A95D1F79A01AB0168E1A5
:10154000CE010E948509882319F084E08D832DC087
:101550008EEF0E94B90276018EEFD81AF7018191C1
:101560007F010E94B902EC14FD04C1F78FEF0E94C5
:10157000B9028FEF0E94B9020E94C0028A878F7160
:10158000853071F4011116C0CE010E94440981E03A
:10159000DF91CF910F91FF90EF90DF90CF90089562
:1015A00081E18D83CE010E944409CE010E9444094D
:1015B00080E0EECF88E592E00E94E007811102C052
:1015C00085E1C4CF20E030E0A9016DE0CE010E94AA
:1015D0008509882311F084E1B9CF0E94C0028111EE
:1015E000FACFD2CF0F934091F2045091F30460915F
:1015F000F4047091F504411551056105710599F0E8
:10160000082F28E635E080916605909167050E94D5
:10161000840A882349F01092F2041092F304109285
:10162000F4041092F50481E00F9108950F93CF9385
:10163000C82F8091F104811105C0C1E08C2FCF919A
:101640000F910895409100025091010260910202B1
:10165000709103020C2F28E635E080916605909189
:1016600067050E94840A811102C0C0E0E7CFCC2345
:1016700021F381E00E94F20A8823B9F31092F10469
:10168000DDCF8F929F92AF92BF92EF92FF920F9316
:101690001F93CF934B015C01C42F80910002909166
:1016A0000102A0910202B091030288159905AA05D2
:1016B000BB0551F181E00E94160B81110BC080E047
:1016C000CF911F910F91FF90EF90BF90AF909F909F
:1016D0008F90089588E6E82E85E0F82E00E012E06D
:1016E00030E020E0B501A401809166059091670586
:1016F0000E94E209882319F380920002909201026D
:10170000A0920202B09203024091F1044C2B40934C
:10171000F10481E0D5CFCF93DF93EC016E857F8517
:101720008889998941E00E94410B882351F08A8978
:1017300020E2829FC001112488599A4FDF91CF91F6
:10174000089590E080E0FACF8F929F92AF92BF927F
:10175000CF92DF92EF92FF92CF932AE637E0309359
:10176000670520936605882309F46DC040E060E0BA
:1017700070E0CB010E94410B81110BC080E0CF9142
:10178000FF90EF90DF90CF90BF90AF909F908F90A1
:101790000895809126078F7789F78091320790917D
:1017A0003307A0913407B091350784369105A10520
:1017B000B10520F3C0902E07D0902F07E09030079E
:1017C000F0903107C114D104E104F104B9F240E012
:1017D000C701B6010E94410B882381F280917305F5
:1017E000909174058115924049F6A0917805AA233D
:1017F00029F260917605709177056115710509F4FC
:10180000BDCF20917505222309F4B8CFA093880796
:1018100020937A0790E080E030E0E1E0F0E0C82F2C
:10182000AF01082E02C0440F551F0A94E2F7241797
:10183000350769F041E0480F01968930910579F745
:10184000409383079BCFC12CD12C7601C0CF8093CE
:10185000830720917E0530917F0550E040E02115FF
:10186000310541F420918C0530918D0540918E0514
:1018700050918F0520937B0730937C0740937D0721
:1018800050937E0746015701860E971EA11CB11C7E
:101890008092890790928A07A0928B07B0928C075A
:1018A000E0917905F0917A05F0938F07E0938E0728
:1018B000B0E00E941845DC01CB01880D991DAA1DDE
:1018C000BB1D8093900790939107A0939207B093CC
:1018D000930725E0EE0FFF1F2A95E1F7E150FE4F39
:1018E000EF2FFF27E6958E0F9F1FA11DB11D80933F
:1018F000840790938507A0938607B093870780900D
:101900007B0590907C05B12CA12C8114910441F4AD
:101910008090880590908905A0908A05B0908B05ED
:10192000C81AD90AEA0AFB0AC80CD91CEA1CFB1C13
:1019300004C0F694E794D794C794CA95D2F7C0929E
:101940007F07D0928007E0928107F092820785EFAF
:10195000C8168FE0D806E104F10428F48CE08093E7
:101960008D0781E00CCF80E125EFC2162FEFD20664
:10197000E104F104A0F38091940590919505A09164
:101980009605B09197058093900790939107A09347
:101990009207B093930780E2E2CF4F925F926F92EB
:1019A0007F928F929F92AF92BF92CF92DF92EF92EF
:1019B000FF920F931F93CF93DF93EC0142305105B9
:1019C0006105710590F480E0DF91CF911F910F9137
:1019D000FF90EF90DF90CF90BF90AF909F908F904F
:1019E0007F906F905F904F90089589859A85AB8521
:1019F000BC850196A11DB11D84179507A607B707E1
:101A000010F3CB88DC88ED88FE888F89803109F05F
:101A100042C0BB27A72F962F852F480159012A01C5
:101A20003B01C80ED91EEA1EFB1E80910002909158
:101A30000102A0910202B0910302C816D906EA067B
:101A4000FB0699F58F898031C1F5B301A2015527B5
:101A500066277727440F551F48595A4FFA0191823C
:101A600080828091F10481608093F1048A898230C0
:101A700080F08D819E81AF81B8858C0D9D1DAE1D3E
:101A8000BF1D8093F2049093F304A093F404B093E9
:101A9000F50481E099CFDB01CA01E7E0B695A7958F
:101AA00097958795EA95D1F7B8CF40E0C701B60181
:101AB0000E94410B8111C6CF86CFB301A2014F779F
:101AC000552766277727440F551F440F551F485940
:101AD0005A4FFA0180829182A282B382C2CF8F9242
:101AE0009F92AF92BF92CF92DF92EF92FF920F93AD
:101AF0001F93CF93DF93FC0181859285A385B485E5
:101B00000196A11DB11D84179507A607B70770F4AC
:101B100080E0DF91CF911F910F91FF90EF90DF90C8
:101B2000CF90BF90AF909F908F90089583889488B6
:101B3000A588B6888789803189F5BB27A72F962F7E
:101B4000852FE9016A017B018F01BC01CD01680D80
:101B5000791D8A1D9B1D8090000290900102A0902B
:101B60000202B090030286169706A806B90601F590
:101B7000F8018789803111F5DD24EE24FF24F60178
:101B8000EE0FFF1FE859FA4F80819181B0E0A0E08D
:101B900088839983AA83BB8381E0BBCFDB01CA0121
:101BA000C7E0B695A79597958795CA95D1F7C9CF00
:101BB00040E00E94410B8111DBCFAACFE894C7F827
:101BC000DD24EE24FF24F601EE0FFF1FEE0FFF1FB2
:101BD000E859FA4F80819181A281B381BF70D8CF3B
:101BE0004F925F926F927F92AF92BF92CF92DF92AD
:101BF000EF92FF920F931F93CF93DF9300D01F922A
:101C0000CDB7DEB78C0149835A836B837C8359013E
:101C1000C12CD12C7601412C82E0582E612C712CE4
:101C200049815A816B817C819E012F5F3F4FC801A2
:101C30000E946F0D882339F1F8018585A301920177
:101C400004C0220F331F441F551F8A95D2F7DA01B3
:101C5000C901C80ED91EEA1EFB1E49815A816B813B
:101C60007C818789803111F188EF9FEFAFEFBFE072
:101C7000481759076A077B0798F2F501C082D1829D
:101C8000E282F38281E00F900F900F900F90DF912E
:101C9000CF911F910F91FF90EF90DF90CF90BF9069
:101CA000AF907F906F905F904F90089588EF9FEF77
:101CB000A0E0B0E0DDCFCF93DF93FC0125812223AC
:101CC00021F080E0DF91CF910895EC0180918D07A4
:101CD000803159F582E08583178A108E118E128E1D
:101CE00080918E0790918F07B0E0A0E025E0880FEB
:101CF000991FAA1FBB1F2A95D1F7838B948BA58BA5
:101D0000B68B86E797E09C8F8B8F81E08C831E8259
:101D10001F82188619861A861B861C861D861E86BB
:101D20001F86188A198A1A8ACDCF803251F683E02D
:101D3000858340919007509191076091920770912F
:101D40009307478B508F618F728F9F012D5E3F4F9E
:101D500086E797E00E94F00D8111D3CFB2CF8F922A
:101D60009F92AF92BF92CF92DF92EF92FF920F932A
:101D70001F93CF93DF93EC018D8181110EC080E022
:101D8000DF91CF911F910F91FF90EF90DF90CF9057
:101D9000BF90AF909F908F9008950B891C892D89DB
:101DA0003E89041715072607370748F34A015B01E8
:101DB000823031F48A869B86AC86BD8681E0E0CF96
:101DC00081149104A104B10449F41E821F82188673
:101DD00019861A861B861C861D86F0CF0A851B85F0
:101DE0002C853D85EB8DFC8D858590E00996B901AC
:101DF000A8014150510961097109082E04C0769566
:101E00006795579547950A94D2F775016401E1E00B
:101E1000CE1AD108E108F10804C0F694E794D794EB
:101E2000C7948A95D2F7C416D506E606F70620F0C1
:101E3000012B022B032B11F58F89988DA98DBA8D5B
:101E40008E839F83A887B9878E010A5F1F4FC114B5
:101E5000D104E104F10409F4ADCF4E815F816885BE
:101E6000798598018B8D9C8D0E946F0D91E0C91A28
:101E7000D108E108F1088111EACF81CFC41AD50A4F
:101E8000E60AF70AE1CF3F924F925F926F927F92FC
:101E90008F929F92AF92BF92CF92DF92EF92FF927A
:101EA0000F931F93CF93DF93CDB7DEB72C970FB669
:101EB000F894DEBF0FBECDBF5C01DC015B968D9058
:101EC0009C905C9716964D905D906D907C901997C4
:101ED000411451046104710409F468C0BFEF4B1A46
:101EE0005B0A6B0A7B0A312CF40181859285A385FC
:101EF000B4859C01AD012F5F3F4F4F4F5F4F298746
:101F00003A874B875C87730162011D821E821F82A4
:101F10001886F40181859285A385B4852D813E8143
:101F20004F815885281739074A075B0708F056C0C4
:101F300089859A85AB85BC858C159D05AE05BF0549
:101F400050F482E0C82ED12CE12CF12C92E0492EE5
:101F5000512C612C712C9E012F5F3F4FB701A601C0
:101F6000C4010E946F0D8823C9F189819A81AB81D8
:101F7000BC81892B8A2B8B2B09F1260137019FEF1E
:101F8000491A590A690A790A2D813E814F8158857B
:101F90002F5F3F4F4F4F5F4F2D833E834F835887B7
:101FA0003FEFC31AD30AE30AF30AB3CFF401408028
:101FB0005180628073803324339496CFC414D50447
:101FC000E604F70409F70FEF1FEF2FEF3FE0B7012B
:101FD000A601C4010E94CD0C811119C080E02C968D
:101FE0000FB6F894DEBF0FBECDBFDF91CF911F912A
:101FF0000F91FF90EF90DF90CF90BF90AF909F90A8
:102000008F907F906F905F904F903F900895D50193
:1020100016964D915D916D917C91199741155105E1
:102020006105710539F097018601C4010E94CD0C4C
:102030008823A1F2D5011696CD92DD92ED92FC9205
:102040001997332051F0D701C6010196A11DB11D8A
:10205000F40180839183A283B383F5018789908DF6
:10206000A18DB28D892B8A2B8B2B39F48481C78A61
:10207000D08EE18EF28E80688483F5018481806247
:10208000848381E0ACCF2F923F924F925F926F9208
:102090007F928F929F92AF92BF92CF92DF92EF92F8
:1020A000FF920F931F93CF93DF9300D0CDB7DEB78E
:1020B000FC018581811118C08FEF9FEF0F900F9069
:1020C0000F90DF91CF911F910F91FF90EF90DF90D4
:1020D000CF90BF90AF909F908F907F906F905F90C8
:1020E0004F903F902F900895848180FFE5CF4389E2
:1020F00054896589768982859385A485B585312C37
:10210000212C481759076A077B0719F022242394CA
:10211000312C6F012101CE0101963C01DF011696A1
:10212000BB83AA834114510409F4C5C0F60142855A
:102130005385648575854A01F1E09F22D6015B963F
:102140008D919C915C978A019B01E9E036952795DA
:1021500017950795EA95D1F71596EC91E230E9F5D8
:10216000FC01628D738D848D958D600F711F821FB0
:10217000931FA12C22E0B22EA818B9084A145B04C0
:1021800008F45201F601248126FD04C0A114F2E0F6
:10219000BF0671F400910002109101022091020229
:1021A00030910302061717072807390709F05EC0A8
:1021B00040E00E94410B882309F47ECFC401885976
:1021C0009A4FD3019C012A0D3B1DFC012E173F079E
:1021D00009F46CC041914D93F9CFDC011496BC9089
:1021E000BA94B0228114910479F4B1100DC0452B3A
:1021F000462B472B69F5F6018789908DA18DB28D0D
:1022000086839783A087B187D6015B96ED91FC9179
:102210005C9716966D917D918D919C911997625066
:10222000710981099109258504C0660F771F881FF0
:10223000991F2A95D2F70685178520893189600F65
:10224000711F821F931F6B0D711D811D911D91CFF9
:10225000D60116964D915D916D917C9119972A81C9
:102260003B810E946F0D8111CFCF26CF7301850175
:102270009401AB01BC0180916605909167050E94B5
:10228000E209882309F418CF6A0C7B1CF6018285C9
:102290009385A485B5858A0D9B1DA11DB11D8287DF
:1022A0009387A487B5874A185B083CCF281B390B56
:1022B000620E731EEBCF2A94232809F0FDCE89818C
:1022C00090E0FCCEFC01818D928D009711F00C9472
:1022D00043108FEF9FEF08950F931F93CF93DF93DA
:1022E000EC01898D9A8D10E000E0009799F00E9432
:1022F00043108C010F3F100769F0898D9A8DFC0106
:10230000428553856485758541505109610971097C
:102310000E94AF0EC801DF91CF911F910F910895D8
:102320001F93CF93DF93FC012581222371F1162F98
:10233000EC01848187FF1EC0CF010E948B0BFC0142
:10234000892B19F18D81823040F48B899C89AD896C
:10235000BE89848F958FA68FB78F8F89988D938F25
:10236000828F8F89988DA98DBA8DB58BA48B8C8126
:102370008F778C83111103C08C818F7E8C83812F8A
:10238000DF91CF911F910C94160B80E0DF91CF91DC
:102390001F910895FF920F931F93CF93DF93EC014A
:1023A0008D81813041F090E080E0DF91CF911F91ED
:1023B0000F91FF9008958C8181FFF5CF82FD1BC0A6
:1023C0000091660510916705C8010E946F090E947F
:1023D000C002F82EC8010E9444098FEFF812E3CF23
:1023E0008C8185FF1BC060E0CE010E9490118C8122
:1023F0008F7D8C83D8CF4B895C896D897E898A8556
:102400009B85AC85BD8584179507A607B707C1F2E4
:10241000CE010E94AF0E8111D3CFC5CF4091F204FF
:102420005091F3046091F4047091F504452B462B10
:10243000472B21F080E00E94F20AB5CF80618C83A7
:102440002A853B85317080E092E0821B930BADCFF3
:10245000CF93DF93EC0161E00E949011882311F08B
:102460001D8281E0DF91CF910895FC01818D928DD5
:10247000009719F061E00C94901108952F923F920B
:102480004F925F926F927F928F929F92AF92BF9284
:10249000CF92DF92EF92FF920F931F93CF93DF9330
:1024A00000D01F921F92CDB7DEB77C015B01342EA6
:1024B0005D83DC0115968C911597813009F0CEC0B3
:1024C00014962C9021FECAC022FCB4C0C32CDD801F
:1024D00022947FE027222094B22DB1702B2ED701B9
:1024E0001A964D915D916D917C911D97C114D10407
:1024F00009F428C15B968D919C915C97FC017480D6
:102500007A948A019B0169E036952795179507957E
:102510006A95D1F770228A011170711020C00115DF
:102520001105E9F416964D915D916D917C91199785
:10253000411551056105710509F099C057968D91B6
:102540009D910D90BC91A02D0097A105B10509F0BA
:10255000B0C0C7010E94430F882309F47FC080E008
:1025600092E0801B910B46018C159D0508F44C01EF
:10257000D7015B964D915C915C9716968D919D91DC
:102580000D90BC91A02D0297A109B109FA012585F2
:1025900004C0880F991FAA1FBB1F2A95D2F7468532
:1025A000578560897189840F951FA61FB71F9C01ED
:1025B000AD01270D311D411D511D29013A01811425
:1025C00032E0930609F07BC08091000290910102F5
:1025D000A0910202B091030284159505A605B705E6
:1025E00059F48FEF9FEFDC0180930002909301027A
:1025F000A0930202B0930302022D9501B301A20140
:1026000080916605909167050E94840A882331F1C4
:102610009EEFB91AC818D908F70182859385A48559
:10262000B585880D991DA11DB11D82879387A4874B
:10263000B58755CFF70143895489658976898285A5
:102640009385A485B585481759076A077B0709F460
:102650003DCFC7010E94AF0E811138CF81E090E0DD
:10266000D70113969C938E93129780E007C09E012A
:102670002F5F3F4F0E946F0D811102C090E079C023
:1026800089819A81AB81BC81F701238D348DF90159
:10269000278948EF5FEF60E070E0203121F048EFDC
:1026A0005FEF6FEF7FE084179507A607B70708F085
:1026B00050CFF70186839783A087B18750CF01154C
:1026C000110599F5D7011A964D915D916D917C9107
:1026D0001D9753968D919D910D90BC91A02D4817FB
:1026E00059076A077B0708F181E00E94160B8823CF
:1026F00009F4B4CF409200025092010260920202AB
:10270000709203028091F10481608093F104C8010A
:1027100088599A4FD5019C01280D391DFC012E17AF
:102720003F0759F04D914193FACF41E0C301B20107
:102730000E94410B8111EBCF91CF281B390BA20EC8
:10274000B31E68CFF70183899489A589B689841758
:102750009507A607B70738F48481438B548B658BA4
:10276000768B80688483F701848183FD1AC0832D72
:102770009D810F900F900F900F900F90DF91CF9150
:102780001F910F91FF90EF90DF90CF90BF90AF908F
:102790009F908F907F906F905F904F903F902F9081
:1027A000089561E0C7010E949011882309F456CF73
:1027B000DECFCF93DF931F92CDB7DEB7698341E0C1
:1027C00050E0BE016F5F7F4F0E943E120F90DF917D
:1027D000CF910895CF93DF93EC01E98DFA8D309777
:1027E00049F481E090E09B838A8390E080E0DF9170
:1027F000CF91089513821282898D9A8D0E943E1284
:10280000E98DFA8D22813381232B59F7F0CF6115A1
:10281000710579F0FB0101900020E9F73197AF01D4
:10282000461B570BDC01ED91FC910280F381E02DFA
:10283000199490E080E008958F929F92AF92BF929A
:102840000F931F93CF93DF93CDB7DEB7A1970FB64A
:10285000F894DEBF0FBECDBF19A2423008F44AE0A3
:102860008E010F5D1F4F842E912CB12CA12CA50140
:1028700094010E94D744E62FB901CA01EA30E4F47A
:10288000E05DD801EE938D01232B242B252B79F7C6
:10289000BD018FEB97E00E940714A1960FB6F89444
:1028A000DEBF0FBECDBFDF91CF911F910F91BF90C3
:1028B000AF909F908F900895E95CE3CFCF92DF9225
:1028C000EF92FF92CF93DF936B017C016DE28FEB70
:1028D00097E00E94A308EC0166277727CB016C19CB
:1028E0007D098E099F094AE00E941C148C0F9D1FD0
:1028F000DF91CF91FF90EF90DF90CF9008950C94EF
:10290000071442E050E06CE472E08FEB97E00C9427
:102910000908CF93DF93BC018FEB97E00E94071467
:10292000EC010E9481148C0F9D1FDF91CF910895BF
:10293000CF93DF93BC018FEB97E00E94FB07EC0184
:102940000E9481148C0F9D1FDF91CF9108958F926B
:102950009F92AF92BF92CF92DF92EF92FF920F932E
:102960001F93CF93DF9300D01F92CDB7DEB7FC014A
:102970008581813091F080E00F900F900F900F9043
:10298000DF91CF911F910F91FF90EF90DF90CF904B
:10299000BF90AF909F908F900895848181FFEBCF7F
:1029A00083899489A589B689892B8A2B8B2B09F475
:1029B0005FC07F0140E050E0BA01CF010E94AF0E3E
:1029C0008823C9F2F701C38CD48C8788908CA18CA2
:1029D000B28C82E090E0A0E0B0E0F60180839183C9
:1029E000A283B3839E012F5F3F4FB501A401C601AF
:1029F0000E946F0D882309F4BECF00E010E098011B
:102A0000B501A401C6010E94CD0C882309F4B3CFFF
:102A100089809A80AB80BC80F6018789803119F16A
:102A200088EF9FEFAFEFBFE088169906AA06BB06B6
:102A3000C8F2F701178A108E118E128E138A148A2B
:102A4000158A168A84818068848361E0C7010E94A8
:102A50009011882309F48FCF40E050E0BA01C701FC
:102A60000E94AF0E89CF88EF9FEFA0E0B0E0DCCFEF
:102A700081E082CFCF92DF92EF92FF921F93CF93AC
:102A8000DF93EC0180E2689FF0011124E859FA4FCE
:102A90009385917161F0842F827449F080E0DF9119
:102AA000CF911F91FF90EF90DF90CF900895142F5A
:102AB0006A8B8091000290910102A0910202B09174
:102AC00003028E879F87A88BB98BC488D588F12C89
:102AD000E12C7601DD24CC24CF8AD88EE98EFA8EC3
:102AE000828D938DB0E0A0E0AC01BD014C295D2941
:102AF0006E297F294F8B588F698F7A8F83858871D4
:102B0000B1F4848D958DA68DB78D8B8B9C8BAD8B01
:102B1000BE8B81E08D831F701C831E821F821886EE
:102B200019861A861B861C861D8681E0B8CF8031E7
:102B300009F0B4CF9E012D5E3F4F8B8D9C8D0E947E
:102B4000F00D882309F4AACF84E0E4CFCF93DF937C
:102B500097FF0AC00E945E14EC010E9481148C0F42
:102B60009D1FDF91CF9108954AE00E941C14F4CF7D
:102B7000CF93DF93BC01990F880B990B97FF0AC085
:102B80000E945E14EC010E9481148C0F9D1FDF9146
:102B9000CF9108954AE00E941C14F4CF0F931F9325
:102BA000CF93DF93FC01048115810115110539F4E0
:102BB000FB011082DF91CF911F910F910895415039
:102BC00051094017510708F48A01EB01FC016081AB
:102BD0007181A801CE010E94174AC00FD11F18822F
:102BE000E9CF8091750890917608009761F00E9476
:102BF000281280917508909176080E947C48109266
:102C00007608109275080895CF93DF93EC018881C0
:102C10009981009711F00E947C48198218821D82C8
:102C20001C821B821A82DF91CF910895FC01808162
:102C30009181009711F00C947C4808953F924F9237
:102C40005F926F927F928F929F92AF92BF92CF923C
:102C5000DF92EF92FF920F931F93CF93DF9300D0F9
:102C600000D000D01F921F92CDB7DEB77C01DC01EF
:102C700015968C91811115C0FE013196CE010C96EE
:102C80006F0130E23193E817F907E1F7DA0130E03C
:102C900087E09D91B92E992329F19E3239F48A302B
:102CA00011F480E0DAC038E08AE0F3CFE7E7F4E03F
:102CB0004491442321F031969413FACFF2CF831735
:102CC00080F34FED490F4E3560F74FE9490F4A3118
:102CD00018F440EEB42EB90EF601E30FF11DB082E8
:102CE0003F5FD7CF89818032E1F2322E8B01FB0129
:102CF000838D948DD7015C969C938E935B971682FF
:102D00001782108611861286138614861586F8019E
:102D100082859385A485B58543895489658976899B
:102D200084179507A607B70708F04DC025E0B695AC
:102D3000A795979587952A95D1F7F82FFF70AF2E15
:102D4000D80115968C91823008F4ABCFC8010E944F
:102D5000431097FDA6CFF80182859385A485B5859C
:102D60004F96A11DB11D82879387A487B587F0E296
:102D7000AF9EB001112468597A4F6115710509F4AD
:102D800090CFDB018C91882341F0853E09F058C03B
:102D9000BB2029F0BB24B394BACFB1100EC0F70109
:102DA000A28A8091000290910102A0910202B0914A
:102DB000030286879787A08BB18BDB018C918111F1
:102DC000E9CFBB24B394832D8271823109F069CF9E
:102DD000BB2009F45AC0C7010E948B0B009709F46D
:102DE00060CF20E2FC0111922A95E9F72BE0F60171
:102DF000DC0101900D922A95E1F721E238E2DC0135
:102E000051963C932E93509740E058E01F965C9368
:102E10004E931E9753963C932E93529759963C93FC
:102E20002E93589757965C934E93569781E00E9445
:102E3000160B882309F435CF432DF70162890AC0A8
:102E40004BE050E0C6010E94E649892B09F05FCFB4
:102E5000432D6A2DC7010E943A152B960FB6F894A0
:102E6000DEBF0FBECDBFDF91CF911F910F91FF90BD
:102E7000EF90DF90CF90BF90AF909F908F907F901A
:102E80006F905F904F903F900895F8018581823058
:102E900009F407CFC8010E94430F882309F401CF2A
:102EA000D8015B96ED91FC915C9716968D909D9064
:102EB000AD90BC901997B2E08B1A9108A108B108A7
:102EC000858504C0880C991CAA1CBB1C8A95D2F766
:102ED00086859785A089B189880E991EAA1EBB1E7A
:102EE000848124013501480E511C611C711C84141D
:102EF0009504A604B70409F1E1E04E1A51086108EF
:102F0000710881E00E94160B882309F4CACEE8E616
:102F1000F5E0119288E697E08E179F07D1F740926F
:102F200000025092010260920202709203028091AC
:102F3000F10481608093F104DACFD8015B96ED91C2
:102F4000FC91258580E092E0A0E0B0E004C0880F0D
:102F5000991FAA1FBB1F2A95D2F7F80143895489EC
:102F600065897689840F951FA61FB71F838B948B65
:102F7000A58BB68BD70152961C9288E695E031CF8F
:102F80005F926F927F928F929F92AF92BF92CF92F9
:102F9000DF92EF92FF920F931F93CF93DF93CDB702
:102FA000DEB7C754D1090FB6F894DEBF0FBECDBF50
:102FB0005C013B0119A218A28EE092E09F8F8E8FD8
:102FC0001BA21C821B829A8389831E8210E000E070
:102FD0006E018EE1C80ED11C84E9E82E87E0F82E40
:102FE000F501E00FF11F80818F3211F40F5F1F4F49
:102FF000D501A00FB11FFE01FB9690E080E04F01CC
:103000002D912F3249F0222339F00F5F1F4F019687
:1030100021938C309105A1F7880D991DFC01108238
:10302000F501E00FF11F80818F3211F40F5F1F4F08
:10303000F501E00FF11F508041E0511040E030E019
:1030400020E0B401C701F3011995811121C0F4E911
:10305000EF16F7E0FF06C1F480E0C95BDF4F0FB663
:10306000F894DEBF0FBECDBFDF91CF911F910F91BE
:10307000FF90EF90DF90CF90BF90AF909F908F9098
:103080007F906F905F900895C7010E942812E4CF4F
:10309000552091F021E0A401B701C6010E941E163F
:1030A000982E84E9E81687E0F80681F0C7010E94AF
:1030B0002812911010C0D0CF94E9E91697E0F906D4
:1030C00019F0C7010E94281281E0C7CF992021F290
:1030D000FE0131967F019E2D8F2D7601C92ED82EAF
:1030E0007FCFCF93DF93CDB7DEB76D970FB6F89450
:1030F000DEBF0FBECDBF442399F1AB01BC011C82E2
:103100001B828EE092E09A8389831E8222E0CE01A8
:1031100001960E941E1681110EC090E081E091116F
:1031200001C080E06D960FB6F894DEBF0FBECDBF34
:10313000DF91CF910895CE0101960E94A7148823B4
:1031400061F3CE0101960E948B0B009731F325EEBF
:10315000FC0120831E8281E00E94160B982FDECF97
:1031600081E0E0CF1F93CF93DF93CDB7DEB76D97AC
:103170000FB6F894DEBF0FBECDBFAB011C821B8221
:103180002EE032E03A8329831E8221E0BC01CE0189
:1031900001960E941E1611E081110CC010E0812FD3
:1031A0006D960FB6F894DEBF0FBECDBFDF91CF9105
:1031B0001F910895CE0101960E942812F0CFEF9240
:1031C000FF920F931F93CF93DF93EC017B018A0152
:1031D0001B821A8288EE93E0A0E0B0E08C839D838E
:1031E000AE83BF838EE392E0998388838DE190E084
:1031F0000E94E0479A8F898F009779F02DE1F701BF
:10320000DC0101900D922A95E1F74CE050E0B80105
:10321000CE010C960E94174A188EDF91CF911F9114
:103220000F91FF90EF9008952F923F924F925F92EF
:103230006F927F928F929F92AF92BF92CF92DF92C6
:10324000EF92FF920F931F93CF93DF93CDB7DEB72B
:10325000C756D1090FB6F894DEBF0FBECDBF5C01D3
:103260003B01A6964FAFA69719A218A28EE092E056
:103270009F8F8E8F1BA21C821B829A8389831E8242
:103280004E018EE1880E911CC4010E945B0E630109
:103290008E010F5F1F4F240118016FE270E0C6011D
:1032A0000E94FC49009709F459C0F60120812F3291
:1032B00071F4FFEFCF1ADF0A902F812F8201492E80
:1032C000582E942D852D2801092F182FE6CF8C1903
:1032D0008D3008F08CE0E82EF12CA701B601CE016C
:1032E000885A9F4F0E94174AE8E5F0E0EC0FFD1F57
:1032F000EE0DFF1D1082C8010E94281221E0AE01D0
:10330000485A5F4FB201C8010E941E16811120C0A9
:103310001EAE1DAE8EE092E09CAF8BAF21961FAE2D
:103320002197A896EEADFFADA8976E0E7F1EF30114
:103330008081811120C0BE01655C7F4FC1010E9468
:10334000C3024FE452E0B101C5010E94DF1831C051
:10335000CE0CDF1CC2010E942812B3CFC601861911
:103360009709A8969FAF8EAFA897B201CE01CB96D2
:103370000E94C302D6CF19A218A28EE092E09F8FBE
:103380008E8F1BA221968FAD219781112DC0F50143
:103390001382128288EE93E0A0E0B0E084839583EC
:1033A000A683B7838EE392E091838083128E118E81
:1033B0001486C501C959DF4F0FB6F894DEBF0FBEA2
:1033C000CDBFDF91CF911F910F91FF90EF90DF90D4
:1033D000CF90BF90AF909F908F907F906F905F90B5
:1033E0004F903F902F900895A6962FADA697A301DA
:1033F000BE01655C7F4FC4010E941E16882339F20E
:10340000CE01CB960E942812A6968FADA697867005
:10341000863039F449A95AA96BA97CA9C4010E9434
:10342000AF0EB401C1010E94C302A3018CCF85ED90
:103430008093BC0080913E0590913F05A09140058E
:10344000B09141050796A11DB11D23E0B695A79542
:10345000979587952A95D1F72091BC0024FD03C04C
:1034600010923C05089540913E0550913F056091B2
:10347000400570914105452B462B472B69F300977A
:10348000A105B10541F025E32A95F1F70000019768
:10349000A109B109E1CF80913D050C941205FC0111
:1034A00080819181009711F00C942E3F60E070E0D4
:1034B000CB010895FC0124813581232B39F421E0CF
:1034C000FB018081882349F020E007C08081918141
:1034D0000E94074A21E0892BB9F7822F08950F93A4
:1034E0001F93CF93DF93EC0188819981009759F066
:1034F0002A813B812617370730F081E0DF91CF9199
:103500001F910F9108958B016F5F7F4F0E940549B6
:10351000009759F0998388831B830A832C813D810E
:10352000232B59F7FC011082E8CF80E0E7CFEF9220
:10353000FF920F931F93CF93DF936115710541F4B1
:1035400080E0DF91CF911F910F91FF90EF90089550
:1035500041155105B1F07B01EC010C811D81040F77
:10356000151FB8010E946F1A882351F328813981F1
:103570008C819D81B701820F931F0E94104A1D8389
:103580000C8381E0DECFCF93DF93EC01FB01019050
:103590000020E9F73197AF01461B570B0E94971A9D
:1035A000811103C0CE010E940416CE01DF91CF919C
:1035B0000895CF93DF93EC01FB0144815581608135
:1035C00071810E94971A811103C0CE010E940416D6
:1035D000CE01DF91CF910895FB0101900020E9F722
:1035E0003197AF01461B570B0C94971AEF92FF923D
:1035F0000F931F93CF93DF93EC017B018A01BA01F4
:103600000E946F1A81110BC0CE010E940416CE01D8
:10361000DF91CF911F910F91FF90EF9008951D833F
:103620000C83B701888199810E94104AF0CFFB0179
:1036300001900020E9F73197AF01461B570B0C941E
:10364000F61A0F931F93CF93DF93CDB7DEB7629730
:103650000FB6F894DEBF0FBECDBF8C01CB01F801D1
:103660001182108213821282158214824AE0BE01F6
:103670006F5F7F4F0E945E3FBE016F5F7F4FC8014B
:103680000E94171B62960FB6F894DEBF0FBECDBF27
:10369000DF91CF911F910F9108950F931F93CF93B7
:1036A000DF93CDB7DEB7A2970FB6F894DEBF0FBE9B
:1036B000CDBF8C01CB01BA01F801118210821382B7
:1036C0001282158214822AE0AE014F5F5F4F0E9482
:1036D000693FBE016F5F7F4FC8010E94171BA29612
:1036E0000FB6F894DEBF0FBECDBFDF91CF911F9113
:1036F0000F910895EF92FF920F931F93CF93DF9353
:10370000CDB7DEB7A1970FB6F894DEBF0FBECDBF21
:103710007C01CB01BA01F70111821082138212825F
:10372000158214828E010F5F1F4F22E044E00E9439
:10373000DE3D009789F0BC01C7010E94171BA196CE
:103740000FB6F894DEBF0FBECDBFDF91CF911F91B2
:103750000F91FF90EF900895C7010E940416EFCFDC
:10376000CF93DF93EC01FB018617970749F0608147
:1037700071816115710541F0448155810E94F61AED
:10378000CE01DF91CF9108950E940416F9CFFC017C
:103790001182108213821282158214820C94B01B43
:1037A000FC01118210821382128215821482FB01A5
:1037B00001900020E9F73197AF01461B570B0C949D
:1037C000F61A0F931F93CF93DF9300D000D0CDB79D
:1037D000DEB78C010E94C71BF8018481958182307D
:1037E000910571F0039701F1C80126960FB6F89480
:1037F000DEBF0FBECDBFDF91CF911F910F91089516
:1038000063E572E0CE0101960E94D01BB801CE01A3
:1038100001960E94D91ABC01C8010E94B01BCE01BA
:1038200001960E941616E0CF6FE672E0EBCF0F9381
:103830001F93CF93DF9300D000D0CDB7DEB78C01BC
:103840000E94C71BF801848195818230910551F156
:1038500080F461E572E0019799F0C80126960FB6F1
:10386000F894DEBF0FBECDBFDF91CF911F910F91B6
:10387000089583309105C9F06FE672E0049769F707
:10388000CE0101960E94D01BB801CE0101960E9484
:10389000D91ABC01C8010E94B01BCE0101960E943A
:1038A0001616DBCF62E572E0EBCF63E572E0E8CF9E
:1038B0000F931F93CF93DF9300D000D0CDB7DEB727
:1038C0008C010E94C71BF80184819581813091058C
:1038D00071F0029701F1C80126960FB6F894DEBF89
:1038E0000FBECDBFDF91CF911F910F91089563E57A
:1038F00072E0CE0101960E94D01BB801CE01019664
:103900000E94D91ABC01C8010E94B01BCE010196C9
:103910000E941616E0CF6FE672E0EBCFEF92FF92B7
:103920000F931F93CF93DF9300D000D0CDB7DEB7B6
:103930008C010E94C71BF80184819581813091051B
:1039400009F44CC00297A1F068E672E4CE0101963A
:103950000E94211BED80FE80F80184819581E81A88
:10396000F90ACE0101960E941616EA94EF2809F58D
:103970006FE672E0CE0101960E94D01BB801CE0125
:1039800001960E94D91ABC01C8010E94B01BCE0149
:1039900001960E941616C80126960FB6F894DEBF4F
:1039A0000FBECDBFDF91CF911F910F91FF90EF9090
:1039B000089568E672E4CE0101960E94211BED8015
:1039C000FE80F80184819581E81AF90ACE010196FA
:1039D0000E941616F2E0EF16F10419F463E572E0A6
:1039E000C9CFB801C8010E94B01BD5CF9B01AC0163
:1039F00067EC71E780E092E40E944C462BE338EAE2
:103A000043E05DE30E9409442BE338EA43E05DE3D1
:103A10000E9432450895EF92FF920F931F93CF9328
:103A2000DF9300D000D0CDB7DEB78C017B010E94C0
:103A3000C71BD70114968D919C910197F8012481A1
:103A400035818217930758F40190F081E02DE80F3B
:103A5000F91FD80115969C938E9314971082F80144
:103A6000808191810E942A3F20E030E0A9010E94DC
:103A7000474618169CF466E572E0CE0101960E9456
:103A8000D01BB801CE0101960E94D91ABC01C80111
:103A90000E94B01BCE0101960E94161668E572E0E6
:103AA000C8010E945A1A882329F06EE572E0C80105
:103AB0000E94171B62E672E0C8010E945A1A88230E
:103AC00029F068E672E0C8010E94171B6CE672E0FC
:103AD000C8010E945A1A811107C061E772E0C8014B
:103AE0000E945A1A882329F06CE672E0C8010E94ED
:103AF000171BD80114968D919C9166E772E0813076
:103B0000910549F067E772E08230910521F0039753
:103B100029F468E772E0C8010E94EC1AC8012696F1
:103B20000FB6F894DEBF0FBECDBFDF91CF911F91CE
:103B30000F91FF90EF9008952F923F924F925F92D6
:103B40006F927F928F929F92AF92BF92CF92DF92AD
:103B5000EF92FF920F931F93CF93DF93CDB7DEB712
:103B6000CB54D1090FB6F894DEBF0FBECDBF8C0188
:103B70002DB73EB724963FAF2EAF24976EE472E088
:103B8000CE0188960E94D01B6EE472E0CE018E9624
:103B90000E94D01BB801CE0101960E94211BBE01DC
:103BA0006F5F7F4FCE014C960E94C71B6AE772E0A1
:103BB000CE014C960E94C31A62EB78E1FC01808131
:103BC00091810E94C017D82ECE014C960E941616E5
:103BD000CE0101960E941616DD2009F49AC4B801A0
:103BE000CE014C960E94211BBE01645E7F4FCE0128
:103BF00082960E94C71B6AE772E0CE0182960E94FD
:103C0000C31AFC016081718141E0CE0101960E94DE
:103C10001419CE0101960E947802CE0182960E946C
:103C20001616CE014C960E941616D12CC12C8CE58E
:103C300098E00E9413031C012601FFEF4F1A5F0A50
:103C4000892BA9F08CE598E00E946211182F8983D6
:103C50001A8241E050E0BE016F5F7F4FCE0188962F
:103C60000E94971A103209F026016201E0CF6FE737
:103C700072E08FEB97E00E947F14B201CE010196B3
:103C80000E94211BCE0101960E949814CE0101963C
:103C90000E94161686E0849D9001859D300D1124AA
:103CA00022963FAF2EAF22974DB75EB7421B530B04
:103CB0000FB6F8945EBF0FBE4DBF8DB79EB701968D
:103CC0003C018C015C016EE472E0C5010E94D01BD6
:103CD00096E0A90EB11CE1E0CE1AD108A0F7CE0102
:103CE00088960E949814D12CC12CB12CA12C66E08E
:103CF000962E8CA59DA59C01295F3F4F2C153D0557
:103D000008F463C0C816D90628F4E8A5F9A53097C9
:103D100009F052C010928E04EEE8F4E020812032C7
:103D2000C1F0C816D90628F4E8A5F9A5309709F01E
:103D300046C010928E04EEE8F4E0808189831A82F6
:103D400041E050E0BE016F5F7F4FCE018E960E9432
:103D5000971A8CA59DA5C816D90620F4E8A5F9A543
:103D6000309781F510928E04EEE8F4E08081803285
:103D7000F9F49A9CC0019B9C900D1124BE01625DD8
:103D80007F4F860D971D0E94B01B2FEFA21AB20A1B
:103D90006FE872E08FEB97E00E947F14CE018E9661
:103DA0000E9498146EE472E0CE018E960E94171B5A
:103DB0003FEFC31AD30A9DCFEC0DFD1DAFCFEC0D25
:103DC000FD1DBBCFEC0DFD1DD1CF0E94F1156E0185
:103DD00044E3C40ED11C6EE472E0C6010E94D01B05
:103DE0001FAE1EAE6AEA72E0C8010E945A1A88230A
:103DF00089F0B801C6010E94B01BF12CE12C8EADF8
:103E00009FAD01969FAF8EAF0A5F1F4F841595053A
:103E10004CF3EBC1E114F104F9F46AEA72E0C60173
:103E20000E945A1A882309F410C1C8010E944F1A2F
:103E30004B017BAF6AAF61EB72E08FEB97E00E94C2
:103E40007F14C4010E94B815B801C6010E94B01BBE
:103E5000EE24E394F12CD3CF51E0E516F104C9F43C
:103E6000C8010E944F1A2CE04AAD5BAD249FF001BF
:103E7000259FF00D1124E352F74F778366830E944C
:103E8000A615B801C6010E94B01B42E0E42EF12C39
:103E9000B6CF52E0E516F104D1F4C8010E944F1AE2
:103EA0002CE04AAD5BAD249FF001259FF00D11245D
:103EB000E352F74F71876087CB010E94B815B801B4
:103EC000C6010E94B01B33E0E32EF12C98CF53E0E3
:103ED000E516F10411F54AE050E070E060E0F80109
:103EE000808191810E94FC3D2CE04AAD5BAD249F16
:103EF000F001259FF00D1124E352F74F738762877D
:103F0000F801808191810E948914B801C6010E9444
:103F1000B01B24E0E22EF12C72CFF4E0EF16F10496
:103F200081F462EC72E0C8010E945A1A882309F4F5
:103F30008CC0B801C6010E94B01B95E0E92EF12C9F
:103F40005ECF25E0E216F10481F466EC72E0C80170
:103F50000E945A1A882309F478C0B801C6010E9449
:103F6000B01B86E0E82EF12C4ACF36E0E316F104D0
:103F7000B9F44AE050E070E060E0F801808191819E
:103F80000E94FC3D28966CAF7DAF8EAF9FAF289707
:103F9000B801C6010E94B01BB7E0EB2EF12C2FCF69
:103FA000F7E0EF16F104C1F462EC72E0C8010E9480
:103FB0005A1A882309F449C026964EAD5FAD26975C
:103FC0005093980440939704B801C6010E94B01B17
:103FD000A8E0EA2EF12C13CF28E0E216F104D9F084
:103FE00059E0E516F10431F54AE050E070E060E098
:103FF000F801808191810E94FC3D2C966CAF7DAFD1
:104000008EAF9FAF2C97B801C6010E94B01BEAE0AB
:10401000EE2EF12CF4CE6AEC72E0C8010E945A1A1E
:10402000882399F0B801C6010E94B01BF9E0EF2E79
:10403000F12CE5CEFAE0EF16F10439F462EC72E00F
:10404000C8010E945A1A81110FC06EEC72E0C801BB
:104050000E945A1A8823C1F0B801C6010E94B01B01
:104060006CE0E62EF12CCBCE2A962EAD3FAD2A97F2
:104070003093960420939504B801C6010E94B01BAA
:104080007BE0E72EF12CBBCE3CE0E316F104E1F13E
:104090004DE0E416F10409F05FC0C8010E944F1A18
:1040A000AB01BC01CE014C960E944D1B68EE72E044
:1040B000CE0101960E94D01BBE01645E7F4FCE01EF
:1040C00001960E94D91A0E949814CE0101960E946E
:1040D0001616CE014C960E941616C8010E944F1A61
:1040E00022E14CAD5DAD249FF001259FF00D112420
:1040F000E958F74F77836683B801C6010E94B01B69
:104100004EE0E42EF12C7BCEC8010E944F1A7DAF09
:104110006CAFCE014C960E94211B64ED72E0CE0183
:1041200001960E94D01BBE01645E7F4FCE010196B6
:104130000E94D91A0E949814CE0101960E94161668
:10414000CE014C960E941616B801C6010E94B01B03
:104150005DE0E52EF12C53CE5EE0E516F104B9F4F6
:10416000C8010E944F1A22E14CAD5DAD249FF001C1
:10417000259FF00D1124E958F74F71876087B8012A
:10418000C6010E94B01B3FE0E32EF12C38CE5FE069
:10419000E516F104B9F4C8010E944F1A22E14CADB2
:1041A0005DAD249FF001259FF00D1124E958F74FD4
:1041B00073876287B801C6010E94B01B20E1E22E1E
:1041C000F12C1DCE50E1E516F10439F462EC72E0F9
:1041D000C8010E945A1A811160C162E073E0C801EF
:1041E0000E945A1A882309F40ACE87E7E82E88E04D
:1041F000F82E10E000E0F70166817781CE0182960B
:104200000E94211BB801CE014C960E94211B69E03F
:1042100073E0CE0101960E94D01BBE01645E7F4F09
:10422000CE0101960E94D91A62E173E00E94C31A7E
:10423000BE016E5D7F4F0E94D91A0E949814CE0174
:1042400001960E941616CE014C960E941616CE01BB
:1042500082960E941616F70160857185CE018296BE
:104260000E94211BB801CE014C960E94211B69E0DF
:1042700073E0CE0101960E94D01BBE01645E7F4FA9
:10428000CE0101960E94D91A62E273E00E94C31A1D
:10429000BE016E5D7F4F0E94D91A0E949814CE0114
:1042A00001960E941616CE014C960E941616CE015B
:1042B00082960E941616F70162857385CE0182965A
:1042C0000E94211BB801CE014C960E94211B69E07F
:1042D00073E0CE0101960E94D01BBE01645E7F4F49
:1042E000CE0101960E94D91A60E373E00E94C31ABE
:1042F000BE016E5D7F4F0E94D91A0E949814CE01B4
:1043000001960E941616CE014C960E941616CE01FA
:1043100082960E9416160F5F1F4FF2E1EF0EF11CFE
:104320000530110509F067CF82E493E00E948914FB
:104330000DED18E0B101CE014C960E94211B6AE4FC
:1043400073E0CE0101960E94D01BBE01645E7F4FD8
:10435000CE0101960E94D91A63E573E00E94C31A48
:10436000BC018FEB97E00E94FB07CE0101960E94F3
:104370001616CE014C960E941616F801868197817A
:104380000E94B815B101CE014C960E94211B6AE42F
:1043900073E0CE0101960E94D01BBE01645E7F4F88
:1043A000CE0101960E94D91A66E673E00E94C31AF4
:1043B000BC018FEB97E00E94FB07CE0101960E94A3
:1043C0001616CE014C960E941616F801808591852E
:1043D0000E94B815B101CE014C960E94211B6AE4DF
:1043E00073E0CE0101960E94D01BBE01645E7F4F38
:1043F000CE0101960E94D91A67E773E00E94C31AA2
:10440000BC018FEB97E00E94FB07CE0101960E9452
:104410001616CE014C960E941616F80182859385D9
:104420000E94B815FFEF2F1A3F0A045F1F4F24E0C8
:104430002216310409F07ECF67E873E08FEB97E036
:104440000E947F1480919704909198040E94B8155F
:104450006BE973E08FEB97E00E947F1480919504E5
:10446000909196040E94B81568EE73E080E090E0A9
:104470000E94A207CE01C4960E94161622960EAD87
:104480001FAD2297060D171D0615170571F0065072
:104490001109C8010E941616F7CFB801C6010E9483
:1044A000B01B91E1E92EF12CAACCCE018E960E9490
:1044B0001616CE0188960E94161624964EAD5FAD54
:1044C00024970FB6F8945EBF0FBE4DBF24968EADF5
:1044D0009FAD24970FB6F8949EBF0FBE8DBFC55BEE
:1044E000DF4F0FB6F894DEBF0FBECDBFDF91CF9187
:1044F0001F910F91FF90EF90DF90CF90BF90AF9002
:104500009F908F907F906F905F904F903F902F90F3
:104510000895CE018E960E941616CE0188960E94AE
:104520001616D4CF4F925F926F927F928F929F9286
:10453000AF92BF92CF92DF92EF92FF920F931F93B1
:10454000CF93DF93CDB7DEB7A7970FB6F894DEBF52
:104550000FBECDBF8C01BC01CE0101960E94211B74
:10456000BE016F5F7F4FCE014C960E94C71B6AE76A
:1045700072E0CE014C960E94C31A0E949814CE019C
:104580004C960E941616CE0101960E941616B8018E
:10459000CE0101960E94211BBE016F5F7F4FCE01AD
:1045A0004C960E94C71B6AE772E0CE014C960E94AF
:1045B000C31A62EB78E1FC01808191810E94C017EF
:1045C000F82ECE014C960E941616CE0101960E943E
:1045D0001616B801CE01FF2009F4E5C201960E942B
:1045E000211BBE016F5F7F4FCE014C960E94C71BFF
:1045F0006AE772E0CE014C960E94C31A61E778E147
:10460000FC01808191810E94C017CE014C960E94CE
:104610001616CE0101960E941616B801CE014C96D0
:104620000E94211BBE01645E7F4FCE0182960E94D4
:10463000C71B6AE772E0CE0182960E94C31AFC0192
:104640006081718147E1CE0101960E941419CE016B
:1046500001960E947802CE0182960E941616CE0123
:104660004C960E941616E0917508F09176083097E6
:1046700009F4E9C28581882309F4E5C29DEDE92E9C
:1046800098E0F92ED12CC12CF70140805180052CE7
:10469000000C6608770882809380A480B580C301EF
:1046A000B2010E94A615B401CE0101960E94211B01
:1046B000CE0101960E949814CE0101960E94161612
:1046C000B501CE0101960E94211BCE0101960E94E8
:1046D0009814CE0101960E94161661EC73E08CE5E9
:1046E00098E00E947F14B601CE0101960E94211B22
:1046F000BE016F5F7F4F8CE598E00E94FB07CE0103
:1047000001960E94161668E772E08CE598E00E9418
:104710007F14B301A201CE0101960E944D1BBE0180
:104720006F5F7F4FCE014C960E94C71B68E772E017
:10473000CE014C960E94C31ABC018CE598E00E9401
:10474000FB07CE014C960E941616CE0101960E94E0
:104750001616B401CE0101960E94211BBE016F5FA7
:104760007F4FCE014C960E94C71B68E772E0CE01D6
:104770004C960E94C31ABC018CE598E00E94FB078E
:10478000CE014C960E941616CE0101960E94161676
:10479000B501CE0101960E94211BBE016F5F7F4FC4
:1047A000CE014C960E94C71B68E772E0CE014C9682
:1047B0000E94C31ABC018CE598E00E94FB07CE0161
:1047C0004C960E941616CE0101960E94161669ECB0
:1047D00073E08CE598E00E947F14FFEFCF1ADF0AA8
:1047E0008CE0E80EF11CE4E0CE16D10409F04CCFC9
:1047F000C0908F04D09090040D2C000CEE08FF08A0
:104800006EEC73E08FEB97E00E947F14C701B60156
:104810000E94A61564ED73E08CE598E00E947F1479
:10482000B701A601CE0101960E944D1BBE016F5F2C
:104830007F4FCE014C960E94C71B68E772E0CE0105
:104840004C960E94C31ABC018CE598E00E94FB07BD
:10485000CE014C960E941616CE0101960E941616A5
:1048600069EC73E08CE598E00E947F14C09091049D
:10487000D09092040D2C000CEE08FF0869ED73E057
:104880008FEB97E00E947F14B701A601CE0101963D
:104890000E944D1BCE0101960E949814CE010196F4
:1048A0000E9416166FED73E08CE598E00E947F146D
:1048B000B701A601CE0101960E944D1BBE016F5F9C
:1048C0007F4FCE014C960E94C71B68E772E0CE0175
:1048D0004C960E94C31ABC018CE598E00E94FB072D
:1048E000CE014C960E941616CE0101960E94161615
:1048F00069EC73E08CE598E00E947F1487E7E82E6E
:1049000088E0F82ED12CC12C61EE72E08CE598E0A5
:104910000E947F14B601CE0101960E94211BBE01A8
:104920006F5F7F4FCE014C960E94C71B68E772E015
:10493000CE014C960E94C31ABC018CE598E00E94FF
:10494000FB07CE014C960E941616CE0101960E94DE
:104950001616F70160817181CE0182960E94211B9B
:10496000B601CE014C960E94211B69E073E0CE0196
:1049700001960E94D01BBE01645E7F4FCE0101965E
:104980000E94D91A64EE73E00E94C31ABE016E5DE4
:104990007F4F0E94D91A0E949814CE0101960E945E
:1049A0001616CE014C960E941616CE0182960E94D3
:1049B0001616F70162817381CE0182960E94211B37
:1049C000B601CE014C960E94211B69E073E0CE0136
:1049D00001960E94D01BBE01645E7F4FCE010196FE
:1049E0000E94D91A61EF73E00E94C31ABE016E5D86
:1049F0007F4F0E94D91A0E949814CE0101960E94FE
:104A00001616CE014C960E941616CE0182960E9472
:104A10001616F70164817581CE0182960E94211BD2
:104A2000B601CE014C960E94211B69E073E0CE01D5
:104A300001960E94D01BBE01645E7F4FCE0101969D
:104A40000E94D91A6CEF73E00E94C31ABE016E5D1A
:104A50007F4F0E94D91A0E949814CE0101960E949D
:104A60001616CE014C960E941616CE0182960E9412
:104A70001616F70160817181CE0101960E94211BFB
:104A8000BE016F5F7F4FCE014C960E94C71B68E747
:104A900072E0CE014C960E94C31ABC018CE598E0EE
:104AA0000E94FB07CE014C960E941616CE0101967D
:104AB0000E941616F70162817381CE0101960E9451
:104AC000211BBE016F5F7F4FCE014C960E94C71B1A
:104AD00068E772E0CE014C960E94C31ABC018CE5D7
:104AE00098E00E94FB07CE014C960E941616CE015C
:104AF00001960E941616F70164817581CE01019618
:104B00000E94211BBE016F5F7F4FCE014C960E9419
:104B1000C71B68E772E0CE014C960E94C31ABC0125
:104B20008CE598E00E94FB07CE014C960E94161679
:104B3000CE0101960E94161669EC73E08CE598E0B0
:104B40000E947F14FFEFCF1ADF0A82E1E80EF11C0A
:104B5000E5E0CE16D10409F0D7CE6BE074E08CE529
:104B600098E00E947F140E94F11583E194E00E9476
:104B70008914C8010E949C1DA7960FB6F894DEBF49
:104B80000FBECDBFDF91CF911F910F91FF90EF909E
:104B9000DF90CF90BF90AF909F908F907F906F905D
:104BA0005F904F9008954C960E94211BBE01645E59
:104BB0007F4FCE0182960E94C71B6AE772E0CE014A
:104BC00082960E94C31AFC016081718147E1CE0187
:104BD00001960E941419CE0101960E947802CE011E
:104BE00082960E941616CE014C960E9416160E94BE
:104BF000F115B801CE0101960E94211BBE016F5F25
:104C00007F4FCE014C960E94C71B6AE772E0CE012F
:104C10004C960E94C31A62EB78E1FC01808191817D
:104C20000E94C017F82ECE014C960E941616CE0197
:104C300001960E941616FF2009F415CD80EB93E033
:104C40000E948914EACC8CE294E091CF2F923F929B
:104C50004F925F926F927F928F929F92AF92BF928C
:104C6000CF92DF92EF92FF920F931F93CF93DF9338
:104C7000CDB7DEB7CA54D1090FB6F894DEBF0FBE68
:104C8000CDBF83E00E949D048C0190937A088093AD
:104C9000790880917B0890917C080817190791F09A
:104CA0000130110549F480917708909178080196B8
:104CB000909378088093770862E370E080E090E05A
:104CC0000E94A20710937C0800937B0880917708CC
:104CD00061E080FD60E08CE20E94C60486E10E94F3
:104CE0009D048C0190938C0880938B0880918D0893
:104CF00090918E080817190791F00130110549F4B9
:104D00008091890890918A08019690938A088093EF
:104D1000890862E370E080E090E00E94A2071093AF
:104D20008E0800938D088091890861E080FD60E025
:104D300086E00E94C60489E10E949D048C01909344
:104D40009E0880939D0880919F089091A008081765
:104D5000190791F00130110549F480919B08909159
:104D60009C08019690939C0880939B0862E370E0F6
:104D700080E090E00E94A2071093A00800939F0893
:104D800080919B0861E080FD60E08DE10E94C60497
:104D900088E10E949D048C019093B0088093AF0835
:104DA0008091B1089091B2080817190791F001306D
:104DB000110549F48091AD089091AE080196909349
:104DC000AE088093AD0862E370E080E090E00E945E
:104DD000A2071093B2080093B1088091AD0860E07B
:104DE00080FD61E08CE10E94C6048BE10E949D047D
:104DF0008C019093C2088093C1088091C308909160
:104E0000C4080817190791F00130110549F4809181
:104E1000BF089091C00801969093C0088093BF0886
:104E200062E370E080E090E00E94A2071093C40863
:104E30000093C3088091BF0860E080FD61E08FE2CD
:104E40000E94C60480919904882311F40C940130C7
:104E5000A0910709B091080928E43FE30E94D947CF
:104E600088248A94F3E09F2EA12CB12CA5019401F3
:104E70000E94F944BA01A901405E5C4F6F4F7F4F19
:104E8000CE0189960E944D1BBE01675D7F4FCE010A
:104E90008F960E948E1C44E150E0BE016F5F7F4FF1
:104EA000CE018F960E94CE15CE018F960E941616C7
:104EB000CE0189960E94161684E00E94AF0280E31C
:104EC00090E00E943104BE016F5F7F4F83EB97E05B
:104ED0000E94071481E00E94DA056091090970912F
:104EE0000A09072E000C880B990B0E94AA4320E0A8
:104EF00030E040EA51E40E94094420E030EC4FE702
:104F000054E40E949F4520E030E040E251E40E94DA
:104F10003245AB01BC01CE0189960E947A1BBE01CD
:104F2000675D7F4FCE018F960E940B1D44E150E0DC
:104F3000BE016F5F7F4FCE018F960E94CE15CE01CE
:104F40008F960E941616CE0189960E94161684E04E
:104F50000E94AF0281E390E00E943104BE016F5FC6
:104F60007F4F83EB97E00E94071481E00E94DA05EF
:104F7000A0910B09B0910C0924E630E00E94D947BA
:104F8000A50194010E94F944BA01A901CE018996B4
:104F90000E944D1BBE01675D7F4FCE018F960E9420
:104FA000581C44E150E0BE016F5F7F4FCE018F96E9
:104FB0000E94CE15CE018F960E941616CE018996BC
:104FC0000E94161684E00E94AF0282E390E00E94E5
:104FD0003104BE016F5F7F4F83EB97E00E9407149F
:104FE00081E00E94DA05A0910709B091080928E440
:104FF0003FE30E94D947A50194010E94F944CA01E8
:10500000B901605E7C4F8F4F9F4F0E94AA432BEDEA
:105010003FE049EC50E40E94094423EC30E046E8CC
:1050200051E30E9409449B01AC0160E070E080E81C
:105030009FE30E949F452BE738E046E155E40E943C
:10504000324520E030EF49E357E40E9409442BEA5F
:1050500032EE4DE357E40E949F4520E030E046E108
:1050600055E40E9433450E9411469B01AC01AFEF0D
:10507000B3E00E941845A0E5CA2EA3ECDA2EE12C7D
:10508000F12CA70196010E94F944CA01B9010E94BE
:10509000AA430E941146CB010E9441099CAF8BAFED
:1050A0008091090990910A090E94410923969FAFB6
:1050B0008EAF2397A0910B09B0910C0924E630E044
:1050C0000E94D947A50194010E94F944B901330F08
:1050D000880B990B0E94AA4320E030E048EC52E490
:1050E0000E949F4520E030E0A9010E9433450E94C4
:1050F000F61C20E030E44CE956E40E9409440E948A
:1051000011469B01AC01AFEFB3E00E941845B0E23D
:105110004B2EBEE45B2E612C712CA30192010E94E8
:10512000F944CA01B9010E94AA430E941146CB0169
:105130000E94410925969FAF8EAF2597A091FB084D
:10514000B091FC0820EB3DE10E94D947A5019401F4
:105150000E94F944BA01A90140575E4F6F4F7F4F3B
:10516000CE0189960E944D1BBE01675D7F4FCE0127
:105170008F960E948E1C44E150E0BE016F5F7F4F0E
:10518000CE018F960E94CE15CE018F960E941616E4
:10519000CE0189960E94161684E00E94AF0280E23A
:1051A00090E00E943104BE016F5F7F4F83EB97E078
:1051B0000E94071481E00E94DA056091FD08709159
:1051C000FE08072E000C880B990B0E94AA4320E0D2
:1051D00030E040EA51E40E94094420E030EC4FE71F
:1051E00054E40E949F4520E030E040E251E40E94F8
:1051F0003245AB01BC01CE0189960E947A1BBE01EB
:10520000675D7F4FCE018F960E940B1D44E150E0F9
:10521000BE016F5F7F4FCE018F960E94CE15CE01EB
:105220008F960E941616CE0189960E94161684E06B
:105230000E94AF0281E290E00E943104BE016F5FE4
:105240007F4F83EB97E00E94071481E00E94DA050C
:10525000A091FF08B091000924E630E00E94D947F0
:10526000A50194010E94F944BA01A901CE018996D1
:105270000E944D1BBE01675D7F4FCE018F960E943D
:10528000581C44E150E0BE016F5F7F4FCE018F9606
:105290000E94CE15CE018F960E941616CE018996D9
:1052A0000E94161684E00E94AF0282E290E00E9403
:1052B0003104BE016F5F7F4F83EB97E00E940714BC
:1052C00081E00E94DA05A091FB08B091FC0820EB78
:1052D0003DE10E94D947A50194010E94F944CA0109
:1052E000B90160577E4F8F4F9F4F0E94AA432BED0D
:1052F0003FE049EC50E40E9409442BEF3FED4CE0C5
:1053000052E30E9409449B01AC0160E070E080E838
:105310009FE30E949F452BE738E046E155E40E9459
:10532000324520E030EF49E357E40E9409442BEA7C
:1053300032EE4DE357E40E949F4520E030E046E125
:1053400055E40E9433450E9411469B01AC01AFEF2A
:10535000B3E00E941845A70196010E94F944CA01D2
:10536000B9010E94AA430E941146CB010E94410943
:105370009EAF8DAF8091FD089091FE080E9441097B
:1053800027969FAF8EAF2797A091FF08B091000995
:1053900024E630E00E94D947A50194010E94F94417
:1053A000B901330F880B990B0E94AA4320E030E02B
:1053B00048EC52E40E949F4520E030E0A9010E94A1
:1053C00033450E94F61C20E030E44CE955E40E948D
:1053D00009440E9411469B01AC01AFEFB3E00E946B
:1053E0001845A30192010E94F944CA01B9010E9423
:1053F000AA430E941146CB010E94410929969FAF02
:105400008EAF2997A0919704B091980427EB38E3C9
:105410000E94D947A50194010E94F944BA01A9014B
:10542000405A5F4F6F4F7F4FCE0189960E944D1BB0
:10543000BE01675D7F4FCE018F960E94171C44E12D
:1054400050E0BE016F5F7F4FCE018F960E94CE1558
:10545000CE018F960E941616CE0189960E941616CE
:1054600084E00E94AF0280E490E00E943104BE011B
:105470006F5F7F4F83EB97E00E94071481E00E94EB
:10548000DA05A0919704B091980427EB38E30E94C5
:10549000D947A50194010E94F944CA01B901605A93
:1054A0007F4F8F4F9F4F0E94AA432BED3FE049EC67
:1054B00050E40E94094422EE3BEB4DE053E30E948E
:1054C00009449B01AC0160E070E080E89FE30E942A
:1054D0009F4520E030E045EA53E40E94324520E059
:1054E00036E042E457E40E9409442DE434EF42E4FC
:1054F00057E40E949F4520E030E045EA53E40E94D3
:1055000033450E9411469B01AC01AFEFB3E00E940E
:105510001845A70196010E94F944CA01B9010E94E9
:10552000AA430E9411462FEF33E0C901861B970B57
:105530000E94410921969FAF8EAF2197A091EF085D
:10554000B091F00820EB3DE10E94D947A5019401FC
:105550000E94F944BA01A90140575E4F6F4F7F4F37
:10556000CE0189960E944D1BBE01675D7F4FCE0123
:105570008F960E948E1C44E150E0BE016F5F7F4F0A
:10558000CE018F960E94CE15CE018F960E941616E0
:10559000CE0189960E94161684E00E94AF0280E137
:1055A00090E00E943104BE016F5F7F4F83EB97E074
:1055B0000E94071481E00E94DA056091F108709161
:1055C000F208072E000C880B990B0E94AA4320E0DA
:1055D00030E040EA51E40E94094420E030EC4FE71B
:1055E00054E40E949F4520E030E040E251E40E94F4
:1055F0003245AB01BC01CE0189960E947A1BBE01E7
:10560000675D7F4FCE018F960E940B1D44E150E0F5
:10561000BE016F5F7F4FCE018F960E94CE15CE01E7
:105620008F960E941616CE0189960E94161684E067
:105630000E94AF0281E190E00E943104BE016F5FE1
:105640007F4F83EB97E00E94071481E00E94DA0508
:10565000A091F308B091F40824E630E00E94D94705
:10566000A50194010E94F944BA01A901CE018996CD
:105670000E944D1BBE01675D7F4FCE018F960E9439
:10568000581C44E150E0BE016F5F7F4FCE018F9602
:105690000E94CE15CE018F960E941616CE018996D5
:1056A0000E94161684E00E94AF0282E190E00E9400
:1056B0003104BE016F5F7F4F83EB97E00E940714B8
:1056C00081E00E94DA05A091EF08B091F00820EB8C
:1056D0003DE10E94D947A50194010E94F944CA0105
:1056E000B90160577E4F8F4F9F4F0E94AA432BED09
:1056F0003FE049EC50E40E9409442BEF3FED4CE0C1
:1057000052E30E9409449B01AC0160E070E080E834
:105710009FE30E949F452BE738E046E155E40E9455
:10572000324520E030EF49E357E40E9409442BEA78
:1057300032EE4DE357E40E949F4520E030E046E121
:1057400055E40E9433450E9411469B01AC01AFEF26
:10575000B3E00E941845A70196010E94F944CA01CE
:10576000B9010E94AA430E941146CB010E9441093F
:105770008C018091F1089091F2080E9441092B96CA
:105780009FAF8EAF2B97A091F308B091F40824E659
:1057900030E00E94D947A50194010E94F944B90163
:1057A000330F880B990B0E94AA4320E030E048ECAD
:1057B00052E40E949F4520E030E0A9010E94334559
:1057C0000E94F61C20E030E44CE955E40E940944B4
:1057D0000E9411469B01AC01AFEFB3E00E94184557
:1057E000A30192010E94F944CA01B9010E94AA438F
:1057F0000E941146CB010E9441093C01A0919504F1
:10580000B091960426E239E00E94D947A50194019F
:105810000E94F944BA01A901465E5F4F6F4F7F4F66
:10582000CE0189960E944D1BBE01675D7F4FCE0160
:105830008F960E94E11B44E150E0BE016F5F7F4FF5
:10584000CE018F960E94CE15CE018F960E9416161D
:10585000CE0189960E94161684E00E94AF0280E570
:1058600090E00E943104BE016F5F7F4F83EB97E0B1
:105870000E94071481E00E94DA05A0919504B0917E
:10588000960426E239E00E94D947A50194010E94BE
:10589000F944CA01B901665E7F4F8F4F9F4F0E9446
:1058A000AA432BED3FE049EC50E40E94094429E56E
:1058B00039ED40E054E30E9409449B01AC0160E0F3
:1058C00070E080E89FE30E949F4523EC35E04CE0C8
:1058D00054E40E94324520E030E241E457E40E9463
:1058E00009442CE133E145E457E40E949F4520E060
:1058F00030E04CE054E40E9433450E9411469B0185
:10590000AC01AFEFB3E00E941845A70196010E94D9
:10591000F944CA01B9010E94AA430E941146CB0171
:105920000E9441097C01A091E308B091E40828EFAE
:1059300032E00E94D947A50194010E94F944BA01BE
:10594000A901485D5F4F6F4F7F4FCE01C5960E9402
:105950004D1B89AD9AAD0297B1F46FE672E0CE01AE
:1059600089960E94D01BBE016B5C7F4FCE01899649
:105970000E94D91ABC01CE01C5960E94B01BCE016F
:1059800089960E94161644E150E0BE016F5F7F4F7A
:10599000CE01C5960E94CE1584E00E94AF0290E031
:1059A00080E00E943104BE016F5F7F4F83EB97E080
:1059B0000E94071481E00E94DA056091E508709169
:1059C000E608072E000C880B990B0E94AA4320E0E2
:1059D00030E040EA51E40E94094420E030EC4FE717
:1059E00054E40E949F4520E030E040E251E40E94F0
:1059F0003245AB01BC01CE0189960E947A1BBE01E3
:105A0000675D7F4FCE018F960E940B1D44E150E0F1
:105A1000BE016F5F7F4FCE018F960E94CE15CE01E3
:105A20008F960E941616CE0189960E94161684E063
:105A30000E94AF0281E090E00E943104BE016F5FDE
:105A40007F4F83EB97E00E94071481E00E94DA0504
:105A5000A091E708B091E80824E630E00E94D94719
:105A600022242A94E3E03E2E412C512CA2019101E4
:105A70000E94F944BA01A901CE0189960E944D1BEA
:105A8000BE01675D7F4FCE018F960E94581C44E196
:105A900050E0BE016F5F7F4FCE018F960E94CE1502
:105AA000CE018F960E941616CE0189960E94161678
:105AB00084E00E94AF0282E090E00E943104BE01C7
:105AC0006F5F7F4F83EB97E00E94071481E00E9495
:105AD000DA05A091E308B091E40828EF32E00E94D3
